{"abi":[{"type":"function","name":"getAmountsForLiquidity","inputs":[{"name":"pool","type":"tuple","internalType":"struct PoolKey","components":[{"name":"currency0","type":"address","internalType":"Currency"},{"name":"currency1","type":"address","internalType":"Currency"},{"name":"fee","type":"uint24","internalType":"uint24"},{"name":"tickSpacing","type":"int24","internalType":"int24"},{"name":"hooks","type":"address","internalType":"contract IHooks"}]},{"name":"manager","type":"address","internalType":"contract IPoolManager"},{"name":"lowerTick","type":"int24","internalType":"int24"},{"name":"upperTick","type":"int24","internalType":"int24"},{"name":"liquidity","type":"uint128","internalType":"uint128"}],"outputs":[{"name":"amount0","type":"uint256","internalType":"uint256"},{"name":"amount1","type":"uint256","internalType":"uint256"}],"stateMutability":"view"},{"type":"function","name":"getSlot0","inputs":[{"name":"pool","type":"tuple","internalType":"struct PoolKey","components":[{"name":"currency0","type":"address","internalType":"Currency"},{"name":"currency1","type":"address","internalType":"Currency"},{"name":"fee","type":"uint24","internalType":"uint24"},{"name":"tickSpacing","type":"int24","internalType":"int24"},{"name":"hooks","type":"address","internalType":"contract IHooks"}]},{"name":"manager","type":"address","internalType":"contract IPoolManager"}],"outputs":[{"name":"sqrtPriceX96","type":"uint160","internalType":"uint160"},{"name":"tick","type":"int24","internalType":"int24"},{"name":"protocolFee","type":"uint24","internalType":"uint24"},{"name":"lpFee","type":"uint24","internalType":"uint24"}],"stateMutability":"view"},{"type":"function","name":"read","inputs":[{"name":"pool","type":"tuple","internalType":"struct PoolKey","components":[{"name":"currency0","type":"address","internalType":"Currency"},{"name":"currency1","type":"address","internalType":"Currency"},{"name":"fee","type":"uint24","internalType":"uint24"},{"name":"tickSpacing","type":"int24","internalType":"int24"},{"name":"hooks","type":"address","internalType":"contract IHooks"}]},{"name":"manager","type":"address","internalType":"contract IPoolManager"},{"name":"lowerTick","type":"int24","internalType":"int24"},{"name":"upperTick","type":"int24","internalType":"int24"},{"name":"token0Amount","type":"uint256","internalType":"uint256"},{"name":"token1Amount","type":"uint256","internalType":"uint256"}],"outputs":[{"name":"liquidity","type":"uint128","internalType":"uint128"}],"stateMutability":"view"}],"bytecode":{"object":"0x60808060405234601557610b03908161001a8239f35b5f80fdfe60806040526004361015610011575f80fd5b5f3560e01c806320a13bd3146101a45780633b09ebd41461009c57638d8fc3ea1461003a575f80fd5b346100985760c036600319011261009857608062ffffff8061007061005e36610318565b60a06100686103b0565b912090610700565b9294916001600160a01b036040519616865260020b6020860152166040840152166060820152f35b5f80fd5b3461009857610120366003190112610098576100b736610318565b6100bf6103b0565b906100c86102f8565b6100d0610308565b9061010435906001600160801b03821682036100985760409460a06101006100fa610108946103c6565b956103c6565b952090610700565b505050928083905f905f956001600160a01b0382166001600160a01b03821611610199575b50506001600160a01b03868116908316811161015e5750506101509394506108ac565b905b82519182526020820152f35b919450906001600160a01b038316111561018e575092610183826101899495836108ac565b9361087b565b610152565b93506101899261087b565b93509150878061012d565b34610098576101403660031901126100985760206101c136610318565b6101c96103b0565b6101d16102f8565b916101da610308565b610202610104359360a06101fa6101f461012435986103c6565b946103c6565b942090610700565b5050509382826001600160a01b0382166001600160a01b038216116102b7575b50506001600160a01b03858116959083168611610256575050610245935061082b565b6001600160801b0360405191168152f35b92909391946001600160a01b038216115f146102ab57829161027c91610282959461082b565b936107f2565b6001600160801b0381166001600160801b038316105f146102a457505b610245565b9050610245565b91505061029f926107f2565b935091508680610222565b90601f8019910116810190811067ffffffffffffffff8211176102e457604052565b634e487b7160e01b5f52604160045260245ffd5b60c435908160020b820361009857565b60e435908160020b820361009857565b60a0906003190112610098576040519060a0820182811067ffffffffffffffff8211176102e457604052816004356001600160a01b03811681036100985781526024356001600160a01b038116810361009857602082015260443562ffffff811681036100985760408201526064358060020b8103610098576060820152608435906001600160a01b03821682036100985760800152565b60a435906001600160a01b038216820361009857565b60020b908160ff1d82810118620d89e881116106ed5763ffffffff9192600182167001fffcb933bd6fad37aa2d162d1a594001027001000000000000000000000000000000001891600281166106d1575b600481166106b5575b60088116610699575b6010811661067d575b60208116610661575b60408116610645575b60808116610629575b610100811661060d575b61020081166105f1575b61040081166105d5575b61080081166105b9575b611000811661059d575b6120008116610581575b6140008116610565575b6180008116610549575b62010000811661052d575b620200008116610512575b6204000081166104f7575b62080000166104de575b5f126104d6575b0160201c90565b5f19046104cf565b6b048a170391f7dc42444e8fa290910260801c906104c8565b6d2216e584f5fa1ea926041bedfe9890920260801c916104be565b916e5d6af8dedb81196699c329225ee6040260801c916104b3565b916f09aa508b5b7a84e1c677de54f3e99bc90260801c916104a8565b916f31be135f97d08fd981231505542fcfa60260801c9161049d565b916f70d869a156d2a1b890bb3df62baf32f70260801c91610493565b916fa9f746462d870fdf8a65dc1f90e061e50260801c91610489565b916fd097f3bdfd2022b8845ad8f792aa58250260801c9161047f565b916fe7159475a2c29b7443b29c7fa6e889d90260801c91610475565b916ff3392b0822b70005940c7a398e4b70f30260801c9161046b565b916ff987a7253ac413176f2b074cf7815e540260801c91610461565b916ffcbe86c7900a88aedcffc83b479aa3a40260801c91610457565b916ffe5dee046a99a2a811c461f1969c30530260801c9161044d565b916fff2ea16466c96a3843ec78b326b528610260801c91610444565b916fff973b41fa98c081472e6896dfb254c00260801c9161043b565b916fffcb9843d60f6159c9db58835c9266440260801c91610432565b916fffe5caca7e10e4e61c3624eaa0941cd00260801c91610429565b916ffff2e50f5f656932ef12357cf3c7fdcc0260801c91610420565b916ffff97272373d413259a46990580e213a0260801c91610417565b826345c3193d60e11b5f5260045260245ffd5b60209060246001600160a01b039493604051848101918252600660408201526040815261072e6060826102c2565b5190206040519586938492631e2eaeaf60e01b84526004840152165afa9182156107b3575f9261077f575b506001600160a01b038216918060a01c60020b9162ffffff808360b81c169260d01c1690565b9091506020813d6020116107ab575b8161079b602093836102c2565b810103126100985751905f610759565b3d915061078e565b6040513d5f823e3d90fd5b906001600160a01b03809116911603906001600160a01b0382116107de57565b634e487b7160e01b5f52601160045260245ffd5b916001600160a01b036108166108229461081d9483811684831611610825576107be565b1690610923565b610a74565b90565b906107be565b9161081d91610822936001600160a01b0382166001600160a01b03821611610875575b61086e6001600160a01b03916108688385168483166109ab565b936107be565b16916109f4565b9061084e565b6001600160a01b036108a46001600160801b0392610822959483811684831611610825576107be565b1691166109ab565b916108fc906001600160a01b03928381168486161161091d575b7bffffffffffffffffffffffffffffffff00000000000000000000000084806108ef88856107be565b1692169260601b166109f4565b9116908115610909570490565b634e487b7160e01b5f52601260045260245ffd5b936108c6565b908160601b905f19600160601b84099282808510940393808503948584111561009857146109a457600160601b82910981805f03168092046002816003021880820260020302808202600203028082026002030280820260020302808202600203028091026002030293600183805f03040190848311900302920304170290565b5091500490565b81810291905f1982820991838084109303928084039384600160601b111561009857146109eb57600160601b910990828211900360a01b910360601c1790565b50505060601c90565b91818302915f19818509938380861095039480860395868511156100985714610a6c579082910981805f03168092046002816003021880820260020302808202600203028082026002030280820260020302808202600203028091026002030293600183805f03040190848311900302920304170290565b505091500490565b906001600160801b038216918203610a8857565b60405162461bcd60e51b815260206004820152601260248201527f6c6971756964697479206f766572666c6f7700000000000000000000000000006044820152606490fdfea2646970667358221220cdb0b55ae9f63931eff16f1836c743ec2285d639eb7d5162113cf22ed2de89d464736f6c634300081a0033","linkReferences":{}},"methodIdentifiers":{"getAmountsForLiquidity((address,address,uint24,int24,address),address,int24,int24,uint128)":"3b09ebd4","getSlot0((address,address,uint24,int24,address),address)":"8d8fc3ea","read((address,address,uint24,int24,address),address,int24,int24,uint256,uint256)":"20a13bd3"},"id":102}