{"abi":[{"type":"constructor","inputs":[{"name":"_poolManager","type":"address","internalType":"contract IPoolManager"}],"stateMutability":"nonpayable"},{"type":"function","name":"BASE_FEE","inputs":[],"outputs":[{"name":"","type":"uint24","internalType":"uint24"}],"stateMutability":"view"},{"type":"function","name":"MAX_LP_FEE","inputs":[],"outputs":[{"name":"","type":"uint24","internalType":"uint24"}],"stateMutability":"view"},{"type":"function","name":"MIN_FEE","inputs":[],"outputs":[{"name":"","type":"uint24","internalType":"uint24"}],"stateMutability":"view"},{"type":"function","name":"MULTIPLIER","inputs":[],"outputs":[{"name":"","type":"uint256","internalType":"uint256"}],"stateMutability":"view"},{"type":"function","name":"SCALE","inputs":[],"outputs":[{"name":"","type":"uint256","internalType":"uint256"}],"stateMutability":"view"},{"type":"function","name":"afterAddLiquidity","inputs":[{"name":"","type":"address","internalType":"address"},{"name":"","type":"tuple","internalType":"struct PoolKey","components":[{"name":"currency0","type":"address","internalType":"Currency"},{"name":"currency1","type":"address","internalType":"Currency"},{"name":"fee","type":"uint24","internalType":"uint24"},{"name":"tickSpacing","type":"int24","internalType":"int24"},{"name":"hooks","type":"address","internalType":"contract IHooks"}]},{"name":"","type":"tuple","internalType":"struct IPoolManager.ModifyLiquidityParams","components":[{"name":"tickLower","type":"int24","internalType":"int24"},{"name":"tickUpper","type":"int24","internalType":"int24"},{"name":"liquidityDelta","type":"int256","internalType":"int256"},{"name":"salt","type":"bytes32","internalType":"bytes32"}]},{"name":"","type":"int256","internalType":"BalanceDelta"},{"name":"","type":"int256","internalType":"BalanceDelta"},{"name":"","type":"bytes","internalType":"bytes"}],"outputs":[{"name":"","type":"bytes4","internalType":"bytes4"},{"name":"","type":"int256","internalType":"BalanceDelta"}],"stateMutability":"nonpayable"},{"type":"function","name":"afterDonate","inputs":[{"name":"","type":"address","internalType":"address"},{"name":"","type":"tuple","internalType":"struct PoolKey","components":[{"name":"currency0","type":"address","internalType":"Currency"},{"name":"currency1","type":"address","internalType":"Currency"},{"name":"fee","type":"uint24","internalType":"uint24"},{"name":"tickSpacing","type":"int24","internalType":"int24"},{"name":"hooks","type":"address","internalType":"contract IHooks"}]},{"name":"","type":"uint256","internalType":"uint256"},{"name":"","type":"uint256","internalType":"uint256"},{"name":"","type":"bytes","internalType":"bytes"}],"outputs":[{"name":"","type":"bytes4","internalType":"bytes4"}],"stateMutability":"nonpayable"},{"type":"function","name":"afterInitialize","inputs":[{"name":"","type":"address","internalType":"address"},{"name":"","type":"tuple","internalType":"struct PoolKey","components":[{"name":"currency0","type":"address","internalType":"Currency"},{"name":"currency1","type":"address","internalType":"Currency"},{"name":"fee","type":"uint24","internalType":"uint24"},{"name":"tickSpacing","type":"int24","internalType":"int24"},{"name":"hooks","type":"address","internalType":"contract IHooks"}]},{"name":"","type":"uint160","internalType":"uint160"},{"name":"","type":"int24","internalType":"int24"},{"name":"","type":"bytes","internalType":"bytes"}],"outputs":[{"name":"","type":"bytes4","internalType":"bytes4"}],"stateMutability":"nonpayable"},{"type":"function","name":"afterRemoveLiquidity","inputs":[{"name":"","type":"address","internalType":"address"},{"name":"","type":"tuple","internalType":"struct PoolKey","components":[{"name":"currency0","type":"address","internalType":"Currency"},{"name":"currency1","type":"address","internalType":"Currency"},{"name":"fee","type":"uint24","internalType":"uint24"},{"name":"tickSpacing","type":"int24","internalType":"int24"},{"name":"hooks","type":"address","internalType":"contract IHooks"}]},{"name":"","type":"tuple","internalType":"struct IPoolManager.ModifyLiquidityParams","components":[{"name":"tickLower","type":"int24","internalType":"int24"},{"name":"tickUpper","type":"int24","internalType":"int24"},{"name":"liquidityDelta","type":"int256","internalType":"int256"},{"name":"salt","type":"bytes32","internalType":"bytes32"}]},{"name":"","type":"int256","internalType":"BalanceDelta"},{"name":"","type":"int256","internalType":"BalanceDelta"},{"name":"","type":"bytes","internalType":"bytes"}],"outputs":[{"name":"","type":"bytes4","internalType":"bytes4"},{"name":"","type":"int256","internalType":"BalanceDelta"}],"stateMutability":"nonpayable"},{"type":"function","name":"afterSwap","inputs":[{"name":"","type":"address","internalType":"address"},{"name":"","type":"tuple","internalType":"struct PoolKey","components":[{"name":"currency0","type":"address","internalType":"Currency"},{"name":"currency1","type":"address","internalType":"Currency"},{"name":"fee","type":"uint24","internalType":"uint24"},{"name":"tickSpacing","type":"int24","internalType":"int24"},{"name":"hooks","type":"address","internalType":"contract IHooks"}]},{"name":"","type":"tuple","internalType":"struct IPoolManager.SwapParams","components":[{"name":"zeroForOne","type":"bool","internalType":"bool"},{"name":"amountSpecified","type":"int256","internalType":"int256"},{"name":"sqrtPriceLimitX96","type":"uint160","internalType":"uint160"}]},{"name":"","type":"int256","internalType":"BalanceDelta"},{"name":"","type":"bytes","internalType":"bytes"}],"outputs":[{"name":"","type":"bytes4","internalType":"bytes4"},{"name":"","type":"int128","internalType":"int128"}],"stateMutability":"nonpayable"},{"type":"function","name":"beforeAddLiquidity","inputs":[{"name":"","type":"address","internalType":"address"},{"name":"","type":"tuple","internalType":"struct PoolKey","components":[{"name":"currency0","type":"address","internalType":"Currency"},{"name":"currency1","type":"address","internalType":"Currency"},{"name":"fee","type":"uint24","internalType":"uint24"},{"name":"tickSpacing","type":"int24","internalType":"int24"},{"name":"hooks","type":"address","internalType":"contract IHooks"}]},{"name":"","type":"tuple","internalType":"struct IPoolManager.ModifyLiquidityParams","components":[{"name":"tickLower","type":"int24","internalType":"int24"},{"name":"tickUpper","type":"int24","internalType":"int24"},{"name":"liquidityDelta","type":"int256","internalType":"int256"},{"name":"salt","type":"bytes32","internalType":"bytes32"}]},{"name":"","type":"bytes","internalType":"bytes"}],"outputs":[{"name":"","type":"bytes4","internalType":"bytes4"}],"stateMutability":"nonpayable"},{"type":"function","name":"beforeDonate","inputs":[{"name":"","type":"address","internalType":"address"},{"name":"","type":"tuple","internalType":"struct PoolKey","components":[{"name":"currency0","type":"address","internalType":"Currency"},{"name":"currency1","type":"address","internalType":"Currency"},{"name":"fee","type":"uint24","internalType":"uint24"},{"name":"tickSpacing","type":"int24","internalType":"int24"},{"name":"hooks","type":"address","internalType":"contract IHooks"}]},{"name":"","type":"uint256","internalType":"uint256"},{"name":"","type":"uint256","internalType":"uint256"},{"name":"","type":"bytes","internalType":"bytes"}],"outputs":[{"name":"","type":"bytes4","internalType":"bytes4"}],"stateMutability":"nonpayable"},{"type":"function","name":"beforeInitialize","inputs":[{"name":"","type":"address","internalType":"address"},{"name":"key","type":"tuple","internalType":"struct PoolKey","components":[{"name":"currency0","type":"address","internalType":"Currency"},{"name":"currency1","type":"address","internalType":"Currency"},{"name":"fee","type":"uint24","internalType":"uint24"},{"name":"tickSpacing","type":"int24","internalType":"int24"},{"name":"hooks","type":"address","internalType":"contract IHooks"}]},{"name":"","type":"uint160","internalType":"uint160"},{"name":"","type":"bytes","internalType":"bytes"}],"outputs":[{"name":"","type":"bytes4","internalType":"bytes4"}],"stateMutability":"nonpayable"},{"type":"function","name":"beforeRemoveLiquidity","inputs":[{"name":"","type":"address","internalType":"address"},{"name":"","type":"tuple","internalType":"struct PoolKey","components":[{"name":"currency0","type":"address","internalType":"Currency"},{"name":"currency1","type":"address","internalType":"Currency"},{"name":"fee","type":"uint24","internalType":"uint24"},{"name":"tickSpacing","type":"int24","internalType":"int24"},{"name":"hooks","type":"address","internalType":"contract IHooks"}]},{"name":"","type":"tuple","internalType":"struct IPoolManager.ModifyLiquidityParams","components":[{"name":"tickLower","type":"int24","internalType":"int24"},{"name":"tickUpper","type":"int24","internalType":"int24"},{"name":"liquidityDelta","type":"int256","internalType":"int256"},{"name":"salt","type":"bytes32","internalType":"bytes32"}]},{"name":"","type":"bytes","internalType":"bytes"}],"outputs":[{"name":"","type":"bytes4","internalType":"bytes4"}],"stateMutability":"nonpayable"},{"type":"function","name":"beforeSwap","inputs":[{"name":"","type":"address","internalType":"address"},{"name":"key","type":"tuple","internalType":"struct PoolKey","components":[{"name":"currency0","type":"address","internalType":"Currency"},{"name":"currency1","type":"address","internalType":"Currency"},{"name":"fee","type":"uint24","internalType":"uint24"},{"name":"tickSpacing","type":"int24","internalType":"int24"},{"name":"hooks","type":"address","internalType":"contract IHooks"}]},{"name":"params","type":"tuple","internalType":"struct IPoolManager.SwapParams","components":[{"name":"zeroForOne","type":"bool","internalType":"bool"},{"name":"amountSpecified","type":"int256","internalType":"int256"},{"name":"sqrtPriceLimitX96","type":"uint160","internalType":"uint160"}]},{"name":"","type":"bytes","internalType":"bytes"}],"outputs":[{"name":"","type":"bytes4","internalType":"bytes4"},{"name":"","type":"int256","internalType":"BeforeSwapDelta"},{"name":"","type":"uint24","internalType":"uint24"}],"stateMutability":"nonpayable"},{"type":"function","name":"calculateDynamicFee","inputs":[{"name":"pool","type":"tuple","internalType":"struct PoolKey","components":[{"name":"currency0","type":"address","internalType":"Currency"},{"name":"currency1","type":"address","internalType":"Currency"},{"name":"fee","type":"uint24","internalType":"uint24"},{"name":"tickSpacing","type":"int24","internalType":"int24"},{"name":"hooks","type":"address","internalType":"contract IHooks"}]},{"name":"delta","type":"uint24","internalType":"uint24"},{"name":"params","type":"tuple","internalType":"struct IPoolManager.SwapParams","components":[{"name":"zeroForOne","type":"bool","internalType":"bool"},{"name":"amountSpecified","type":"int256","internalType":"int256"},{"name":"sqrtPriceLimitX96","type":"uint160","internalType":"uint160"}]}],"outputs":[{"name":"","type":"uint24","internalType":"uint24"}],"stateMutability":"view"},{"type":"function","name":"counter","inputs":[],"outputs":[{"name":"","type":"uint256","internalType":"uint256"}],"stateMutability":"view"},{"type":"function","name":"getCurrentFee","inputs":[{"name":"key","type":"tuple","internalType":"struct PoolKey","components":[{"name":"currency0","type":"address","internalType":"Currency"},{"name":"currency1","type":"address","internalType":"Currency"},{"name":"fee","type":"uint24","internalType":"uint24"},{"name":"tickSpacing","type":"int24","internalType":"int24"},{"name":"hooks","type":"address","internalType":"contract IHooks"}]}],"outputs":[{"name":"","type":"uint24","internalType":"uint24"}],"stateMutability":"view"},{"type":"function","name":"getCurrentTick","inputs":[{"name":"key","type":"tuple","internalType":"struct PoolKey","components":[{"name":"currency0","type":"address","internalType":"Currency"},{"name":"currency1","type":"address","internalType":"Currency"},{"name":"fee","type":"uint24","internalType":"uint24"},{"name":"tickSpacing","type":"int24","internalType":"int24"},{"name":"hooks","type":"address","internalType":"contract IHooks"}]}],"outputs":[{"name":"","type":"int24","internalType":"int24"}],"stateMutability":"view"},{"type":"function","name":"getHookPermissions","inputs":[],"outputs":[{"name":"","type":"tuple","internalType":"struct Hooks.Permissions","components":[{"name":"beforeInitialize","type":"bool","internalType":"bool"},{"name":"afterInitialize","type":"bool","internalType":"bool"},{"name":"beforeAddLiquidity","type":"bool","internalType":"bool"},{"name":"afterAddLiquidity","type":"bool","internalType":"bool"},{"name":"beforeRemoveLiquidity","type":"bool","internalType":"bool"},{"name":"afterRemoveLiquidity","type":"bool","internalType":"bool"},{"name":"beforeSwap","type":"bool","internalType":"bool"},{"name":"afterSwap","type":"bool","internalType":"bool"},{"name":"beforeDonate","type":"bool","internalType":"bool"},{"name":"afterDonate","type":"bool","internalType":"bool"},{"name":"beforeSwapReturnDelta","type":"bool","internalType":"bool"},{"name":"afterSwapReturnDelta","type":"bool","internalType":"bool"},{"name":"afterAddLiquidityReturnDelta","type":"bool","internalType":"bool"},{"name":"afterRemoveLiquidityReturnDelta","type":"bool","internalType":"bool"}]}],"stateMutability":"pure"},{"type":"function","name":"manager","inputs":[],"outputs":[{"name":"","type":"address","internalType":"contract IPoolManager"}],"stateMutability":"view"},{"type":"function","name":"poolManager","inputs":[],"outputs":[{"name":"","type":"address","internalType":"contract IPoolManager"}],"stateMutability":"view"},{"type":"function","name":"poolToTick","inputs":[{"name":"","type":"bytes32","internalType":"PoolId"}],"outputs":[{"name":"","type":"int24","internalType":"int24"}],"stateMutability":"view"},{"type":"function","name":"poolToTimeStamp","inputs":[{"name":"","type":"bytes32","internalType":"PoolId"}],"outputs":[{"name":"","type":"uint256","internalType":"uint256"}],"stateMutability":"view"},{"type":"function","name":"unlockCallback","inputs":[{"name":"data","type":"bytes","internalType":"bytes"}],"outputs":[{"name":"","type":"bytes","internalType":"bytes"}],"stateMutability":"nonpayable"},{"type":"error","name":"HookNotImplemented","inputs":[]},{"type":"error","name":"InvalidPool","inputs":[]},{"type":"error","name":"LockFailure","inputs":[]},{"type":"error","name":"MustUseDynamicFee","inputs":[]},{"type":"error","name":"NotPoolManager","inputs":[]},{"type":"error","name":"NotSelf","inputs":[]}],"bytecode":{"object":"0x60a06040523461027f57604051601f6112f338819003918201601f19168301916001600160401b038311848410176102835780849260209460405283398101031261027f57516001600160a01b0381169081810361027f576080525f6101a0610066610297565b8281528260208201528260408201528260608201528260808201528260a08201528260c08201528260e0820152826101008201528261012082015282610140820152826101608201528261018082015201525f6101a06100c4610297565b600181528260208201528260408201528260608201528260808201528260a0820152600160c08201528260e08201528261010082015282610120820152826101408201528261016082015282610180820152015261200030161515600114801590610272575b8015610265575b8015610258575b801561024b575b801561023e575b801561022e575b8015610222575b8015610216575b801561020a575b80156101fe575b80156101f2575b80156101e6575b80156101da575b6101c75760035f55600180546001600160a01b03191691909117905560405161103b90816102b8823960805181818161017301528181610427015281816107200152610d0e0152f35b630732d7b560e51b5f523060045260245ffd5b5060013016151561017e565b50600230161515610177565b50600430161515610170565b50600830161515610169565b50601030161515610162565b5060203016151561015b565b50604030161515610154565b506080301615156001141561014d565b5061010030161515610146565b506102003016151561013f565b5061040030161515610138565b5061080030161515610131565b506110003016151561012a565b5f80fd5b634e487b7160e01b5f52604160045260245ffd5b604051906101c082016001600160401b038111838210176102835760405256fe6080806040526004361015610012575f80fd5b5f3560e01c908163059f8b161461090b5750806321d0ee7014610906578063259982e51461090657806329811c73146108d95780633440d820146107d35780633d18651e146107b75780633fc48eba1461079a578063481c6a7514610774578063575e24b4146106c05780635f105e2d1461068c57806361bc221a146106705780636499b6331461063c5780636c2bbe7e146103e757806376c7a3c714610620578063792dbae81461049657806391dd7346146103ec5780639f063efc146103e7578063a910f80f1461038d578063b22c927314610363578063b47b2fb1146102fe578063b6a8b0fa1461014f578063c4e833ce14610197578063dc4c90d314610154578063e1b4af691461014f5763eced55261461012f575f80fd5b3461014b575f36600319011261014b5760206040516103e88152f35b5f80fd5b610a74565b3461014b575f36600319011261014b5760206040516001600160a01b037f0000000000000000000000000000000000000000000000000000000000000000168152f35b3461014b575f36600319011261014b575f6101a06040516101b781610ac7565b8281528260208201528260408201528260608201528260808201528260a08201528260c08201528260e0820152826101008201528261012082015282610140820152826101608201528261018082015201526101c0602060405161021a81610ac7565b60018152818101905f8252604081015f8152606082015f8152608083015f815260a084015f815260c085016001815260e08601905f82526101008701925f84526101208801945f86526101408901965f88526101608a01985f8a526101a06101808c019b5f8d52019b5f8d526040519d8e916001835251151591015251151560408d015251151560608c015251151560808b015251151560a08a015251151560c089015251151560e08801525115156101008701525115156101208601525115156101408501525115156101608401525115156101808301525115156101a0820152f35b3461014b5761016036600319011261014b57610318610925565b5060a036602319011261014b5760603660c319011261014b576101443567ffffffffffffffff811161014b5761035290369060040161094f565b5050630a85dc2960e01b5f5260045ffd5b3461014b57602036600319011261014b576004355f526002602052602060405f2054604051908152f35b3461014b5761012036600319011261014b576103a7610925565b5060a036602319011261014b576103bc6109ef565b506103c5610a64565b506101043567ffffffffffffffff811161014b5761035290369060040161094f565b610a05565b3461014b57602036600319011261014b5760043567ffffffffffffffff811161014b5761041d90369060040161094f565b6001600160a01b037f00000000000000000000000000000000000000000000000000000000000000001633036104875761045b604091602093610f86565b815192839181835280519182918282860152018484015e5f828201840152601f01601f19168101030190f35b63570c108560e11b5f5260045ffd5b3461014b573660031901610120811261014b5760a01361014b5760a43562ffffff811680910361014b5760603660c319011261014b576104ee60a06104dc366004610b36565b206001600160a01b0360015416610ed3565b9250505062ffffff811615610617575b62ffffff1690816102ee02916102ee83040361059d576103e8610534920462ffffff81105f1461060c5762ffffff905b16610ec0565b620dbba08110156105fe5762ffffff905b1660c43580159081150361014b57156105b157610bb80162ffffff811161059d5762ffffff16620dbba081101561058d5762ffffff6020915b165b62ffffff60405191168152f35b50602062ffffff620dbba061057e565b634e487b7160e01b5f52601160045260245ffd5b610bb881106105c5575060206101f4610580565b610bb80362ffffff811161059d5762ffffff166101f481106105ef5762ffffff6020915b16610580565b50602062ffffff6101f46105e9565b5062ffffff620dbba0610545565b5062ffffff8061052e565b50610bb86104fe565b3461014b575f36600319011261014b5760206040516101f48152f35b3461014b5760a036600319011261014b57602061065f60a06104dc366004610b36565b9250505062ffffff60405191168152f35b3461014b575f36600319011261014b5760205f54604051908152f35b3461014b5760a036600319011261014b5760206106af60a06104dc366004610b36565b5050809150506040519060020b8152f35b3461014b5761014036600319011261014b576106da610925565b5060a036602319011261014b5760603660c319011261014b576101243567ffffffffffffffff811161014b5761071490369060040161094f565b50506001600160a01b037f000000000000000000000000000000000000000000000000000000000000000016330361048757606062ffffff610754610baa565b906040939293519363ffffffff60e01b1684526020840152166040820152f35b3461014b575f36600319011261014b5760206001600160a01b0360015416604051908152f35b3461014b575f36600319011261014b576020604051620dbba08152f35b3461014b575f36600319011261014b576020604051610bb88152f35b3461014b5761010036600319011261014b576107ed610925565b5060a036602319011261014b576108026109ef565b5060e43567ffffffffffffffff811161014b5761082390369060040161094f565b505060643562ffffff811680820361014b5762800000036108ca576040519061084b82610af8565b6024356001600160a01b038116810361014b5782526044356001600160a01b038116810361014b57602083015260408201526084358060020b810361014b57606082015260a435906001600160a01b038216820361014b5760a0916080820152205f5260026020524260405f205560206040516301a206c160e51b8152f35b6315b3d69f60e31b5f5260045ffd5b3461014b57602036600319011261014b576004355f526003602052602060405f205460020b604051908152f35b61097d565b3461014b575f36600319011261014b57806102ee60209252f35b600435906001600160a01b038216820361014b57565b35906001600160a01b038216820361014b57565b9181601f8401121561014b5782359167ffffffffffffffff831161014b576020838186019501011161014b57565b3461014b5761016036600319011261014b576004356001600160a01b038116810361014b575060a036602319011261014b5760803660c319011261014b576101443567ffffffffffffffff811161014b576109dc90369060040161094f565b5050630a85dc2960e01b5f908152600490fd5b60c435906001600160a01b038216820361014b57565b3461014b576101a036600319011261014b576004356001600160a01b038116810361014b575060a036602319011261014b5760803660c319011261014b576101843567ffffffffffffffff811161014b576109dc90369060040161094f565b60e435908160020b820361014b57565b3461014b5761012036600319011261014b576004356001600160a01b038116810361014b575060a036602319011261014b576101043567ffffffffffffffff811161014b576109dc90369060040161094f565b6101c0810190811067ffffffffffffffff821117610ae457604052565b634e487b7160e01b5f52604160045260245ffd5b60a0810190811067ffffffffffffffff821117610ae457604052565b90601f8019910116810190811067ffffffffffffffff821117610ae457604052565b91908260a091031261014b57604051610b4e81610af8565b8092610b598161093b565b8252610b676020820161093b565b6020830152604081013562ffffff8116810361014b5760408301526060810135908160020b820361014b576080610ba591819360608601520161093b565b910152565b610bb5366024610b36565b60a05f91205f52600260205260405f2054420342811161059d57600110610be4575b6315d7892d60e21b918190565b60a0610bf1366024610b36565b205f5260026020524260405f2055610c0f60a06104dc366024610b36565b50508091505060a0610c22366024610b36565b205f52600360205260405f205460020b8160020b03627fffff8113627fffff1982121761059d57600281900b905f8212610ea65762ffffff809250165b168015610e9457610c7660a06104dc366024610b36565b9250505062ffffff811615610e8b575b62ffffff1690816102ee02916102ee83040361059d576103e8610cba920462ffffff81105f1461060c5762ffffff16610ec0565b620dbba0811015610e7d5762ffffff905b1660c43580159081150361014b5715610e3657610bb80162ffffff811161059d5762ffffff16620dbba0811015610e285762ffffff905b165b6001600160a01b037f000000000000000000000000000000000000000000000000000000000000000016803b1561014b5760405191635275965160e01b83526024356001600160a01b03811680910361014b5760048401526044356001600160a01b03811680910361014b57602484015260643562ffffff811680910361014b5760448401526084358060020b80910361014b57606484015260a435916001600160a01b03831680930361014b57835f60c49262ffffff8395839760848601521660a48401525af18015610e1d57610e08575b5060a0610de5366024610b36565b2082526003602052604082209062ffffff198254169062ffffff16179055610bd7565b610e159192505f90610b14565b5f905f610dd7565b6040513d5f823e3d90fd5b5062ffffff620dbba0610d02565b610bb88110610e4857506101f4610d04565b610bb80362ffffff811161059d5762ffffff166101f48110610e705762ffffff905b16610d04565b5062ffffff6101f4610e6a565b5062ffffff620dbba0610ccb565b50610bb8610c86565b506315d7892d60e21b925f9250829150565b50627fffff19811461059d5762ffffff905f038116610c5f565b8181029291811591840414171561059d57565b60209060246001600160a01b0394936040518481019182526006604082015260408152610f01606082610b14565b5190206040519586938492631e2eaeaf60e01b84526004840152165afa918215610e1d575f92610f52575b506001600160a01b038216918060a01c60020b9162ffffff808360b81c169260d01c1690565b9091506020813d602011610f7e575b81610f6e60209383610b14565b8101031261014b5751905f610f2c565b3d9150610f61565b5f9182918160405192839283378101838152039082305af1903d15610ffd573d9167ffffffffffffffff8311610ae45760405192610fce601f8201601f191660200185610b14565b83523d5f602085013e5b610ffb5750805115610fec57602081519101fd5b6314815f4760e31b5f5260045ffd5b565b606091610fd856fea26469706673582212202b5a0ee73aa7e4d9ae3d98cb28e7c3793d79fb37e0349dc1a1cb9eec01e5f6a564736f6c634300081a0033","linkReferences":{}},"methodIdentifiers":{"BASE_FEE()":"3d18651e","MAX_LP_FEE()":"3fc48eba","MIN_FEE()":"76c7a3c7","MULTIPLIER()":"059f8b16","SCALE()":"eced5526","afterAddLiquidity(address,(address,address,uint24,int24,address),(int24,int24,int256,bytes32),int256,int256,bytes)":"9f063efc","afterDonate(address,(address,address,uint24,int24,address),uint256,uint256,bytes)":"e1b4af69","afterInitialize(address,(address,address,uint24,int24,address),uint160,int24,bytes)":"a910f80f","afterRemoveLiquidity(address,(address,address,uint24,int24,address),(int24,int24,int256,bytes32),int256,int256,bytes)":"6c2bbe7e","afterSwap(address,(address,address,uint24,int24,address),(bool,int256,uint160),int256,bytes)":"b47b2fb1","beforeAddLiquidity(address,(address,address,uint24,int24,address),(int24,int24,int256,bytes32),bytes)":"259982e5","beforeDonate(address,(address,address,uint24,int24,address),uint256,uint256,bytes)":"b6a8b0fa","beforeInitialize(address,(address,address,uint24,int24,address),uint160,bytes)":"3440d820","beforeRemoveLiquidity(address,(address,address,uint24,int24,address),(int24,int24,int256,bytes32),bytes)":"21d0ee70","beforeSwap(address,(address,address,uint24,int24,address),(bool,int256,uint160),bytes)":"575e24b4","calculateDynamicFee((address,address,uint24,int24,address),uint24,(bool,int256,uint160))":"792dbae8","counter()":"61bc221a","getCurrentFee((address,address,uint24,int24,address))":"6499b633","getCurrentTick((address,address,uint24,int24,address))":"5f105e2d","getHookPermissions()":"c4e833ce","manager()":"481c6a75","poolManager()":"dc4c90d3","poolToTick(bytes32)":"29811c73","poolToTimeStamp(bytes32)":"b22c9273","unlockCallback(bytes)":"91dd7346"},"id":124}