{"abi":[{"type":"constructor","inputs":[{"name":"_poolManager","type":"address","internalType":"contract IPoolManager"}],"stateMutability":"nonpayable"},{"type":"function","name":"BASE_FEE","inputs":[],"outputs":[{"name":"","type":"uint24","internalType":"uint24"}],"stateMutability":"view"},{"type":"function","name":"MAX_LP_FEE","inputs":[],"outputs":[{"name":"","type":"uint24","internalType":"uint24"}],"stateMutability":"view"},{"type":"function","name":"MIN_FEE","inputs":[],"outputs":[{"name":"","type":"uint24","internalType":"uint24"}],"stateMutability":"view"},{"type":"function","name":"SCALE","inputs":[],"outputs":[{"name":"","type":"uint256","internalType":"uint256"}],"stateMutability":"view"},{"type":"function","name":"afterAddLiquidity","inputs":[{"name":"","type":"address","internalType":"address"},{"name":"","type":"tuple","internalType":"struct PoolKey","components":[{"name":"currency0","type":"address","internalType":"Currency"},{"name":"currency1","type":"address","internalType":"Currency"},{"name":"fee","type":"uint24","internalType":"uint24"},{"name":"tickSpacing","type":"int24","internalType":"int24"},{"name":"hooks","type":"address","internalType":"contract IHooks"}]},{"name":"","type":"tuple","internalType":"struct IPoolManager.ModifyLiquidityParams","components":[{"name":"tickLower","type":"int24","internalType":"int24"},{"name":"tickUpper","type":"int24","internalType":"int24"},{"name":"liquidityDelta","type":"int256","internalType":"int256"},{"name":"salt","type":"bytes32","internalType":"bytes32"}]},{"name":"","type":"int256","internalType":"BalanceDelta"},{"name":"","type":"int256","internalType":"BalanceDelta"},{"name":"","type":"bytes","internalType":"bytes"}],"outputs":[{"name":"","type":"bytes4","internalType":"bytes4"},{"name":"","type":"int256","internalType":"BalanceDelta"}],"stateMutability":"nonpayable"},{"type":"function","name":"afterDonate","inputs":[{"name":"","type":"address","internalType":"address"},{"name":"","type":"tuple","internalType":"struct PoolKey","components":[{"name":"currency0","type":"address","internalType":"Currency"},{"name":"currency1","type":"address","internalType":"Currency"},{"name":"fee","type":"uint24","internalType":"uint24"},{"name":"tickSpacing","type":"int24","internalType":"int24"},{"name":"hooks","type":"address","internalType":"contract IHooks"}]},{"name":"","type":"uint256","internalType":"uint256"},{"name":"","type":"uint256","internalType":"uint256"},{"name":"","type":"bytes","internalType":"bytes"}],"outputs":[{"name":"","type":"bytes4","internalType":"bytes4"}],"stateMutability":"nonpayable"},{"type":"function","name":"afterInitialize","inputs":[{"name":"","type":"address","internalType":"address"},{"name":"","type":"tuple","internalType":"struct PoolKey","components":[{"name":"currency0","type":"address","internalType":"Currency"},{"name":"currency1","type":"address","internalType":"Currency"},{"name":"fee","type":"uint24","internalType":"uint24"},{"name":"tickSpacing","type":"int24","internalType":"int24"},{"name":"hooks","type":"address","internalType":"contract IHooks"}]},{"name":"","type":"uint160","internalType":"uint160"},{"name":"","type":"int24","internalType":"int24"},{"name":"","type":"bytes","internalType":"bytes"}],"outputs":[{"name":"","type":"bytes4","internalType":"bytes4"}],"stateMutability":"nonpayable"},{"type":"function","name":"afterRemoveLiquidity","inputs":[{"name":"","type":"address","internalType":"address"},{"name":"","type":"tuple","internalType":"struct PoolKey","components":[{"name":"currency0","type":"address","internalType":"Currency"},{"name":"currency1","type":"address","internalType":"Currency"},{"name":"fee","type":"uint24","internalType":"uint24"},{"name":"tickSpacing","type":"int24","internalType":"int24"},{"name":"hooks","type":"address","internalType":"contract IHooks"}]},{"name":"","type":"tuple","internalType":"struct IPoolManager.ModifyLiquidityParams","components":[{"name":"tickLower","type":"int24","internalType":"int24"},{"name":"tickUpper","type":"int24","internalType":"int24"},{"name":"liquidityDelta","type":"int256","internalType":"int256"},{"name":"salt","type":"bytes32","internalType":"bytes32"}]},{"name":"","type":"int256","internalType":"BalanceDelta"},{"name":"","type":"int256","internalType":"BalanceDelta"},{"name":"","type":"bytes","internalType":"bytes"}],"outputs":[{"name":"","type":"bytes4","internalType":"bytes4"},{"name":"","type":"int256","internalType":"BalanceDelta"}],"stateMutability":"nonpayable"},{"type":"function","name":"afterSwap","inputs":[{"name":"","type":"address","internalType":"address"},{"name":"","type":"tuple","internalType":"struct PoolKey","components":[{"name":"currency0","type":"address","internalType":"Currency"},{"name":"currency1","type":"address","internalType":"Currency"},{"name":"fee","type":"uint24","internalType":"uint24"},{"name":"tickSpacing","type":"int24","internalType":"int24"},{"name":"hooks","type":"address","internalType":"contract IHooks"}]},{"name":"","type":"tuple","internalType":"struct IPoolManager.SwapParams","components":[{"name":"zeroForOne","type":"bool","internalType":"bool"},{"name":"amountSpecified","type":"int256","internalType":"int256"},{"name":"sqrtPriceLimitX96","type":"uint160","internalType":"uint160"}]},{"name":"","type":"int256","internalType":"BalanceDelta"},{"name":"","type":"bytes","internalType":"bytes"}],"outputs":[{"name":"","type":"bytes4","internalType":"bytes4"},{"name":"","type":"int128","internalType":"int128"}],"stateMutability":"nonpayable"},{"type":"function","name":"beforeAddLiquidity","inputs":[{"name":"","type":"address","internalType":"address"},{"name":"","type":"tuple","internalType":"struct PoolKey","components":[{"name":"currency0","type":"address","internalType":"Currency"},{"name":"currency1","type":"address","internalType":"Currency"},{"name":"fee","type":"uint24","internalType":"uint24"},{"name":"tickSpacing","type":"int24","internalType":"int24"},{"name":"hooks","type":"address","internalType":"contract IHooks"}]},{"name":"","type":"tuple","internalType":"struct IPoolManager.ModifyLiquidityParams","components":[{"name":"tickLower","type":"int24","internalType":"int24"},{"name":"tickUpper","type":"int24","internalType":"int24"},{"name":"liquidityDelta","type":"int256","internalType":"int256"},{"name":"salt","type":"bytes32","internalType":"bytes32"}]},{"name":"","type":"bytes","internalType":"bytes"}],"outputs":[{"name":"","type":"bytes4","internalType":"bytes4"}],"stateMutability":"nonpayable"},{"type":"function","name":"beforeDonate","inputs":[{"name":"","type":"address","internalType":"address"},{"name":"","type":"tuple","internalType":"struct PoolKey","components":[{"name":"currency0","type":"address","internalType":"Currency"},{"name":"currency1","type":"address","internalType":"Currency"},{"name":"fee","type":"uint24","internalType":"uint24"},{"name":"tickSpacing","type":"int24","internalType":"int24"},{"name":"hooks","type":"address","internalType":"contract IHooks"}]},{"name":"","type":"uint256","internalType":"uint256"},{"name":"","type":"uint256","internalType":"uint256"},{"name":"","type":"bytes","internalType":"bytes"}],"outputs":[{"name":"","type":"bytes4","internalType":"bytes4"}],"stateMutability":"nonpayable"},{"type":"function","name":"beforeInitialize","inputs":[{"name":"","type":"address","internalType":"address"},{"name":"key","type":"tuple","internalType":"struct PoolKey","components":[{"name":"currency0","type":"address","internalType":"Currency"},{"name":"currency1","type":"address","internalType":"Currency"},{"name":"fee","type":"uint24","internalType":"uint24"},{"name":"tickSpacing","type":"int24","internalType":"int24"},{"name":"hooks","type":"address","internalType":"contract IHooks"}]},{"name":"","type":"uint160","internalType":"uint160"},{"name":"","type":"bytes","internalType":"bytes"}],"outputs":[{"name":"","type":"bytes4","internalType":"bytes4"}],"stateMutability":"nonpayable"},{"type":"function","name":"beforeRemoveLiquidity","inputs":[{"name":"","type":"address","internalType":"address"},{"name":"","type":"tuple","internalType":"struct PoolKey","components":[{"name":"currency0","type":"address","internalType":"Currency"},{"name":"currency1","type":"address","internalType":"Currency"},{"name":"fee","type":"uint24","internalType":"uint24"},{"name":"tickSpacing","type":"int24","internalType":"int24"},{"name":"hooks","type":"address","internalType":"contract IHooks"}]},{"name":"","type":"tuple","internalType":"struct IPoolManager.ModifyLiquidityParams","components":[{"name":"tickLower","type":"int24","internalType":"int24"},{"name":"tickUpper","type":"int24","internalType":"int24"},{"name":"liquidityDelta","type":"int256","internalType":"int256"},{"name":"salt","type":"bytes32","internalType":"bytes32"}]},{"name":"","type":"bytes","internalType":"bytes"}],"outputs":[{"name":"","type":"bytes4","internalType":"bytes4"}],"stateMutability":"nonpayable"},{"type":"function","name":"beforeSwap","inputs":[{"name":"","type":"address","internalType":"address"},{"name":"key","type":"tuple","internalType":"struct PoolKey","components":[{"name":"currency0","type":"address","internalType":"Currency"},{"name":"currency1","type":"address","internalType":"Currency"},{"name":"fee","type":"uint24","internalType":"uint24"},{"name":"tickSpacing","type":"int24","internalType":"int24"},{"name":"hooks","type":"address","internalType":"contract IHooks"}]},{"name":"params","type":"tuple","internalType":"struct IPoolManager.SwapParams","components":[{"name":"zeroForOne","type":"bool","internalType":"bool"},{"name":"amountSpecified","type":"int256","internalType":"int256"},{"name":"sqrtPriceLimitX96","type":"uint160","internalType":"uint160"}]},{"name":"","type":"bytes","internalType":"bytes"}],"outputs":[{"name":"","type":"bytes4","internalType":"bytes4"},{"name":"","type":"int256","internalType":"BeforeSwapDelta"},{"name":"","type":"uint24","internalType":"uint24"}],"stateMutability":"nonpayable"},{"type":"function","name":"getCurrentFee","inputs":[{"name":"key","type":"tuple","internalType":"struct PoolKey","components":[{"name":"currency0","type":"address","internalType":"Currency"},{"name":"currency1","type":"address","internalType":"Currency"},{"name":"fee","type":"uint24","internalType":"uint24"},{"name":"tickSpacing","type":"int24","internalType":"int24"},{"name":"hooks","type":"address","internalType":"contract IHooks"}]}],"outputs":[{"name":"","type":"uint24","internalType":"uint24"}],"stateMutability":"view"},{"type":"function","name":"getCurrentTick","inputs":[{"name":"key","type":"tuple","internalType":"struct PoolKey","components":[{"name":"currency0","type":"address","internalType":"Currency"},{"name":"currency1","type":"address","internalType":"Currency"},{"name":"fee","type":"uint24","internalType":"uint24"},{"name":"tickSpacing","type":"int24","internalType":"int24"},{"name":"hooks","type":"address","internalType":"contract IHooks"}]}],"outputs":[{"name":"","type":"int24","internalType":"int24"}],"stateMutability":"view"},{"type":"function","name":"getHookPermissions","inputs":[],"outputs":[{"name":"","type":"tuple","internalType":"struct Hooks.Permissions","components":[{"name":"beforeInitialize","type":"bool","internalType":"bool"},{"name":"afterInitialize","type":"bool","internalType":"bool"},{"name":"beforeAddLiquidity","type":"bool","internalType":"bool"},{"name":"afterAddLiquidity","type":"bool","internalType":"bool"},{"name":"beforeRemoveLiquidity","type":"bool","internalType":"bool"},{"name":"afterRemoveLiquidity","type":"bool","internalType":"bool"},{"name":"beforeSwap","type":"bool","internalType":"bool"},{"name":"afterSwap","type":"bool","internalType":"bool"},{"name":"beforeDonate","type":"bool","internalType":"bool"},{"name":"afterDonate","type":"bool","internalType":"bool"},{"name":"beforeSwapReturnDelta","type":"bool","internalType":"bool"},{"name":"afterSwapReturnDelta","type":"bool","internalType":"bool"},{"name":"afterAddLiquidityReturnDelta","type":"bool","internalType":"bool"},{"name":"afterRemoveLiquidityReturnDelta","type":"bool","internalType":"bool"}]}],"stateMutability":"pure"},{"type":"function","name":"k","inputs":[],"outputs":[{"name":"","type":"uint256","internalType":"uint256"}],"stateMutability":"view"},{"type":"function","name":"manager","inputs":[],"outputs":[{"name":"","type":"address","internalType":"contract IPoolManager"}],"stateMutability":"view"},{"type":"function","name":"poolManager","inputs":[],"outputs":[{"name":"","type":"address","internalType":"contract IPoolManager"}],"stateMutability":"view"},{"type":"function","name":"poolTickDifferences","inputs":[{"name":"","type":"bytes32","internalType":"PoolId"},{"name":"","type":"uint256","internalType":"uint256"}],"outputs":[{"name":"","type":"uint256","internalType":"uint256"}],"stateMutability":"view"},{"type":"function","name":"poolToTick","inputs":[{"name":"","type":"bytes32","internalType":"PoolId"}],"outputs":[{"name":"","type":"int24","internalType":"int24"}],"stateMutability":"view"},{"type":"function","name":"poolToTimeStamp","inputs":[{"name":"","type":"bytes32","internalType":"PoolId"}],"outputs":[{"name":"","type":"uint256","internalType":"uint256"}],"stateMutability":"view"},{"type":"function","name":"unlockCallback","inputs":[{"name":"data","type":"bytes","internalType":"bytes"}],"outputs":[{"name":"","type":"bytes","internalType":"bytes"}],"stateMutability":"nonpayable"},{"type":"error","name":"HookNotImplemented","inputs":[]},{"type":"error","name":"InvalidPool","inputs":[]},{"type":"error","name":"LockFailure","inputs":[]},{"type":"error","name":"MustUseDynamicFee","inputs":[]},{"type":"error","name":"NotPoolManager","inputs":[]},{"type":"error","name":"NotSelf","inputs":[]}],"bytecode":{"object":"0x60a06040523461027357604051601f6112c038819003918201601f19168301916001600160401b038311848410176102775780849260209460405283398101031261027357516001600160a01b03811690818103610273576080525f6101a061006661028b565b8281528260208201528260408201528260608201528260808201528260a08201528260c08201528260e0820152826101008201528261012082015282610140820152826101608201528261018082015201525f6101a06100c461028b565b600181528260208201528260408201528260608201528260808201528260a0820152600160c08201528260e08201528261010082015282610120820152826101408201528261016082015282610180820152015261200030161515600114801590610266575b8015610259575b801561024c575b801561023f575b8015610232575b8015610222575b8015610216575b801561020a575b80156101fe575b80156101f2575b80156101e6575b80156101da575b80156101ce575b6101bb575f80546001600160a01b03191691909117905560405161101490816102ac82396080518181816101660152818161043f015261067b0152f35b630732d7b560e51b5f523060045260245ffd5b5060013016151561017e565b50600230161515610177565b50600430161515610170565b50600830161515610169565b50601030161515610162565b5060203016151561015b565b50604030161515610154565b506080301615156001141561014d565b5061010030161515610146565b506102003016151561013f565b5061040030161515610138565b5061080030161515610131565b506110003016151561012a565b5f80fd5b634e487b7160e01b5f52604160045260245ffd5b604051906101c082016001600160401b038111838210176102775760405256fe60806040526004361015610011575f80fd5b5f803560e01c806321d0ee7014610a0f578063259982e514610a0f57806329811c73146109e25780633440d8201461093e5780633d18651e146109225780633fc48eba14610905578063481c6a75146108e0578063575e24b41461061b5780635875e12f146105d25780635f105e2d1461058c5780636499b633146104ca5780636c2bbe7e146103fd57806376c7a3c7146104ad57806391dd7346146104025780639f063efc146103fd578063a910f80f146103a0578063b22c927314610376578063b47b2fb11461030d578063b4f40c61146102f1578063b6a8b0fa14610141578063c4e833ce1461018a578063dc4c90d314610146578063e1b4af69146101415763eced552614610122575f80fd5b3461013e578060031936011261013e5760206040516103e88152f35b80fd5b610b8c565b503461013e578060031936011261013e5760206040516001600160a01b037f0000000000000000000000000000000000000000000000000000000000000000168152f35b503461013e578060031936011261013e576020816101c0926101a06040516101b181610bdf565b82815282858201528260408201528260608201528260808201528260a08201528260c08201528260e0820152826101008201528261012082015282610140820152826101608201528261018082015201528060405161020f81610bdf565b6001815283810182815260408201838152606083018481526080840185815260a0850186815260c08601906001825260e08701928884526101008801948986526101208901968a88526101408a01988b8a526101a06101608c019b8d8d5261018081019d8e52019c8d526040519d8e916001835251151591015251151560408d015251151560608c015251151560808b015251151560a08a015251151560c089015251151560e08801525115156101008701525115156101208601525115156101408501525115156101608401525115156101808301525115156101a0820152f35b503461013e578060031936011261013e57602060405160018152f35b503461013e5761016036600319011261013e57610328610a14565b5060a036602319011261013e5760603660c319011261013e576101443567ffffffffffffffff8111610372579061036460049236908401610a3e565b5050630a85dc2960e01b8152fd5b5080fd5b503461013e57602036600319011261013e5760406020916004358152600283522054604051908152f35b503461013e5761012036600319011261013e576103bb610a14565b5060a036602319011261013e576103d0610ade565b506103d9610b7c565b506101043567ffffffffffffffff8111610372579061036460049236908401610a3e565b610b1d565b503461013e57602036600319011261013e5760043567ffffffffffffffff811161037257610434903690600401610a3e565b906001600160a01b037f000000000000000000000000000000000000000000000000000000000000000016330361049e5760409161047191610f5f565b6020825193849282845280519283918282870152018585015e828201840152601f01601f19168101030190f35b63570c108560e11b8352600483fd5b503461013e578060031936011261013e5760206040516101f48152f35b503461013e57366003190160a081126103725760a01361058857604051906104f182610bfc565b6004356001600160a01b03811681036105885782526024356001600160a01b038116810361058857602083015260443562ffffff811681036105885760408301526064358060020b8103610588576060830152608435906001600160a01b0382168203610588576001600160a01b0360a084610577946080602097015220915416610eac565b9250505062ffffff60405191168152f35b5f80fd5b503461013e5760a036600319011261013e5760206105c160a06105b0366004610cc1565b206001600160a01b035f5416610eac565b5050809150506040519060020b8152f35b503461013e57604036600319011261013e5760243590600435815260016020526040812090815483101561013e57602061060c8484610af4565b90549060031b1c604051908152f35b346105885761014036600319011261058857610635610a14565b5060a03660231901126105885760603660c3190112610588576101243567ffffffffffffffff81116105885761066f903690600401610a3e565b50506001600160a01b037f0000000000000000000000000000000000000000000000000000000000000000168033036108d15760a06106ad36610c3a565b206106be60a06105b0366024610cc1565b505080915050815f52600360205260405f205460020b8160020b03627fffff8113627fffff198212176108975760020b5f81126108bf575b825f52600160205260405f208054680100000000000000008110156108ab5761072491600182018155610af4565b819291549060031b91821b915f19901b1916179055815f52600160205261075561075060405f20610d80565b610e57565b6103e80191826103e8116108975782610bb8025f93610bb8820403610897576103e89004620dbba081101561088c57935b803b156105885760405194635275965160e01b86526024356001600160a01b0381168091036105885760048701526044356001600160a01b03811680910361058857602487015260643562ffffff81168091036105885760448701526084358060020b80910361058857606487015260a435916001600160a01b03831680930361058857865f60c49262ffffff8395839760848601521660a48401525af19384156108815760609461086c575b5082526003602052604082209062ffffff198254169062ffffff16179055604051906315d7892d60e21b82528060208301526040820152f35b6108799193505f90610c18565b5f9184610833565b6040513d5f823e3d90fd5b50620dbba093610786565b634e487b7160e01b5f52601160045260245ffd5b634e487b7160e01b5f52604160045260245ffd5b600160ff1b8114610897575f036106f6565b63570c108560e11b5f5260045ffd5b34610588575f3660031901126105885760206001600160a01b035f5416604051908152f35b34610588575f366003190112610588576020604051620dbba08152f35b34610588575f366003190112610588576020604051610bb88152f35b346105885761010036600319011261058857610958610a14565b5060a03660231901126105885761096d610ade565b5060e43567ffffffffffffffff81116105885761098e903690600401610a3e565b505060643562ffffff81168091036105885762800000036109d35760a06109b436610c3a565b205f5260026020524260405f205560206040516301a206c160e51b8152f35b6315b3d69f60e31b5f5260045ffd5b34610588576020366003190112610588576004355f526003602052602060405f205460020b604051908152f35b610a6c565b600435906001600160a01b038216820361058857565b35906001600160a01b038216820361058857565b9181601f840112156105885782359167ffffffffffffffff8311610588576020838186019501011161058857565b3461058857610160366003190112610588576004356001600160a01b0381168103610588575060a03660231901126105885760803660c3190112610588576101443567ffffffffffffffff811161058857610acb903690600401610a3e565b5050630a85dc2960e01b5f908152600490fd5b60c435906001600160a01b038216820361058857565b8054821015610b09575f5260205f2001905f90565b634e487b7160e01b5f52603260045260245ffd5b34610588576101a0366003190112610588576004356001600160a01b0381168103610588575060a03660231901126105885760803660c3190112610588576101843567ffffffffffffffff811161058857610acb903690600401610a3e565b60e435908160020b820361058857565b3461058857610120366003190112610588576004356001600160a01b0381168103610588575060a0366023190112610588576101043567ffffffffffffffff811161058857610acb903690600401610a3e565b6101c0810190811067ffffffffffffffff8211176108ab57604052565b60a0810190811067ffffffffffffffff8211176108ab57604052565b90601f8019910116810190811067ffffffffffffffff8211176108ab57604052565b60a09060231901126105885760405190610c5382610bfc565b816024356001600160a01b03811681036105885781526044356001600160a01b038116810361058857602082015260643562ffffff811681036105885760408201526084358060020b810361058857606082015260a435906001600160a01b03821682036105885760800152565b91908260a091031261058857604051610cd981610bfc565b8092610ce481610a2a565b8252610cf260208201610a2a565b6020830152604081013562ffffff811681036105885760408301526060810135908160020b8203610588576080610d30918193606086015201610a2a565b910152565b8181029291811591840414171561089757565b9190820180921161089757565b8115610d5f570490565b634e487b7160e01b5f52601260045260245ffd5b9190820391821161089757565b80545f918291600a8110610e5057600a915b828210610e4957610da38383610d73565b9190915b915b818310610dea575050508015610de357610dd381610dcd610dda93610de096610d55565b93610d55565b9180610d35565b90610d73565b90565b5050505f90565b90919394610e40610e0e600192610e018886610af4565b90549060031b1c90610d48565b96610e3a610e1c8886610af4565b90549060031b1c610e2d8987610af4565b90549060031b1c90610d35565b90610d48565b94019190610da9565b905f610da7565b8091610d92565b80610e6157505f90565b906003821115610ea6578160011c6001810180911161089757825b838210610e87575050565b909250610e9d83610e988184610d55565b610d48565b60011c90610e7c565b60019150565b60209060246001600160a01b0394936040518481019182526006604082015260408152610eda606082610c18565b5190206040519586938492631e2eaeaf60e01b84526004840152165afa918215610881575f92610f2b575b506001600160a01b038216918060a01c60020b9162ffffff808360b81c169260d01c1690565b9091506020813d602011610f57575b81610f4760209383610c18565b810103126105885751905f610f05565b3d9150610f3a565b5f9182918160405192839283378101838152039082305af1903d15610fd6573d9167ffffffffffffffff83116108ab5760405192610fa7601f8201601f191660200185610c18565b83523d5f602085013e5b610fd45750805115610fc557602081519101fd5b6314815f4760e31b5f5260045ffd5b565b606091610fb156fea2646970667358221220648d827c75a839bae7c24ac5d8503336f75b5bdd35b476d269104faf62863e6164736f6c634300081a0033","linkReferences":{}},"methodIdentifiers":{"BASE_FEE()":"3d18651e","MAX_LP_FEE()":"3fc48eba","MIN_FEE()":"76c7a3c7","SCALE()":"eced5526","afterAddLiquidity(address,(address,address,uint24,int24,address),(int24,int24,int256,bytes32),int256,int256,bytes)":"9f063efc","afterDonate(address,(address,address,uint24,int24,address),uint256,uint256,bytes)":"e1b4af69","afterInitialize(address,(address,address,uint24,int24,address),uint160,int24,bytes)":"a910f80f","afterRemoveLiquidity(address,(address,address,uint24,int24,address),(int24,int24,int256,bytes32),int256,int256,bytes)":"6c2bbe7e","afterSwap(address,(address,address,uint24,int24,address),(bool,int256,uint160),int256,bytes)":"b47b2fb1","beforeAddLiquidity(address,(address,address,uint24,int24,address),(int24,int24,int256,bytes32),bytes)":"259982e5","beforeDonate(address,(address,address,uint24,int24,address),uint256,uint256,bytes)":"b6a8b0fa","beforeInitialize(address,(address,address,uint24,int24,address),uint160,bytes)":"3440d820","beforeRemoveLiquidity(address,(address,address,uint24,int24,address),(int24,int24,int256,bytes32),bytes)":"21d0ee70","beforeSwap(address,(address,address,uint24,int24,address),(bool,int256,uint160),bytes)":"575e24b4","getCurrentFee((address,address,uint24,int24,address))":"6499b633","getCurrentTick((address,address,uint24,int24,address))":"5f105e2d","getHookPermissions()":"c4e833ce","k()":"b4f40c61","manager()":"481c6a75","poolManager()":"dc4c90d3","poolTickDifferences(bytes32,uint256)":"5875e12f","poolToTick(bytes32)":"29811c73","poolToTimeStamp(bytes32)":"b22c9273","unlockCallback(bytes)":"91dd7346"},"id":99}