{"abi":[{"type":"constructor","inputs":[{"name":"_poolManager","type":"address","internalType":"contract IPoolManager"}],"stateMutability":"nonpayable"},{"type":"function","name":"BASE_FEE","inputs":[],"outputs":[{"name":"","type":"uint24","internalType":"uint24"}],"stateMutability":"view"},{"type":"function","name":"MAX_LP_FEE","inputs":[],"outputs":[{"name":"","type":"uint24","internalType":"uint24"}],"stateMutability":"view"},{"type":"function","name":"MIN_FEE","inputs":[],"outputs":[{"name":"","type":"uint24","internalType":"uint24"}],"stateMutability":"view"},{"type":"function","name":"MULTIPLIER","inputs":[],"outputs":[{"name":"","type":"uint256","internalType":"uint256"}],"stateMutability":"view"},{"type":"function","name":"SCALE","inputs":[],"outputs":[{"name":"","type":"uint256","internalType":"uint256"}],"stateMutability":"view"},{"type":"function","name":"SMOOTHING_FACTOR","inputs":[],"outputs":[{"name":"","type":"uint256","internalType":"uint256"}],"stateMutability":"view"},{"type":"function","name":"afterAddLiquidity","inputs":[{"name":"","type":"address","internalType":"address"},{"name":"","type":"tuple","internalType":"struct PoolKey","components":[{"name":"currency0","type":"address","internalType":"Currency"},{"name":"currency1","type":"address","internalType":"Currency"},{"name":"fee","type":"uint24","internalType":"uint24"},{"name":"tickSpacing","type":"int24","internalType":"int24"},{"name":"hooks","type":"address","internalType":"contract IHooks"}]},{"name":"","type":"tuple","internalType":"struct IPoolManager.ModifyLiquidityParams","components":[{"name":"tickLower","type":"int24","internalType":"int24"},{"name":"tickUpper","type":"int24","internalType":"int24"},{"name":"liquidityDelta","type":"int256","internalType":"int256"},{"name":"salt","type":"bytes32","internalType":"bytes32"}]},{"name":"","type":"int256","internalType":"BalanceDelta"},{"name":"","type":"int256","internalType":"BalanceDelta"},{"name":"","type":"bytes","internalType":"bytes"}],"outputs":[{"name":"","type":"bytes4","internalType":"bytes4"},{"name":"","type":"int256","internalType":"BalanceDelta"}],"stateMutability":"nonpayable"},{"type":"function","name":"afterDonate","inputs":[{"name":"","type":"address","internalType":"address"},{"name":"","type":"tuple","internalType":"struct PoolKey","components":[{"name":"currency0","type":"address","internalType":"Currency"},{"name":"currency1","type":"address","internalType":"Currency"},{"name":"fee","type":"uint24","internalType":"uint24"},{"name":"tickSpacing","type":"int24","internalType":"int24"},{"name":"hooks","type":"address","internalType":"contract IHooks"}]},{"name":"","type":"uint256","internalType":"uint256"},{"name":"","type":"uint256","internalType":"uint256"},{"name":"","type":"bytes","internalType":"bytes"}],"outputs":[{"name":"","type":"bytes4","internalType":"bytes4"}],"stateMutability":"nonpayable"},{"type":"function","name":"afterInitialize","inputs":[{"name":"","type":"address","internalType":"address"},{"name":"","type":"tuple","internalType":"struct PoolKey","components":[{"name":"currency0","type":"address","internalType":"Currency"},{"name":"currency1","type":"address","internalType":"Currency"},{"name":"fee","type":"uint24","internalType":"uint24"},{"name":"tickSpacing","type":"int24","internalType":"int24"},{"name":"hooks","type":"address","internalType":"contract IHooks"}]},{"name":"","type":"uint160","internalType":"uint160"},{"name":"","type":"int24","internalType":"int24"},{"name":"","type":"bytes","internalType":"bytes"}],"outputs":[{"name":"","type":"bytes4","internalType":"bytes4"}],"stateMutability":"nonpayable"},{"type":"function","name":"afterRemoveLiquidity","inputs":[{"name":"","type":"address","internalType":"address"},{"name":"","type":"tuple","internalType":"struct PoolKey","components":[{"name":"currency0","type":"address","internalType":"Currency"},{"name":"currency1","type":"address","internalType":"Currency"},{"name":"fee","type":"uint24","internalType":"uint24"},{"name":"tickSpacing","type":"int24","internalType":"int24"},{"name":"hooks","type":"address","internalType":"contract IHooks"}]},{"name":"","type":"tuple","internalType":"struct IPoolManager.ModifyLiquidityParams","components":[{"name":"tickLower","type":"int24","internalType":"int24"},{"name":"tickUpper","type":"int24","internalType":"int24"},{"name":"liquidityDelta","type":"int256","internalType":"int256"},{"name":"salt","type":"bytes32","internalType":"bytes32"}]},{"name":"","type":"int256","internalType":"BalanceDelta"},{"name":"","type":"int256","internalType":"BalanceDelta"},{"name":"","type":"bytes","internalType":"bytes"}],"outputs":[{"name":"","type":"bytes4","internalType":"bytes4"},{"name":"","type":"int256","internalType":"BalanceDelta"}],"stateMutability":"nonpayable"},{"type":"function","name":"afterSwap","inputs":[{"name":"","type":"address","internalType":"address"},{"name":"","type":"tuple","internalType":"struct PoolKey","components":[{"name":"currency0","type":"address","internalType":"Currency"},{"name":"currency1","type":"address","internalType":"Currency"},{"name":"fee","type":"uint24","internalType":"uint24"},{"name":"tickSpacing","type":"int24","internalType":"int24"},{"name":"hooks","type":"address","internalType":"contract IHooks"}]},{"name":"","type":"tuple","internalType":"struct IPoolManager.SwapParams","components":[{"name":"zeroForOne","type":"bool","internalType":"bool"},{"name":"amountSpecified","type":"int256","internalType":"int256"},{"name":"sqrtPriceLimitX96","type":"uint160","internalType":"uint160"}]},{"name":"","type":"int256","internalType":"BalanceDelta"},{"name":"","type":"bytes","internalType":"bytes"}],"outputs":[{"name":"","type":"bytes4","internalType":"bytes4"},{"name":"","type":"int128","internalType":"int128"}],"stateMutability":"nonpayable"},{"type":"function","name":"beforeAddLiquidity","inputs":[{"name":"","type":"address","internalType":"address"},{"name":"","type":"tuple","internalType":"struct PoolKey","components":[{"name":"currency0","type":"address","internalType":"Currency"},{"name":"currency1","type":"address","internalType":"Currency"},{"name":"fee","type":"uint24","internalType":"uint24"},{"name":"tickSpacing","type":"int24","internalType":"int24"},{"name":"hooks","type":"address","internalType":"contract IHooks"}]},{"name":"","type":"tuple","internalType":"struct IPoolManager.ModifyLiquidityParams","components":[{"name":"tickLower","type":"int24","internalType":"int24"},{"name":"tickUpper","type":"int24","internalType":"int24"},{"name":"liquidityDelta","type":"int256","internalType":"int256"},{"name":"salt","type":"bytes32","internalType":"bytes32"}]},{"name":"","type":"bytes","internalType":"bytes"}],"outputs":[{"name":"","type":"bytes4","internalType":"bytes4"}],"stateMutability":"nonpayable"},{"type":"function","name":"beforeDonate","inputs":[{"name":"","type":"address","internalType":"address"},{"name":"","type":"tuple","internalType":"struct PoolKey","components":[{"name":"currency0","type":"address","internalType":"Currency"},{"name":"currency1","type":"address","internalType":"Currency"},{"name":"fee","type":"uint24","internalType":"uint24"},{"name":"tickSpacing","type":"int24","internalType":"int24"},{"name":"hooks","type":"address","internalType":"contract IHooks"}]},{"name":"","type":"uint256","internalType":"uint256"},{"name":"","type":"uint256","internalType":"uint256"},{"name":"","type":"bytes","internalType":"bytes"}],"outputs":[{"name":"","type":"bytes4","internalType":"bytes4"}],"stateMutability":"nonpayable"},{"type":"function","name":"beforeInitialize","inputs":[{"name":"","type":"address","internalType":"address"},{"name":"key","type":"tuple","internalType":"struct PoolKey","components":[{"name":"currency0","type":"address","internalType":"Currency"},{"name":"currency1","type":"address","internalType":"Currency"},{"name":"fee","type":"uint24","internalType":"uint24"},{"name":"tickSpacing","type":"int24","internalType":"int24"},{"name":"hooks","type":"address","internalType":"contract IHooks"}]},{"name":"","type":"uint160","internalType":"uint160"},{"name":"","type":"bytes","internalType":"bytes"}],"outputs":[{"name":"","type":"bytes4","internalType":"bytes4"}],"stateMutability":"nonpayable"},{"type":"function","name":"beforeRemoveLiquidity","inputs":[{"name":"","type":"address","internalType":"address"},{"name":"","type":"tuple","internalType":"struct PoolKey","components":[{"name":"currency0","type":"address","internalType":"Currency"},{"name":"currency1","type":"address","internalType":"Currency"},{"name":"fee","type":"uint24","internalType":"uint24"},{"name":"tickSpacing","type":"int24","internalType":"int24"},{"name":"hooks","type":"address","internalType":"contract IHooks"}]},{"name":"","type":"tuple","internalType":"struct IPoolManager.ModifyLiquidityParams","components":[{"name":"tickLower","type":"int24","internalType":"int24"},{"name":"tickUpper","type":"int24","internalType":"int24"},{"name":"liquidityDelta","type":"int256","internalType":"int256"},{"name":"salt","type":"bytes32","internalType":"bytes32"}]},{"name":"","type":"bytes","internalType":"bytes"}],"outputs":[{"name":"","type":"bytes4","internalType":"bytes4"}],"stateMutability":"nonpayable"},{"type":"function","name":"beforeSwap","inputs":[{"name":"","type":"address","internalType":"address"},{"name":"key","type":"tuple","internalType":"struct PoolKey","components":[{"name":"currency0","type":"address","internalType":"Currency"},{"name":"currency1","type":"address","internalType":"Currency"},{"name":"fee","type":"uint24","internalType":"uint24"},{"name":"tickSpacing","type":"int24","internalType":"int24"},{"name":"hooks","type":"address","internalType":"contract IHooks"}]},{"name":"params","type":"tuple","internalType":"struct IPoolManager.SwapParams","components":[{"name":"zeroForOne","type":"bool","internalType":"bool"},{"name":"amountSpecified","type":"int256","internalType":"int256"},{"name":"sqrtPriceLimitX96","type":"uint160","internalType":"uint160"}]},{"name":"","type":"bytes","internalType":"bytes"}],"outputs":[{"name":"","type":"bytes4","internalType":"bytes4"},{"name":"","type":"int256","internalType":"BeforeSwapDelta"},{"name":"","type":"uint24","internalType":"uint24"}],"stateMutability":"nonpayable"},{"type":"function","name":"calculateDynamicFee","inputs":[{"name":"pool","type":"tuple","internalType":"struct PoolKey","components":[{"name":"currency0","type":"address","internalType":"Currency"},{"name":"currency1","type":"address","internalType":"Currency"},{"name":"fee","type":"uint24","internalType":"uint24"},{"name":"tickSpacing","type":"int24","internalType":"int24"},{"name":"hooks","type":"address","internalType":"contract IHooks"}]},{"name":"delta","type":"uint24","internalType":"uint24"},{"name":"params","type":"tuple","internalType":"struct IPoolManager.SwapParams","components":[{"name":"zeroForOne","type":"bool","internalType":"bool"},{"name":"amountSpecified","type":"int256","internalType":"int256"},{"name":"sqrtPriceLimitX96","type":"uint160","internalType":"uint160"}]}],"outputs":[{"name":"","type":"uint24","internalType":"uint24"}],"stateMutability":"view"},{"type":"function","name":"getCurrentFee","inputs":[{"name":"key","type":"tuple","internalType":"struct PoolKey","components":[{"name":"currency0","type":"address","internalType":"Currency"},{"name":"currency1","type":"address","internalType":"Currency"},{"name":"fee","type":"uint24","internalType":"uint24"},{"name":"tickSpacing","type":"int24","internalType":"int24"},{"name":"hooks","type":"address","internalType":"contract IHooks"}]}],"outputs":[{"name":"","type":"uint24","internalType":"uint24"}],"stateMutability":"view"},{"type":"function","name":"getCurrentTick","inputs":[{"name":"key","type":"tuple","internalType":"struct PoolKey","components":[{"name":"currency0","type":"address","internalType":"Currency"},{"name":"currency1","type":"address","internalType":"Currency"},{"name":"fee","type":"uint24","internalType":"uint24"},{"name":"tickSpacing","type":"int24","internalType":"int24"},{"name":"hooks","type":"address","internalType":"contract IHooks"}]}],"outputs":[{"name":"","type":"int24","internalType":"int24"}],"stateMutability":"view"},{"type":"function","name":"getHookPermissions","inputs":[],"outputs":[{"name":"","type":"tuple","internalType":"struct Hooks.Permissions","components":[{"name":"beforeInitialize","type":"bool","internalType":"bool"},{"name":"afterInitialize","type":"bool","internalType":"bool"},{"name":"beforeAddLiquidity","type":"bool","internalType":"bool"},{"name":"afterAddLiquidity","type":"bool","internalType":"bool"},{"name":"beforeRemoveLiquidity","type":"bool","internalType":"bool"},{"name":"afterRemoveLiquidity","type":"bool","internalType":"bool"},{"name":"beforeSwap","type":"bool","internalType":"bool"},{"name":"afterSwap","type":"bool","internalType":"bool"},{"name":"beforeDonate","type":"bool","internalType":"bool"},{"name":"afterDonate","type":"bool","internalType":"bool"},{"name":"beforeSwapReturnDelta","type":"bool","internalType":"bool"},{"name":"afterSwapReturnDelta","type":"bool","internalType":"bool"},{"name":"afterAddLiquidityReturnDelta","type":"bool","internalType":"bool"},{"name":"afterRemoveLiquidityReturnDelta","type":"bool","internalType":"bool"}]}],"stateMutability":"pure"},{"type":"function","name":"manager","inputs":[],"outputs":[{"name":"","type":"address","internalType":"contract IPoolManager"}],"stateMutability":"view"},{"type":"function","name":"poolManager","inputs":[],"outputs":[{"name":"","type":"address","internalType":"contract IPoolManager"}],"stateMutability":"view"},{"type":"function","name":"poolToAccumulatedDelta","inputs":[{"name":"","type":"bytes32","internalType":"PoolId"}],"outputs":[{"name":"","type":"uint256","internalType":"uint256"}],"stateMutability":"view"},{"type":"function","name":"poolToTick","inputs":[{"name":"","type":"bytes32","internalType":"PoolId"}],"outputs":[{"name":"","type":"int24","internalType":"int24"}],"stateMutability":"view"},{"type":"function","name":"poolToTimeStamp","inputs":[{"name":"","type":"bytes32","internalType":"PoolId"}],"outputs":[{"name":"","type":"uint256","internalType":"uint256"}],"stateMutability":"view"},{"type":"function","name":"unlockCallback","inputs":[{"name":"data","type":"bytes","internalType":"bytes"}],"outputs":[{"name":"","type":"bytes","internalType":"bytes"}],"stateMutability":"nonpayable"},{"type":"error","name":"HookNotImplemented","inputs":[]},{"type":"error","name":"InvalidPool","inputs":[]},{"type":"error","name":"LockFailure","inputs":[]},{"type":"error","name":"MustUseDynamicFee","inputs":[]},{"type":"error","name":"NotPoolManager","inputs":[]},{"type":"error","name":"NotSelf","inputs":[]}],"bytecode":{"object":"0x60a06040523461027357604051601f6115df38819003918201601f19168301916001600160401b038311848410176102775780849260209460405283398101031261027357516001600160a01b03811690818103610273576080525f6101a061006661028b565b8281528260208201528260408201528260608201528260808201528260a08201528260c08201528260e0820152826101008201528261012082015282610140820152826101608201528261018082015201525f6101a06100c461028b565b600181528260208201528260408201528260608201528260808201528260a0820152600160c08201528260e08201528261010082015282610120820152826101408201528261016082015282610180820152015261200030161515600114801590610266575b8015610259575b801561024c575b801561023f575b8015610232575b8015610222575b8015610216575b801561020a575b80156101fe575b80156101f2575b80156101e6575b80156101da575b80156101ce575b6101bb575f80546001600160a01b03191691909117905560405161133390816102ac82396080518181816101800152818161048301526108340152f35b630732d7b560e51b5f523060045260245ffd5b5060013016151561017e565b50600230161515610177565b50600430161515610170565b50600830161515610169565b50601030161515610162565b5060203016151561015b565b50604030161515610154565b506080301615156001141561014d565b5061010030161515610146565b506102003016151561013f565b5061040030161515610138565b5061080030161515610131565b506110003016151561012a565b5f80fd5b634e487b7160e01b5f52604160045260245ffd5b604051906101c082016001600160401b038111838210176102775760405256fe6080806040526004361015610012575f80fd5b5f905f3560e01c908163059f8b1614610d355750806321d0ee7014610d30578063259982e514610d3057806329811c7314610d035780633440d82014610c5f5780633d18651e14610c435780633fc48eba14610c26578063481c6a7514610c01578063575e24b4146107d35780635f105e2d146107945780636499b6331461074c5780636c2bbe7e1461044157806376c7a3c71461072f578063792dbae8146104f157806391dd7346146104465780639f063efc14610441578063a910f80f146103e4578063ae067854146103c8578063b22c92731461039e578063b47b2fb114610335578063b6a8b0fa1461015b578063c4e833ce146101ce578063d079c1de146101a4578063dc4c90d314610160578063e1b4af691461015b5763eced55261461013c575f80fd5b3461015857806003193601126101585760206040516103e88152f35b80fd5b610e9e565b503461015857806003193601126101585760206040516001600160a01b037f0000000000000000000000000000000000000000000000000000000000000000168152f35b50346101585760203660031901126101585760406020916004358152600383522054604051908152f35b50346101585780600319360112610158576020816101c0926101a06040516101f581610ef1565b82815282858201528260408201528260608201528260808201528260a08201528260c08201528260e0820152826101008201528261012082015282610140820152826101608201528261018082015201528060405161025381610ef1565b6001815283810182815260408201838152606083018481526080840185815260a0850186815260c08601906001825260e08701928884526101008801948986526101208901968a88526101408a01988b8a526101a06101608c019b8d8d5261018081019d8e52019c8d526040519d8e916001835251151591015251151560408d015251151560608c015251151560808b015251151560a08a015251151560c089015251151560e08801525115156101008701525115156101208601525115156101408501525115156101608401525115156101808301525115156101a0820152f35b50346101585761016036600319011261015857610350610d4f565b5060a03660231901126101585760603660c3190112610158576101443567ffffffffffffffff811161039a579061038c60049236908401610d79565b5050630a85dc2960e01b8152fd5b5080fd5b50346101585760203660031901126101585760406020916004358152600183522054604051908152f35b50346101585780600319360112610158576020604051600a8152f35b503461015857610120366003190112610158576103ff610d4f565b5060a036602319011261015857610414610e19565b5061041d610e8e565b506101043567ffffffffffffffff811161039a579061038c60049236908401610d79565b610e2f565b50346101585760203660031901126101585760043567ffffffffffffffff811161039a57610478903690600401610d79565b906001600160a01b037f00000000000000000000000000000000000000000000000000000000000000001633036104e2576040916104b59161127e565b6020825193849282845280519283918282870152018585015e828201840152601f01601f19168101030190f35b63570c108560e11b8352600483fd5b5034610158573660031901610120811261039a5760a0136101585760a43562ffffff811680910361039a5760603660c319011261039a5761054960a0610538366004610fe7565b206001600160a01b03845416611099565b939250505062ffffff821615610725575b6103e88102908082046103e8149015171561065e5761057c62ffffff9161114c565b911690816102ee026102ee810483036106a1576103e8916107d06105b3920462ffffff81105f1461071a5762ffffff905b16611068565b04620dbba081101561070c5762ffffff905b1660c43580159081150361070857156106c357810162ffffff811161065e5762ffffff16620dbba08110156106b55762ffffff905b16905b6003810262ffffff81169081036106a157600a90049162ffffff811682811115610672575062ffffff8091169216810180911161065e576020925062ffffff91908082101561065757505b165b62ffffff60405191168152f35b9050610648565b634e487b7160e01b83526011600452602483fd5b9160209491506106899062ffffff8095169061105b565b905080821061069a57505b1661064a565b9050610694565b634e487b7160e01b84526011600452602484fd5b5062ffffff620dbba06105fa565b8181106106d457506101f4906105fd565b810362ffffff811161065e5762ffffff166101f481106106fb5762ffffff905b16906105fd565b5062ffffff6101f46106f4565b8380fd5b5062ffffff620dbba06105c5565b5062ffffff806105ad565b610bb8915061055a565b503461015857806003193601126101585760206040516101f48152f35b50346101585760a036600319011261015857602090610783906001600160a01b0360a061077a366004610fe7565b20915416611099565b9250505062ffffff60405191168152f35b50346101585760a0366003190112610158576020906107c2906001600160a01b0360a061077a366004610fe7565b5050809150506040519060020b8152f35b5034610b2557610140366003190112610b25576107ee610d4f565b5060a0366023190112610b255760603660c3190112610b25576101243567ffffffffffffffff8111610b2557610828903690600401610d79565b50506001600160a01b037f00000000000000000000000000000000000000000000000000000000000000001690813303610bf25760a061086736610f60565b20805f526001602052600161088060405f20544261105b565b116108a4575b606082604051906315d7892d60e21b82528060208301526040820152f35b805f5260016020524260405f20556108d360a06108c2366024610fe7565b206001600160a01b035f5416611099565b50508092915050805f52600260205260405f205460020b8260020b03627fffff8113627fffff19821217610b3057600281900b905f8212610bd85762ffffff809250165b16801590811561092a575b505050610886565b61093a60a06108c2366024610fe7565b949250505062ffffff831615610bce575b6103e882029182046103e8141715610b305761096a62ffffff9161114c565b911690816102ee026102ee81048303610b30576103e8916107d061099f920462ffffff81105f1461071a5762ffffff16611068565b04620dbba0811015610bc05762ffffff905b1660c435801590811503610b255715610b7d57810162ffffff8111610b305762ffffff16620dbba0811015610b6f5762ffffff905b165b6003820262ffffff8116908103610b3057600a90049062ffffff811683811115610b44575062ffffff80911691168201809211610b305762ffffff9180821015610b2957505b16935b803b15610b255760405194635275965160e01b86526024356001600160a01b038116809103610b255760048701526044356001600160a01b038116809103610b2557602487015260643562ffffff8116809103610b255760448701526084358060020b809103610b2557606487015260a435916001600160a01b038316809303610b2557865f60c49262ffffff8395839760848601521660a48401525af1938415610b1a57606094610b05575b5082526002602052604082209062ffffff198254169062ffffff161790555f808080610922565b610b129193505f90610f3e565b5f915f610ade565b6040513d5f823e3d90fd5b5f80fd5b9050610a2e565b634e487b7160e01b5f52601160045260245ffd5b91610b5891509262ffffff8094169061105b565b808210610b6857505b1693610a31565b9050610b61565b5062ffffff620dbba06109e6565b818110610b8d57506101f46109e8565b810362ffffff8111610b305762ffffff166101f48110610bb35762ffffff905b166109e8565b5062ffffff6101f4610bad565b5062ffffff620dbba06109b1565b610bb8925061094b565b50627fffff198114610b305762ffffff905f038116610917565b63570c108560e11b5f5260045ffd5b34610b25575f366003190112610b255760206001600160a01b035f5416604051908152f35b34610b25575f366003190112610b25576020604051620dbba08152f35b34610b25575f366003190112610b25576020604051610bb88152f35b34610b2557610100366003190112610b2557610c79610d4f565b5060a0366023190112610b2557610c8e610e19565b5060e43567ffffffffffffffff8111610b2557610caf903690600401610d79565b505060643562ffffff8116809103610b25576280000003610cf45760a0610cd536610f60565b205f5260016020524260405f205560206040516301a206c160e51b8152f35b6315b3d69f60e31b5f5260045ffd5b34610b25576020366003190112610b25576004355f526002602052602060405f205460020b604051908152f35b610da7565b34610b25575f366003190112610b2557806102ee60209252f35b600435906001600160a01b0382168203610b2557565b35906001600160a01b0382168203610b2557565b9181601f84011215610b255782359167ffffffffffffffff8311610b255760208381860195010111610b2557565b34610b2557610160366003190112610b25576004356001600160a01b0381168103610b25575060a0366023190112610b255760803660c3190112610b25576101443567ffffffffffffffff8111610b2557610e06903690600401610d79565b5050630a85dc2960e01b5f908152600490fd5b60c435906001600160a01b0382168203610b2557565b34610b25576101a0366003190112610b25576004356001600160a01b0381168103610b25575060a0366023190112610b255760803660c3190112610b25576101843567ffffffffffffffff8111610b2557610e06903690600401610d79565b60e435908160020b8203610b2557565b34610b2557610120366003190112610b25576004356001600160a01b0381168103610b25575060a0366023190112610b25576101043567ffffffffffffffff8111610b2557610e06903690600401610d79565b6101c0810190811067ffffffffffffffff821117610f0e57604052565b634e487b7160e01b5f52604160045260245ffd5b60a0810190811067ffffffffffffffff821117610f0e57604052565b90601f8019910116810190811067ffffffffffffffff821117610f0e57604052565b60a0906023190112610b255760405190610f7982610f22565b816024356001600160a01b0381168103610b255781526044356001600160a01b0381168103610b2557602082015260643562ffffff81168103610b255760408201526084358060020b8103610b2557606082015260a435906001600160a01b0382168203610b255760800152565b91908260a0910312610b2557604051610fff81610f22565b809261100a81610d65565b825261101860208201610d65565b6020830152604081013562ffffff81168103610b255760408301526060810135908160020b8203610b25576080611056918193606086015201610d65565b910152565b91908203918211610b3057565b81810292918115918404141715610b3057565b8115611085570490565b634e487b7160e01b5f52601260045260245ffd5b60209060246001600160a01b03949360405184810191825260066040820152604081526110c7606082610f3e565b5190206040519586938492631e2eaeaf60e01b84526004840152165afa918215610b1a575f92611118575b506001600160a01b038216918060a01c60020b9162ffffff808360b81c169260d01c1690565b9091506020813d602011611144575b8161113460209383610f3e565b81010312610b255751905f6110f2565b3d9150611127565b80156112795761120b6001828360801c80611265575b508060401c80611258575b508060201c8061124b575b508060101c8061123e575b508060081c80611231575b508060041c80611224575b5060021c61121c575b6111ac818461107b565b0160011c6111ba818461107b565b0160011c6111c8818461107b565b0160011c6111d6818461107b565b0160011c6111e4818461107b565b0160011c6111f2818461107b565b0160011c611200818461107b565b0160011c809261107b565b80821015611217575090565b905090565b60011b6111a2565b90509060021b905f611199565b90509060041b905f61118e565b90509060081b905f611183565b90509060101b905f611178565b90509060201b905f61116d565b91505068010000000000000000905f611162565b505f90565b5f9182918160405192839283378101838152039082305af1903d156112f5573d9167ffffffffffffffff8311610f0e57604051926112c6601f8201601f191660200185610f3e565b83523d5f602085013e5b6112f357508051156112e457602081519101fd5b6314815f4760e31b5f5260045ffd5b565b6060916112d056fea2646970667358221220ba0461d8f5655d836b097e50d92200426cb3327d6ffc0dfcd248f663f40f79da64736f6c634300081a0033","linkReferences":{}},"methodIdentifiers":{"BASE_FEE()":"3d18651e","MAX_LP_FEE()":"3fc48eba","MIN_FEE()":"76c7a3c7","MULTIPLIER()":"059f8b16","SCALE()":"eced5526","SMOOTHING_FACTOR()":"ae067854","afterAddLiquidity(address,(address,address,uint24,int24,address),(int24,int24,int256,bytes32),int256,int256,bytes)":"9f063efc","afterDonate(address,(address,address,uint24,int24,address),uint256,uint256,bytes)":"e1b4af69","afterInitialize(address,(address,address,uint24,int24,address),uint160,int24,bytes)":"a910f80f","afterRemoveLiquidity(address,(address,address,uint24,int24,address),(int24,int24,int256,bytes32),int256,int256,bytes)":"6c2bbe7e","afterSwap(address,(address,address,uint24,int24,address),(bool,int256,uint160),int256,bytes)":"b47b2fb1","beforeAddLiquidity(address,(address,address,uint24,int24,address),(int24,int24,int256,bytes32),bytes)":"259982e5","beforeDonate(address,(address,address,uint24,int24,address),uint256,uint256,bytes)":"b6a8b0fa","beforeInitialize(address,(address,address,uint24,int24,address),uint160,bytes)":"3440d820","beforeRemoveLiquidity(address,(address,address,uint24,int24,address),(int24,int24,int256,bytes32),bytes)":"21d0ee70","beforeSwap(address,(address,address,uint24,int24,address),(bool,int256,uint160),bytes)":"575e24b4","calculateDynamicFee((address,address,uint24,int24,address),uint24,(bool,int256,uint160))":"792dbae8","getCurrentFee((address,address,uint24,int24,address))":"6499b633","getCurrentTick((address,address,uint24,int24,address))":"5f105e2d","getHookPermissions()":"c4e833ce","manager()":"481c6a75","poolManager()":"dc4c90d3","poolToAccumulatedDelta(bytes32)":"d079c1de","poolToTick(bytes32)":"29811c73","poolToTimeStamp(bytes32)":"b22c9273","unlockCallback(bytes)":"91dd7346"},"id":99}