{"abi":[{"type":"constructor","inputs":[{"name":"_poolManager","type":"address","internalType":"contract IPoolManager"}],"stateMutability":"nonpayable"},{"type":"function","name":"BASE_FEE","inputs":[],"outputs":[{"name":"","type":"uint24","internalType":"uint24"}],"stateMutability":"view"},{"type":"function","name":"MAX_FEE","inputs":[],"outputs":[{"name":"","type":"uint24","internalType":"uint24"}],"stateMutability":"view"},{"type":"function","name":"MIN_FEE","inputs":[],"outputs":[{"name":"","type":"uint24","internalType":"uint24"}],"stateMutability":"view"},{"type":"function","name":"MULTIPLIER","inputs":[],"outputs":[{"name":"","type":"uint24","internalType":"uint24"}],"stateMutability":"view"},{"type":"function","name":"SCALE","inputs":[],"outputs":[{"name":"","type":"uint24","internalType":"uint24"}],"stateMutability":"view"},{"type":"function","name":"afterAddLiquidity","inputs":[{"name":"","type":"address","internalType":"address"},{"name":"","type":"tuple","internalType":"struct PoolKey","components":[{"name":"currency0","type":"address","internalType":"Currency"},{"name":"currency1","type":"address","internalType":"Currency"},{"name":"fee","type":"uint24","internalType":"uint24"},{"name":"tickSpacing","type":"int24","internalType":"int24"},{"name":"hooks","type":"address","internalType":"contract IHooks"}]},{"name":"","type":"tuple","internalType":"struct IPoolManager.ModifyLiquidityParams","components":[{"name":"tickLower","type":"int24","internalType":"int24"},{"name":"tickUpper","type":"int24","internalType":"int24"},{"name":"liquidityDelta","type":"int256","internalType":"int256"},{"name":"salt","type":"bytes32","internalType":"bytes32"}]},{"name":"","type":"int256","internalType":"BalanceDelta"},{"name":"","type":"int256","internalType":"BalanceDelta"},{"name":"","type":"bytes","internalType":"bytes"}],"outputs":[{"name":"","type":"bytes4","internalType":"bytes4"},{"name":"","type":"int256","internalType":"BalanceDelta"}],"stateMutability":"nonpayable"},{"type":"function","name":"afterDonate","inputs":[{"name":"","type":"address","internalType":"address"},{"name":"","type":"tuple","internalType":"struct PoolKey","components":[{"name":"currency0","type":"address","internalType":"Currency"},{"name":"currency1","type":"address","internalType":"Currency"},{"name":"fee","type":"uint24","internalType":"uint24"},{"name":"tickSpacing","type":"int24","internalType":"int24"},{"name":"hooks","type":"address","internalType":"contract IHooks"}]},{"name":"","type":"uint256","internalType":"uint256"},{"name":"","type":"uint256","internalType":"uint256"},{"name":"","type":"bytes","internalType":"bytes"}],"outputs":[{"name":"","type":"bytes4","internalType":"bytes4"}],"stateMutability":"nonpayable"},{"type":"function","name":"afterInitialize","inputs":[{"name":"","type":"address","internalType":"address"},{"name":"","type":"tuple","internalType":"struct PoolKey","components":[{"name":"currency0","type":"address","internalType":"Currency"},{"name":"currency1","type":"address","internalType":"Currency"},{"name":"fee","type":"uint24","internalType":"uint24"},{"name":"tickSpacing","type":"int24","internalType":"int24"},{"name":"hooks","type":"address","internalType":"contract IHooks"}]},{"name":"","type":"uint160","internalType":"uint160"},{"name":"","type":"int24","internalType":"int24"},{"name":"","type":"bytes","internalType":"bytes"}],"outputs":[{"name":"","type":"bytes4","internalType":"bytes4"}],"stateMutability":"nonpayable"},{"type":"function","name":"afterRemoveLiquidity","inputs":[{"name":"","type":"address","internalType":"address"},{"name":"","type":"tuple","internalType":"struct PoolKey","components":[{"name":"currency0","type":"address","internalType":"Currency"},{"name":"currency1","type":"address","internalType":"Currency"},{"name":"fee","type":"uint24","internalType":"uint24"},{"name":"tickSpacing","type":"int24","internalType":"int24"},{"name":"hooks","type":"address","internalType":"contract IHooks"}]},{"name":"","type":"tuple","internalType":"struct IPoolManager.ModifyLiquidityParams","components":[{"name":"tickLower","type":"int24","internalType":"int24"},{"name":"tickUpper","type":"int24","internalType":"int24"},{"name":"liquidityDelta","type":"int256","internalType":"int256"},{"name":"salt","type":"bytes32","internalType":"bytes32"}]},{"name":"","type":"int256","internalType":"BalanceDelta"},{"name":"","type":"int256","internalType":"BalanceDelta"},{"name":"","type":"bytes","internalType":"bytes"}],"outputs":[{"name":"","type":"bytes4","internalType":"bytes4"},{"name":"","type":"int256","internalType":"BalanceDelta"}],"stateMutability":"nonpayable"},{"type":"function","name":"afterSwap","inputs":[{"name":"","type":"address","internalType":"address"},{"name":"","type":"tuple","internalType":"struct PoolKey","components":[{"name":"currency0","type":"address","internalType":"Currency"},{"name":"currency1","type":"address","internalType":"Currency"},{"name":"fee","type":"uint24","internalType":"uint24"},{"name":"tickSpacing","type":"int24","internalType":"int24"},{"name":"hooks","type":"address","internalType":"contract IHooks"}]},{"name":"","type":"tuple","internalType":"struct IPoolManager.SwapParams","components":[{"name":"zeroForOne","type":"bool","internalType":"bool"},{"name":"amountSpecified","type":"int256","internalType":"int256"},{"name":"sqrtPriceLimitX96","type":"uint160","internalType":"uint160"}]},{"name":"","type":"int256","internalType":"BalanceDelta"},{"name":"","type":"bytes","internalType":"bytes"}],"outputs":[{"name":"","type":"bytes4","internalType":"bytes4"},{"name":"","type":"int128","internalType":"int128"}],"stateMutability":"nonpayable"},{"type":"function","name":"beforeAddLiquidity","inputs":[{"name":"","type":"address","internalType":"address"},{"name":"","type":"tuple","internalType":"struct PoolKey","components":[{"name":"currency0","type":"address","internalType":"Currency"},{"name":"currency1","type":"address","internalType":"Currency"},{"name":"fee","type":"uint24","internalType":"uint24"},{"name":"tickSpacing","type":"int24","internalType":"int24"},{"name":"hooks","type":"address","internalType":"contract IHooks"}]},{"name":"","type":"tuple","internalType":"struct IPoolManager.ModifyLiquidityParams","components":[{"name":"tickLower","type":"int24","internalType":"int24"},{"name":"tickUpper","type":"int24","internalType":"int24"},{"name":"liquidityDelta","type":"int256","internalType":"int256"},{"name":"salt","type":"bytes32","internalType":"bytes32"}]},{"name":"","type":"bytes","internalType":"bytes"}],"outputs":[{"name":"","type":"bytes4","internalType":"bytes4"}],"stateMutability":"nonpayable"},{"type":"function","name":"beforeDonate","inputs":[{"name":"","type":"address","internalType":"address"},{"name":"","type":"tuple","internalType":"struct PoolKey","components":[{"name":"currency0","type":"address","internalType":"Currency"},{"name":"currency1","type":"address","internalType":"Currency"},{"name":"fee","type":"uint24","internalType":"uint24"},{"name":"tickSpacing","type":"int24","internalType":"int24"},{"name":"hooks","type":"address","internalType":"contract IHooks"}]},{"name":"","type":"uint256","internalType":"uint256"},{"name":"","type":"uint256","internalType":"uint256"},{"name":"","type":"bytes","internalType":"bytes"}],"outputs":[{"name":"","type":"bytes4","internalType":"bytes4"}],"stateMutability":"nonpayable"},{"type":"function","name":"beforeInitialize","inputs":[{"name":"","type":"address","internalType":"address"},{"name":"key","type":"tuple","internalType":"struct PoolKey","components":[{"name":"currency0","type":"address","internalType":"Currency"},{"name":"currency1","type":"address","internalType":"Currency"},{"name":"fee","type":"uint24","internalType":"uint24"},{"name":"tickSpacing","type":"int24","internalType":"int24"},{"name":"hooks","type":"address","internalType":"contract IHooks"}]},{"name":"","type":"uint160","internalType":"uint160"},{"name":"","type":"bytes","internalType":"bytes"}],"outputs":[{"name":"","type":"bytes4","internalType":"bytes4"}],"stateMutability":"nonpayable"},{"type":"function","name":"beforeRemoveLiquidity","inputs":[{"name":"","type":"address","internalType":"address"},{"name":"","type":"tuple","internalType":"struct PoolKey","components":[{"name":"currency0","type":"address","internalType":"Currency"},{"name":"currency1","type":"address","internalType":"Currency"},{"name":"fee","type":"uint24","internalType":"uint24"},{"name":"tickSpacing","type":"int24","internalType":"int24"},{"name":"hooks","type":"address","internalType":"contract IHooks"}]},{"name":"","type":"tuple","internalType":"struct IPoolManager.ModifyLiquidityParams","components":[{"name":"tickLower","type":"int24","internalType":"int24"},{"name":"tickUpper","type":"int24","internalType":"int24"},{"name":"liquidityDelta","type":"int256","internalType":"int256"},{"name":"salt","type":"bytes32","internalType":"bytes32"}]},{"name":"","type":"bytes","internalType":"bytes"}],"outputs":[{"name":"","type":"bytes4","internalType":"bytes4"}],"stateMutability":"nonpayable"},{"type":"function","name":"beforeSwap","inputs":[{"name":"","type":"address","internalType":"address"},{"name":"key","type":"tuple","internalType":"struct PoolKey","components":[{"name":"currency0","type":"address","internalType":"Currency"},{"name":"currency1","type":"address","internalType":"Currency"},{"name":"fee","type":"uint24","internalType":"uint24"},{"name":"tickSpacing","type":"int24","internalType":"int24"},{"name":"hooks","type":"address","internalType":"contract IHooks"}]},{"name":"params","type":"tuple","internalType":"struct IPoolManager.SwapParams","components":[{"name":"zeroForOne","type":"bool","internalType":"bool"},{"name":"amountSpecified","type":"int256","internalType":"int256"},{"name":"sqrtPriceLimitX96","type":"uint160","internalType":"uint160"}]},{"name":"","type":"bytes","internalType":"bytes"}],"outputs":[{"name":"","type":"bytes4","internalType":"bytes4"},{"name":"","type":"int256","internalType":"BeforeSwapDelta"},{"name":"","type":"uint24","internalType":"uint24"}],"stateMutability":"nonpayable"},{"type":"function","name":"calculateDynamicFee","inputs":[{"name":"pool","type":"tuple","internalType":"struct PoolKey","components":[{"name":"currency0","type":"address","internalType":"Currency"},{"name":"currency1","type":"address","internalType":"Currency"},{"name":"fee","type":"uint24","internalType":"uint24"},{"name":"tickSpacing","type":"int24","internalType":"int24"},{"name":"hooks","type":"address","internalType":"contract IHooks"}]},{"name":"delta","type":"uint24","internalType":"uint24"},{"name":"params","type":"tuple","internalType":"struct IPoolManager.SwapParams","components":[{"name":"zeroForOne","type":"bool","internalType":"bool"},{"name":"amountSpecified","type":"int256","internalType":"int256"},{"name":"sqrtPriceLimitX96","type":"uint160","internalType":"uint160"}]}],"outputs":[{"name":"","type":"uint24","internalType":"uint24"}],"stateMutability":"pure"},{"type":"function","name":"counter","inputs":[],"outputs":[{"name":"","type":"uint256","internalType":"uint256"}],"stateMutability":"view"},{"type":"function","name":"getCurrentTick","inputs":[{"name":"key","type":"tuple","internalType":"struct PoolKey","components":[{"name":"currency0","type":"address","internalType":"Currency"},{"name":"currency1","type":"address","internalType":"Currency"},{"name":"fee","type":"uint24","internalType":"uint24"},{"name":"tickSpacing","type":"int24","internalType":"int24"},{"name":"hooks","type":"address","internalType":"contract IHooks"}]}],"outputs":[{"name":"","type":"int24","internalType":"int24"}],"stateMutability":"view"},{"type":"function","name":"getHookPermissions","inputs":[],"outputs":[{"name":"","type":"tuple","internalType":"struct Hooks.Permissions","components":[{"name":"beforeInitialize","type":"bool","internalType":"bool"},{"name":"afterInitialize","type":"bool","internalType":"bool"},{"name":"beforeAddLiquidity","type":"bool","internalType":"bool"},{"name":"afterAddLiquidity","type":"bool","internalType":"bool"},{"name":"beforeRemoveLiquidity","type":"bool","internalType":"bool"},{"name":"afterRemoveLiquidity","type":"bool","internalType":"bool"},{"name":"beforeSwap","type":"bool","internalType":"bool"},{"name":"afterSwap","type":"bool","internalType":"bool"},{"name":"beforeDonate","type":"bool","internalType":"bool"},{"name":"afterDonate","type":"bool","internalType":"bool"},{"name":"beforeSwapReturnDelta","type":"bool","internalType":"bool"},{"name":"afterSwapReturnDelta","type":"bool","internalType":"bool"},{"name":"afterAddLiquidityReturnDelta","type":"bool","internalType":"bool"},{"name":"afterRemoveLiquidityReturnDelta","type":"bool","internalType":"bool"}]}],"stateMutability":"pure"},{"type":"function","name":"manager","inputs":[],"outputs":[{"name":"","type":"address","internalType":"contract IPoolManager"}],"stateMutability":"view"},{"type":"function","name":"poolManager","inputs":[],"outputs":[{"name":"","type":"address","internalType":"contract IPoolManager"}],"stateMutability":"view"},{"type":"function","name":"poolToTick","inputs":[{"name":"","type":"bytes32","internalType":"PoolId"}],"outputs":[{"name":"","type":"int24","internalType":"int24"}],"stateMutability":"view"},{"type":"function","name":"poolToTimeStamp","inputs":[{"name":"","type":"bytes32","internalType":"PoolId"}],"outputs":[{"name":"","type":"uint256","internalType":"uint256"}],"stateMutability":"view"},{"type":"function","name":"unlockCallback","inputs":[{"name":"data","type":"bytes","internalType":"bytes"}],"outputs":[{"name":"","type":"bytes","internalType":"bytes"}],"stateMutability":"nonpayable"},{"type":"error","name":"HookNotImplemented","inputs":[]},{"type":"error","name":"InvalidPool","inputs":[]},{"type":"error","name":"LockFailure","inputs":[]},{"type":"error","name":"MustUseDynamicFee","inputs":[]},{"type":"error","name":"NotPoolManager","inputs":[]},{"type":"error","name":"NotSelf","inputs":[]}],"bytecode":{"object":"0x60a06040523461027f57604051601f61120b38819003918201601f19168301916001600160401b038311848410176102835780849260209460405283398101031261027f57516001600160a01b0381169081810361027f576080525f6101a0610066610297565b8281528260208201528260408201528260608201528260808201528260a08201528260c08201528260e0820152826101008201528261012082015282610140820152826101608201528261018082015201525f6101a06100c4610297565b600181528260208201528260408201528260608201528260808201528260a0820152600160c08201528260e08201528261010082015282610120820152826101408201528261016082015282610180820152015261200030161515600114801590610272575b8015610265575b8015610258575b801561024b575b801561023e575b801561022e575b8015610222575b8015610216575b801561020a575b80156101fe575b80156101f2575b80156101e6575b80156101da575b6101c75760035f55600180546001600160a01b031916919091179055604051610f5390816102b8823960805181818161016801528181610439015281816106530152610be80152f35b630732d7b560e51b5f523060045260245ffd5b5060013016151561017e565b50600230161515610177565b50600430161515610170565b50600830161515610169565b50601030161515610162565b5060203016151561015b565b50604030161515610154565b506080301615156001141561014d565b5061010030161515610146565b506102003016151561013f565b5061040030161515610138565b5061080030161515610131565b506110003016151561012a565b5f80fd5b634e487b7160e01b5f52604160045260245ffd5b604051906101c082016001600160401b038111838210176102835760405256fe6080806040526004361015610012575f80fd5b5f3560e01c908163059f8b16146108215750806321d0ee701461081c578063259982e51461081c57806329811c73146107ef5780633440d820146106e95780633d18651e146106cd578063481c6a75146106a7578063575e24b4146105f35780635f105e2d1461052d57806361bc221a146105115780636c2bbe7e146103f957806376c7a3c7146104f5578063792dbae8146104a857806391dd7346146103fe5780639f063efc146103f9578063a910f80f1461039f578063b22c927314610375578063b47b2fb114610310578063b6a8b0fa14610144578063bc063e1a146102f3578063c4e833ce1461018c578063dc4c90d314610149578063e1b4af69146101445763eced552614610124575f80fd5b34610140575f3660031901126101405760206040516103e88152f35b5f80fd5b61098a565b34610140575f3660031901126101405760206040516001600160a01b037f0000000000000000000000000000000000000000000000000000000000000000168152f35b34610140575f366003190112610140575f6101a06040516101ac816109dd565b8281528260208201528260408201528260608201528260808201528260a08201528260c08201528260e0820152826101008201528261012082015282610140820152826101608201528261018082015201526101c0602060405161020f816109dd565b60018152818101905f8252604081015f8152606082015f8152608083015f815260a084015f815260c085016001815260e08601905f82526101008701925f84526101208801945f86526101408901965f88526101608a01985f8a526101a06101808c019b5f8d52019b5f8d526040519d8e916001835251151591015251151560408d015251151560608c015251151560808b015251151560a08a015251151560c089015251151560e08801525115156101008701525115156101208601525115156101408501525115156101608401525115156101808301525115156101a0820152f35b34610140575f366003190112610140576020604051620f42408152f35b34610140576101603660031901126101405761032a61083b565b5060a03660231901126101405760603660c3190112610140576101443567ffffffffffffffff811161014057610364903690600401610865565b5050630a85dc2960e01b5f5260045ffd5b34610140576020366003190112610140576004355f526002602052602060405f2054604051908152f35b3461014057610120366003190112610140576103b961083b565b5060a0366023190112610140576103ce610905565b506103d761097a565b506101043567ffffffffffffffff811161014057610364903690600401610865565b61091b565b346101405760203660031901126101405760043567ffffffffffffffff81116101405761042f903690600401610865565b6001600160a01b037f00000000000000000000000000000000000000000000000000000000000000001633036104995761046d604091602093610e9e565b815192839181835280519182918282860152018484015e5f828201840152601f01601f19168101030190f35b63570c108560e11b5f5260045ffd5b3461014057366003190161012081126101405760a0136101405760a43562ffffff811681036101405760603660c3190112610140576104e8602091610d9d565b62ffffff60405191168152f35b34610140575f3660031901126101405760206040516101f48152f35b34610140575f3660031901126101405760205f54604051908152f35b346101405760a03660031901126101405760a061054b366004610a4c565b2060206001600160a01b036001541691604051828101918252600660408201526040815261057a606082610a2a565b519020602460405180948193631e2eaeaf60e01b835260048301525afa80156105e8575f906105b5575b60209060a01c60020b604051908152f35b506020813d6020116105e0575b816105cf60209383610a2a565b8101031261014057602090516105a4565b3d91506105c2565b6040513d5f823e3d90fd5b34610140576101403660031901126101405761060d61083b565b5060a03660231901126101405760603660c3190112610140576101243567ffffffffffffffff811161014057610647903690600401610865565b50506001600160a01b037f000000000000000000000000000000000000000000000000000000000000000016330361049957606062ffffff610687610ac0565b906040939293519363ffffffff60e01b1684526020840152166040820152f35b34610140575f3660031901126101405760206001600160a01b0360015416604051908152f35b34610140575f366003190112610140576020604051610bb88152f35b34610140576101003660031901126101405761070361083b565b5060a036602319011261014057610718610905565b5060e43567ffffffffffffffff811161014057610739903690600401610865565b505060643562ffffff81168082036101405762800000036107e0576040519061076182610a0e565b6024356001600160a01b03811681036101405782526044356001600160a01b038116810361014057602083015260408201526084358060020b810361014057606082015260a435906001600160a01b03821682036101405760a0916080820152205f5260026020524260405f205560206040516301a206c160e51b8152f35b6315b3d69f60e31b5f5260045ffd5b34610140576020366003190112610140576004355f526003602052602060405f205460020b604051908152f35b610893565b34610140575f36600319011261014057806102ee60209252f35b600435906001600160a01b038216820361014057565b35906001600160a01b038216820361014057565b9181601f840112156101405782359167ffffffffffffffff8311610140576020838186019501011161014057565b3461014057610160366003190112610140576004356001600160a01b0381168103610140575060a03660231901126101405760803660c3190112610140576101443567ffffffffffffffff8111610140576108f2903690600401610865565b5050630a85dc2960e01b5f908152600490fd5b60c435906001600160a01b038216820361014057565b34610140576101a0366003190112610140576004356001600160a01b0381168103610140575060a03660231901126101405760803660c3190112610140576101843567ffffffffffffffff8111610140576108f2903690600401610865565b60e435908160020b820361014057565b3461014057610120366003190112610140576004356001600160a01b0381168103610140575060a0366023190112610140576101043567ffffffffffffffff8111610140576108f2903690600401610865565b6101c0810190811067ffffffffffffffff8211176109fa57604052565b634e487b7160e01b5f52604160045260245ffd5b60a0810190811067ffffffffffffffff8211176109fa57604052565b90601f8019910116810190811067ffffffffffffffff8211176109fa57604052565b91908260a091031261014057604051610a6481610a0e565b8092610a6f81610851565b8252610a7d60208201610851565b6020830152604081013562ffffff811681036101405760408301526060810135908160020b8203610140576080610abb918193606086015201610851565b910152565b610acb366024610a4c565b60a05f91205f52600260205260405f20544203428111610d2257600110610afa575b6315d7892d60e21b918190565b60a0610b07366024610a4c565b205f5260026020524260405f205560a0610b22366024610a4c565b2060206001600160a01b0360015416916040518281019182526006604082015260408152610b51606082610a2a565b519020602460405180948193631e2eaeaf60e01b835260048301525afa9081156105e8575f91610d36575b5060a01c8060020b60a0610b91366024610a4c565b205f52600360205260405f205460020b9003627fffff8113627fffff19821217610d2257600281900b5f8112610d09575062ffffff165b62ffffff811615610cf75760c4610bde91610e3f565b6001600160a01b037f000000000000000000000000000000000000000000000000000000000000000016803b156101405760405191635275965160e01b83526024356001600160a01b0381168091036101405760048401526044356001600160a01b03811680910361014057602484015260643562ffffff81168091036101405760448401526084358060020b80910361014057606484015260a435916001600160a01b03831680930361014057835f60c49262ffffff8395839760848601521660a48401525af180156105e857610ce2575b5060a0610cbf366024610a4c565b2082526003602052604082209062ffffff198254169062ffffff16179055610aed565b610cef9192505f90610a2a565b5f905f610cb1565b506315d7892d60e21b925f9250829150565b9050627fffff198114610d22575f0362ffffff16610bc8565b634e487b7160e01b5f52601160045260245ffd5b90506020813d602011610d60575b81610d5160209383610a2a565b8101031261014057515f610b7c565b3d9150610d44565b62ffffff6103e89116029062ffffff8216918203610d2257565b9062ffffff8091169116029062ffffff8216918203610d2257565b622255109062ffffff610daf82610d68565b168015610e2b5762ffffff610dc5931604610d82565b60c4358015908115036101405715610e055762ffffff610bb891160162ffffff8111610d2257620f424062ffffff821611610dfd5790565b50620f424090565b62ffffff16610bb88111610e2457610bb80362ffffff8111610d225790565b506101f490565b634e487b7160e01b5f52601260045260245ffd5b622255109062ffffff610e5182610d68565b168015610e2b5762ffffff610e67931604610d82565b90358015908115036101405715610e055762ffffff610bb891160162ffffff8111610d2257620f424062ffffff821611610dfd5790565b5f9182918160405192839283378101838152039082305af1903d15610f15573d9167ffffffffffffffff83116109fa5760405192610ee6601f8201601f191660200185610a2a565b83523d5f602085013e5b610f135750805115610f0457602081519101fd5b6314815f4760e31b5f5260045ffd5b565b606091610ef056fea2646970667358221220f3c0af77fe57bd8b67aba342c1dc35d5ab30dcaece9fc5bb76a2f40ff1bb3b4064736f6c634300081a0033","linkReferences":{}},"methodIdentifiers":{"BASE_FEE()":"3d18651e","MAX_FEE()":"bc063e1a","MIN_FEE()":"76c7a3c7","MULTIPLIER()":"059f8b16","SCALE()":"eced5526","afterAddLiquidity(address,(address,address,uint24,int24,address),(int24,int24,int256,bytes32),int256,int256,bytes)":"9f063efc","afterDonate(address,(address,address,uint24,int24,address),uint256,uint256,bytes)":"e1b4af69","afterInitialize(address,(address,address,uint24,int24,address),uint160,int24,bytes)":"a910f80f","afterRemoveLiquidity(address,(address,address,uint24,int24,address),(int24,int24,int256,bytes32),int256,int256,bytes)":"6c2bbe7e","afterSwap(address,(address,address,uint24,int24,address),(bool,int256,uint160),int256,bytes)":"b47b2fb1","beforeAddLiquidity(address,(address,address,uint24,int24,address),(int24,int24,int256,bytes32),bytes)":"259982e5","beforeDonate(address,(address,address,uint24,int24,address),uint256,uint256,bytes)":"b6a8b0fa","beforeInitialize(address,(address,address,uint24,int24,address),uint160,bytes)":"3440d820","beforeRemoveLiquidity(address,(address,address,uint24,int24,address),(int24,int24,int256,bytes32),bytes)":"21d0ee70","beforeSwap(address,(address,address,uint24,int24,address),(bool,int256,uint160),bytes)":"575e24b4","calculateDynamicFee((address,address,uint24,int24,address),uint24,(bool,int256,uint160))":"792dbae8","counter()":"61bc221a","getCurrentTick((address,address,uint24,int24,address))":"5f105e2d","getHookPermissions()":"c4e833ce","manager()":"481c6a75","poolManager()":"dc4c90d3","poolToTick(bytes32)":"29811c73","poolToTimeStamp(bytes32)":"b22c9273","unlockCallback(bytes)":"91dd7346"},"id":102}