{"abi":[{"type":"constructor","inputs":[{"name":"_manager","type":"address","internalType":"contract IPoolManager"},{"name":"_uri","type":"string","internalType":"string"},{"name":"_router","type":"address","internalType":"address"},{"name":"_link","type":"address","internalType":"address"}],"stateMutability":"nonpayable"},{"type":"receive","stateMutability":"payable"},{"type":"function","name":"acceptOwnership","inputs":[],"outputs":[],"stateMutability":"nonpayable"},{"type":"function","name":"afterAddLiquidity","inputs":[{"name":"","type":"address","internalType":"address"},{"name":"","type":"tuple","internalType":"struct PoolKey","components":[{"name":"currency0","type":"address","internalType":"Currency"},{"name":"currency1","type":"address","internalType":"Currency"},{"name":"fee","type":"uint24","internalType":"uint24"},{"name":"tickSpacing","type":"int24","internalType":"int24"},{"name":"hooks","type":"address","internalType":"contract IHooks"}]},{"name":"","type":"tuple","internalType":"struct IPoolManager.ModifyLiquidityParams","components":[{"name":"tickLower","type":"int24","internalType":"int24"},{"name":"tickUpper","type":"int24","internalType":"int24"},{"name":"liquidityDelta","type":"int256","internalType":"int256"},{"name":"salt","type":"bytes32","internalType":"bytes32"}]},{"name":"","type":"int256","internalType":"BalanceDelta"},{"name":"","type":"int256","internalType":"BalanceDelta"},{"name":"","type":"bytes","internalType":"bytes"}],"outputs":[{"name":"","type":"bytes4","internalType":"bytes4"},{"name":"","type":"int256","internalType":"BalanceDelta"}],"stateMutability":"nonpayable"},{"type":"function","name":"afterDonate","inputs":[{"name":"","type":"address","internalType":"address"},{"name":"","type":"tuple","internalType":"struct PoolKey","components":[{"name":"currency0","type":"address","internalType":"Currency"},{"name":"currency1","type":"address","internalType":"Currency"},{"name":"fee","type":"uint24","internalType":"uint24"},{"name":"tickSpacing","type":"int24","internalType":"int24"},{"name":"hooks","type":"address","internalType":"contract IHooks"}]},{"name":"","type":"uint256","internalType":"uint256"},{"name":"","type":"uint256","internalType":"uint256"},{"name":"","type":"bytes","internalType":"bytes"}],"outputs":[{"name":"","type":"bytes4","internalType":"bytes4"}],"stateMutability":"nonpayable"},{"type":"function","name":"afterInitialize","inputs":[{"name":"","type":"address","internalType":"address"},{"name":"key","type":"tuple","internalType":"struct PoolKey","components":[{"name":"currency0","type":"address","internalType":"Currency"},{"name":"currency1","type":"address","internalType":"Currency"},{"name":"fee","type":"uint24","internalType":"uint24"},{"name":"tickSpacing","type":"int24","internalType":"int24"},{"name":"hooks","type":"address","internalType":"contract IHooks"}]},{"name":"","type":"uint160","internalType":"uint160"},{"name":"tick","type":"int24","internalType":"int24"},{"name":"","type":"bytes","internalType":"bytes"}],"outputs":[{"name":"","type":"bytes4","internalType":"bytes4"}],"stateMutability":"nonpayable"},{"type":"function","name":"afterRemoveLiquidity","inputs":[{"name":"","type":"address","internalType":"address"},{"name":"","type":"tuple","internalType":"struct PoolKey","components":[{"name":"currency0","type":"address","internalType":"Currency"},{"name":"currency1","type":"address","internalType":"Currency"},{"name":"fee","type":"uint24","internalType":"uint24"},{"name":"tickSpacing","type":"int24","internalType":"int24"},{"name":"hooks","type":"address","internalType":"contract IHooks"}]},{"name":"","type":"tuple","internalType":"struct IPoolManager.ModifyLiquidityParams","components":[{"name":"tickLower","type":"int24","internalType":"int24"},{"name":"tickUpper","type":"int24","internalType":"int24"},{"name":"liquidityDelta","type":"int256","internalType":"int256"},{"name":"salt","type":"bytes32","internalType":"bytes32"}]},{"name":"","type":"int256","internalType":"BalanceDelta"},{"name":"","type":"int256","internalType":"BalanceDelta"},{"name":"","type":"bytes","internalType":"bytes"}],"outputs":[{"name":"","type":"bytes4","internalType":"bytes4"},{"name":"","type":"int256","internalType":"BalanceDelta"}],"stateMutability":"nonpayable"},{"type":"function","name":"afterSwap","inputs":[{"name":"sender","type":"address","internalType":"address"},{"name":"key","type":"tuple","internalType":"struct PoolKey","components":[{"name":"currency0","type":"address","internalType":"Currency"},{"name":"currency1","type":"address","internalType":"Currency"},{"name":"fee","type":"uint24","internalType":"uint24"},{"name":"tickSpacing","type":"int24","internalType":"int24"},{"name":"hooks","type":"address","internalType":"contract IHooks"}]},{"name":"params","type":"tuple","internalType":"struct IPoolManager.SwapParams","components":[{"name":"zeroForOne","type":"bool","internalType":"bool"},{"name":"amountSpecified","type":"int256","internalType":"int256"},{"name":"sqrtPriceLimitX96","type":"uint160","internalType":"uint160"}]},{"name":"","type":"int256","internalType":"BalanceDelta"},{"name":"","type":"bytes","internalType":"bytes"}],"outputs":[{"name":"","type":"bytes4","internalType":"bytes4"},{"name":"","type":"int128","internalType":"int128"}],"stateMutability":"nonpayable"},{"type":"function","name":"allowlistDestinationChain","inputs":[{"name":"_destinationChainSelector","type":"uint64","internalType":"uint64"},{"name":"allowed","type":"bool","internalType":"bool"}],"outputs":[],"stateMutability":"nonpayable"},{"type":"function","name":"allowlistedChains","inputs":[{"name":"","type":"uint64","internalType":"uint64"}],"outputs":[{"name":"","type":"bool","internalType":"bool"}],"stateMutability":"view"},{"type":"function","name":"balanceOf","inputs":[{"name":"account","type":"address","internalType":"address"},{"name":"id","type":"uint256","internalType":"uint256"}],"outputs":[{"name":"","type":"uint256","internalType":"uint256"}],"stateMutability":"view"},{"type":"function","name":"balanceOfBatch","inputs":[{"name":"accounts","type":"address[]","internalType":"address[]"},{"name":"ids","type":"uint256[]","internalType":"uint256[]"}],"outputs":[{"name":"","type":"uint256[]","internalType":"uint256[]"}],"stateMutability":"view"},{"type":"function","name":"beforeAddLiquidity","inputs":[{"name":"","type":"address","internalType":"address"},{"name":"","type":"tuple","internalType":"struct PoolKey","components":[{"name":"currency0","type":"address","internalType":"Currency"},{"name":"currency1","type":"address","internalType":"Currency"},{"name":"fee","type":"uint24","internalType":"uint24"},{"name":"tickSpacing","type":"int24","internalType":"int24"},{"name":"hooks","type":"address","internalType":"contract IHooks"}]},{"name":"","type":"tuple","internalType":"struct IPoolManager.ModifyLiquidityParams","components":[{"name":"tickLower","type":"int24","internalType":"int24"},{"name":"tickUpper","type":"int24","internalType":"int24"},{"name":"liquidityDelta","type":"int256","internalType":"int256"},{"name":"salt","type":"bytes32","internalType":"bytes32"}]},{"name":"","type":"bytes","internalType":"bytes"}],"outputs":[{"name":"","type":"bytes4","internalType":"bytes4"}],"stateMutability":"nonpayable"},{"type":"function","name":"beforeDonate","inputs":[{"name":"","type":"address","internalType":"address"},{"name":"","type":"tuple","internalType":"struct PoolKey","components":[{"name":"currency0","type":"address","internalType":"Currency"},{"name":"currency1","type":"address","internalType":"Currency"},{"name":"fee","type":"uint24","internalType":"uint24"},{"name":"tickSpacing","type":"int24","internalType":"int24"},{"name":"hooks","type":"address","internalType":"contract IHooks"}]},{"name":"","type":"uint256","internalType":"uint256"},{"name":"","type":"uint256","internalType":"uint256"},{"name":"","type":"bytes","internalType":"bytes"}],"outputs":[{"name":"","type":"bytes4","internalType":"bytes4"}],"stateMutability":"nonpayable"},{"type":"function","name":"beforeInitialize","inputs":[{"name":"","type":"address","internalType":"address"},{"name":"","type":"tuple","internalType":"struct PoolKey","components":[{"name":"currency0","type":"address","internalType":"Currency"},{"name":"currency1","type":"address","internalType":"Currency"},{"name":"fee","type":"uint24","internalType":"uint24"},{"name":"tickSpacing","type":"int24","internalType":"int24"},{"name":"hooks","type":"address","internalType":"contract IHooks"}]},{"name":"","type":"uint160","internalType":"uint160"},{"name":"","type":"bytes","internalType":"bytes"}],"outputs":[{"name":"","type":"bytes4","internalType":"bytes4"}],"stateMutability":"nonpayable"},{"type":"function","name":"beforeRemoveLiquidity","inputs":[{"name":"","type":"address","internalType":"address"},{"name":"","type":"tuple","internalType":"struct PoolKey","components":[{"name":"currency0","type":"address","internalType":"Currency"},{"name":"currency1","type":"address","internalType":"Currency"},{"name":"fee","type":"uint24","internalType":"uint24"},{"name":"tickSpacing","type":"int24","internalType":"int24"},{"name":"hooks","type":"address","internalType":"contract IHooks"}]},{"name":"","type":"tuple","internalType":"struct IPoolManager.ModifyLiquidityParams","components":[{"name":"tickLower","type":"int24","internalType":"int24"},{"name":"tickUpper","type":"int24","internalType":"int24"},{"name":"liquidityDelta","type":"int256","internalType":"int256"},{"name":"salt","type":"bytes32","internalType":"bytes32"}]},{"name":"","type":"bytes","internalType":"bytes"}],"outputs":[{"name":"","type":"bytes4","internalType":"bytes4"}],"stateMutability":"nonpayable"},{"type":"function","name":"beforeSwap","inputs":[{"name":"","type":"address","internalType":"address"},{"name":"","type":"tuple","internalType":"struct PoolKey","components":[{"name":"currency0","type":"address","internalType":"Currency"},{"name":"currency1","type":"address","internalType":"Currency"},{"name":"fee","type":"uint24","internalType":"uint24"},{"name":"tickSpacing","type":"int24","internalType":"int24"},{"name":"hooks","type":"address","internalType":"contract IHooks"}]},{"name":"","type":"tuple","internalType":"struct IPoolManager.SwapParams","components":[{"name":"zeroForOne","type":"bool","internalType":"bool"},{"name":"amountSpecified","type":"int256","internalType":"int256"},{"name":"sqrtPriceLimitX96","type":"uint160","internalType":"uint160"}]},{"name":"","type":"bytes","internalType":"bytes"}],"outputs":[{"name":"","type":"bytes4","internalType":"bytes4"},{"name":"","type":"int256","internalType":"BeforeSwapDelta"},{"name":"","type":"uint24","internalType":"uint24"}],"stateMutability":"nonpayable"},{"type":"function","name":"cancelOrder","inputs":[{"name":"key","type":"tuple","internalType":"struct PoolKey","components":[{"name":"currency0","type":"address","internalType":"Currency"},{"name":"currency1","type":"address","internalType":"Currency"},{"name":"fee","type":"uint24","internalType":"uint24"},{"name":"tickSpacing","type":"int24","internalType":"int24"},{"name":"hooks","type":"address","internalType":"contract IHooks"}]},{"name":"tickToSellAt","type":"int24","internalType":"int24"},{"name":"zeroForOne","type":"bool","internalType":"bool"}],"outputs":[],"stateMutability":"nonpayable"},{"type":"function","name":"claimTokensSupply","inputs":[{"name":"positionId","type":"uint256","internalType":"uint256"}],"outputs":[{"name":"claimsSupply","type":"uint256","internalType":"uint256"}],"stateMutability":"view"},{"type":"function","name":"claimableOutputTokens","inputs":[{"name":"positionId","type":"uint256","internalType":"uint256"}],"outputs":[{"name":"outputClaimable","type":"uint256","internalType":"uint256"}],"stateMutability":"view"},{"type":"function","name":"getClaimSupplyAmount","inputs":[{"name":"key","type":"tuple","internalType":"struct PoolKey","components":[{"name":"currency0","type":"address","internalType":"Currency"},{"name":"currency1","type":"address","internalType":"Currency"},{"name":"fee","type":"uint24","internalType":"uint24"},{"name":"tickSpacing","type":"int24","internalType":"int24"},{"name":"hooks","type":"address","internalType":"contract IHooks"}]},{"name":"tick","type":"int24","internalType":"int24"},{"name":"zeroForOne","type":"bool","internalType":"bool"}],"outputs":[{"name":"","type":"uint256","internalType":"uint256"}],"stateMutability":"view"},{"type":"function","name":"getClaimableOutputAmount","inputs":[{"name":"key","type":"tuple","internalType":"struct PoolKey","components":[{"name":"currency0","type":"address","internalType":"Currency"},{"name":"currency1","type":"address","internalType":"Currency"},{"name":"fee","type":"uint24","internalType":"uint24"},{"name":"tickSpacing","type":"int24","internalType":"int24"},{"name":"hooks","type":"address","internalType":"contract IHooks"}]},{"name":"tick","type":"int24","internalType":"int24"},{"name":"zeroForOne","type":"bool","internalType":"bool"}],"outputs":[{"name":"","type":"uint256","internalType":"uint256"}],"stateMutability":"view"},{"type":"function","name":"getHookPermissions","inputs":[],"outputs":[{"name":"","type":"tuple","internalType":"struct Hooks.Permissions","components":[{"name":"beforeInitialize","type":"bool","internalType":"bool"},{"name":"afterInitialize","type":"bool","internalType":"bool"},{"name":"beforeAddLiquidity","type":"bool","internalType":"bool"},{"name":"afterAddLiquidity","type":"bool","internalType":"bool"},{"name":"beforeRemoveLiquidity","type":"bool","internalType":"bool"},{"name":"afterRemoveLiquidity","type":"bool","internalType":"bool"},{"name":"beforeSwap","type":"bool","internalType":"bool"},{"name":"afterSwap","type":"bool","internalType":"bool"},{"name":"beforeDonate","type":"bool","internalType":"bool"},{"name":"afterDonate","type":"bool","internalType":"bool"},{"name":"beforeSwapReturnDelta","type":"bool","internalType":"bool"},{"name":"afterSwapReturnDelta","type":"bool","internalType":"bool"},{"name":"afterAddLiquidityReturnDelta","type":"bool","internalType":"bool"},{"name":"afterRemoveLiquidityReturnDelta","type":"bool","internalType":"bool"}]}],"stateMutability":"pure"},{"type":"function","name":"getPositionId","inputs":[{"name":"key","type":"tuple","internalType":"struct PoolKey","components":[{"name":"currency0","type":"address","internalType":"Currency"},{"name":"currency1","type":"address","internalType":"Currency"},{"name":"fee","type":"uint24","internalType":"uint24"},{"name":"tickSpacing","type":"int24","internalType":"int24"},{"name":"hooks","type":"address","internalType":"contract IHooks"}]},{"name":"tick","type":"int24","internalType":"int24"},{"name":"zeroForOne","type":"bool","internalType":"bool"}],"outputs":[{"name":"","type":"uint256","internalType":"uint256"}],"stateMutability":"pure"},{"type":"function","name":"isApprovedForAll","inputs":[{"name":"account","type":"address","internalType":"address"},{"name":"operator","type":"address","internalType":"address"}],"outputs":[{"name":"","type":"bool","internalType":"bool"}],"stateMutability":"view"},{"type":"function","name":"lastTicks","inputs":[{"name":"poolId","type":"bytes32","internalType":"PoolId"}],"outputs":[{"name":"lastTick","type":"int24","internalType":"int24"}],"stateMutability":"view"},{"type":"function","name":"owner","inputs":[],"outputs":[{"name":"","type":"address","internalType":"address"}],"stateMutability":"view"},{"type":"function","name":"pendingOrders","inputs":[{"name":"poolId","type":"bytes32","internalType":"PoolId"},{"name":"tickToSellAt","type":"int24","internalType":"int24"},{"name":"zeroForOne","type":"bool","internalType":"bool"}],"outputs":[{"name":"inputAmount","type":"uint256","internalType":"uint256"}],"stateMutability":"view"},{"type":"function","name":"placeOrder","inputs":[{"name":"key","type":"tuple","internalType":"struct PoolKey","components":[{"name":"currency0","type":"address","internalType":"Currency"},{"name":"currency1","type":"address","internalType":"Currency"},{"name":"fee","type":"uint24","internalType":"uint24"},{"name":"tickSpacing","type":"int24","internalType":"int24"},{"name":"hooks","type":"address","internalType":"contract IHooks"}]},{"name":"tickToSellAt","type":"int24","internalType":"int24"},{"name":"zeroForOne","type":"bool","internalType":"bool"},{"name":"inputAmount","type":"uint256","internalType":"uint256"}],"outputs":[{"name":"","type":"int24","internalType":"int24"}],"stateMutability":"nonpayable"},{"type":"function","name":"poolManager","inputs":[],"outputs":[{"name":"","type":"address","internalType":"contract IPoolManager"}],"stateMutability":"view"},{"type":"function","name":"redeem","inputs":[{"name":"key","type":"tuple","internalType":"struct PoolKey","components":[{"name":"currency0","type":"address","internalType":"Currency"},{"name":"currency1","type":"address","internalType":"Currency"},{"name":"fee","type":"uint24","internalType":"uint24"},{"name":"tickSpacing","type":"int24","internalType":"int24"},{"name":"hooks","type":"address","internalType":"contract IHooks"}]},{"name":"tickToSellAt","type":"int24","internalType":"int24"},{"name":"zeroForOne","type":"bool","internalType":"bool"},{"name":"inputAmountToClaimFor","type":"uint256","internalType":"uint256"},{"name":"destinationChainSelector","type":"uint64","internalType":"uint64"}],"outputs":[],"stateMutability":"nonpayable"},{"type":"function","name":"safeBatchTransferFrom","inputs":[{"name":"from","type":"address","internalType":"address"},{"name":"to","type":"address","internalType":"address"},{"name":"ids","type":"uint256[]","internalType":"uint256[]"},{"name":"values","type":"uint256[]","internalType":"uint256[]"},{"name":"data","type":"bytes","internalType":"bytes"}],"outputs":[],"stateMutability":"nonpayable"},{"type":"function","name":"safeTransferFrom","inputs":[{"name":"from","type":"address","internalType":"address"},{"name":"to","type":"address","internalType":"address"},{"name":"id","type":"uint256","internalType":"uint256"},{"name":"value","type":"uint256","internalType":"uint256"},{"name":"data","type":"bytes","internalType":"bytes"}],"outputs":[],"stateMutability":"nonpayable"},{"type":"function","name":"setApprovalForAll","inputs":[{"name":"operator","type":"address","internalType":"address"},{"name":"approved","type":"bool","internalType":"bool"}],"outputs":[],"stateMutability":"nonpayable"},{"type":"function","name":"supportsInterface","inputs":[{"name":"interfaceId","type":"bytes4","internalType":"bytes4"}],"outputs":[{"name":"","type":"bool","internalType":"bool"}],"stateMutability":"view"},{"type":"function","name":"transferOwnership","inputs":[{"name":"to","type":"address","internalType":"address"}],"outputs":[],"stateMutability":"nonpayable"},{"type":"function","name":"transferTokensPayLINK","inputs":[{"name":"_destinationChainSelector","type":"uint64","internalType":"uint64"},{"name":"_receiver","type":"address","internalType":"address"},{"name":"_token","type":"address","internalType":"address"},{"name":"_amount","type":"uint256","internalType":"uint256"}],"outputs":[{"name":"messageId","type":"bytes32","internalType":"bytes32"}],"stateMutability":"nonpayable"},{"type":"function","name":"transferTokensPayNative","inputs":[{"name":"_destinationChainSelector","type":"uint64","internalType":"uint64"},{"name":"_receiver","type":"address","internalType":"address"},{"name":"_token","type":"address","internalType":"address"},{"name":"_amount","type":"uint256","internalType":"uint256"}],"outputs":[{"name":"messageId","type":"bytes32","internalType":"bytes32"}],"stateMutability":"nonpayable"},{"type":"function","name":"unlockCallback","inputs":[{"name":"data","type":"bytes","internalType":"bytes"}],"outputs":[{"name":"","type":"bytes","internalType":"bytes"}],"stateMutability":"nonpayable"},{"type":"function","name":"uri","inputs":[{"name":"","type":"uint256","internalType":"uint256"}],"outputs":[{"name":"","type":"string","internalType":"string"}],"stateMutability":"view"},{"type":"function","name":"withdraw","inputs":[{"name":"_beneficiary","type":"address","internalType":"address"}],"outputs":[],"stateMutability":"nonpayable"},{"type":"function","name":"withdrawToken","inputs":[{"name":"_beneficiary","type":"address","internalType":"address"},{"name":"_token","type":"address","internalType":"address"}],"outputs":[],"stateMutability":"nonpayable"},{"type":"event","name":"ApprovalForAll","inputs":[{"name":"account","type":"address","indexed":true,"internalType":"address"},{"name":"operator","type":"address","indexed":true,"internalType":"address"},{"name":"approved","type":"bool","indexed":false,"internalType":"bool"}],"anonymous":false},{"type":"event","name":"OrderPlaced","inputs":[{"name":"currency0","type":"address","indexed":false,"internalType":"Currency"},{"name":"currency1","type":"address","indexed":false,"internalType":"Currency"},{"name":"fee","type":"uint24","indexed":false,"internalType":"uint24"},{"name":"tickSpacing","type":"int24","indexed":false,"internalType":"int24"},{"name":"hooks","type":"address","indexed":false,"internalType":"contract IHooks"},{"name":"tickToSellAt","type":"int24","indexed":false,"internalType":"int24"},{"name":"zeroForOne","type":"bool","indexed":false,"internalType":"bool"},{"name":"inputAmount","type":"uint256","indexed":false,"internalType":"uint256"},{"name":"sender","type":"address","indexed":false,"internalType":"address"}],"anonymous":false},{"type":"event","name":"OwnershipTransferRequested","inputs":[{"name":"from","type":"address","indexed":true,"internalType":"address"},{"name":"to","type":"address","indexed":true,"internalType":"address"}],"anonymous":false},{"type":"event","name":"OwnershipTransferred","inputs":[{"name":"from","type":"address","indexed":true,"internalType":"address"},{"name":"to","type":"address","indexed":true,"internalType":"address"}],"anonymous":false},{"type":"event","name":"TokensTransferred","inputs":[{"name":"messageId","type":"bytes32","indexed":true,"internalType":"bytes32"},{"name":"destinationChainSelector","type":"uint64","indexed":true,"internalType":"uint64"},{"name":"receiver","type":"address","indexed":false,"internalType":"address"},{"name":"token","type":"address","indexed":false,"internalType":"address"},{"name":"tokenAmount","type":"uint256","indexed":false,"internalType":"uint256"},{"name":"feeToken","type":"address","indexed":false,"internalType":"address"},{"name":"fees","type":"uint256","indexed":false,"internalType":"uint256"}],"anonymous":false},{"type":"event","name":"TransferBatch","inputs":[{"name":"operator","type":"address","indexed":true,"internalType":"address"},{"name":"from","type":"address","indexed":true,"internalType":"address"},{"name":"to","type":"address","indexed":true,"internalType":"address"},{"name":"ids","type":"uint256[]","indexed":false,"internalType":"uint256[]"},{"name":"values","type":"uint256[]","indexed":false,"internalType":"uint256[]"}],"anonymous":false},{"type":"event","name":"TransferSingle","inputs":[{"name":"operator","type":"address","indexed":true,"internalType":"address"},{"name":"from","type":"address","indexed":true,"internalType":"address"},{"name":"to","type":"address","indexed":true,"internalType":"address"},{"name":"id","type":"uint256","indexed":false,"internalType":"uint256"},{"name":"value","type":"uint256","indexed":false,"internalType":"uint256"}],"anonymous":false},{"type":"event","name":"URI","inputs":[{"name":"value","type":"string","indexed":false,"internalType":"string"},{"name":"id","type":"uint256","indexed":true,"internalType":"uint256"}],"anonymous":false},{"type":"error","name":"DestinationChainNotAllowlisted","inputs":[{"name":"destinationChainSelector","type":"uint64","internalType":"uint64"}]},{"type":"error","name":"ERC1155InsufficientBalance","inputs":[{"name":"sender","type":"address","internalType":"address"},{"name":"balance","type":"uint256","internalType":"uint256"},{"name":"needed","type":"uint256","internalType":"uint256"},{"name":"tokenId","type":"uint256","internalType":"uint256"}]},{"type":"error","name":"ERC1155InvalidApprover","inputs":[{"name":"approver","type":"address","internalType":"address"}]},{"type":"error","name":"ERC1155InvalidArrayLength","inputs":[{"name":"idsLength","type":"uint256","internalType":"uint256"},{"name":"valuesLength","type":"uint256","internalType":"uint256"}]},{"type":"error","name":"ERC1155InvalidOperator","inputs":[{"name":"operator","type":"address","internalType":"address"}]},{"type":"error","name":"ERC1155InvalidReceiver","inputs":[{"name":"receiver","type":"address","internalType":"address"}]},{"type":"error","name":"ERC1155InvalidSender","inputs":[{"name":"sender","type":"address","internalType":"address"}]},{"type":"error","name":"ERC1155MissingApprovalForAll","inputs":[{"name":"operator","type":"address","internalType":"address"},{"name":"owner","type":"address","internalType":"address"}]},{"type":"error","name":"FailedToWithdrawEth","inputs":[{"name":"owner","type":"address","internalType":"address"},{"name":"target","type":"address","internalType":"address"},{"name":"value","type":"uint256","internalType":"uint256"}]},{"type":"error","name":"HookNotImplemented","inputs":[]},{"type":"error","name":"InvalidOrder","inputs":[]},{"type":"error","name":"InvalidPool","inputs":[]},{"type":"error","name":"InvalidReceiverAddress","inputs":[]},{"type":"error","name":"LockFailure","inputs":[]},{"type":"error","name":"NotEnoughBalance","inputs":[{"name":"currentBalance","type":"uint256","internalType":"uint256"},{"name":"calculatedFees","type":"uint256","internalType":"uint256"}]},{"type":"error","name":"NotEnoughToClaim","inputs":[]},{"type":"error","name":"NotPoolManager","inputs":[]},{"type":"error","name":"NotSelf","inputs":[]},{"type":"error","name":"NothingToClaim","inputs":[]},{"type":"error","name":"NothingToWithdraw","inputs":[]}],"bytecode":{"object":"0x60a0604052346104cd57613dd280380380610019816104f1565b9283398101906080818303126104cd578051906001600160a01b03821682036104cd5760208101516001600160401b0381116104cd57810183601f820112156104cd578051906001600160401b0382116103fd57610080601f8301601f19166020016104f1565b94828652602083830101116104cd57815f9260208093018388015e850101526100b760606100b060408401610516565b9201610516565b916080525f6101a06100c76104d1565b8281528260208201528260408201528260608201528260808201528260a08201528260c08201528260e0820152826101008201528261012082015282610140820152826101608201528261018082015201525f6101a06101256104d1565b828152600160208201528260408201528260608201528260808201528260a08201528260c0820152600160e0820152826101008201528261012082015282610140820152826101608201528261018082015201526120003016158015906104bc575b80156104af575b80156104a2575b8015610495575b8015610488575b801561047c575b801561046c575b8015610460575b8015610454575b8015610448575b801561043c575b8015610430575b8015610424575b6104115782516001600160401b0381116103fd57600254600181811c911680156103f3575b60208210146103df57601f811161037c575b506020601f821160011461031957819293945f9261030e575b50508160011b915f199060031b1c1916176002555b33156102c957600380546001600160a01b031990811633179091556006805482166001600160a01b0393841617905560078054909116929091169190911790556040516138a7908161052b823960805181818161138c015281816116be0152818161178401528181611a0c01528181612cd7015281816135350152818161367f015261375c0152f35b60405162461bcd60e51b815260206004820152601860248201527f43616e6e6f7420736574206f776e657220746f207a65726f00000000000000006044820152606490fd5b015190505f8061022b565b601f1982169060025f52805f20915f5b8181106103645750958360019596971061034c575b505050811b01600255610240565b01515f1960f88460031b161c191690555f808061033e565b9192602060018192868b015181550194019201610329565b60025f527f405787fa12a823e0f2b7631cc41b3ba8828b3321ca811111fa75cd3aa3bb5ace601f830160051c810191602084106103d5575b601f0160051c01905b8181106103ca5750610212565b5f81556001016103bd565b90915081906103b4565b634e487b7160e01b5f52602260045260245ffd5b90607f1690610200565b634e487b7160e01b5f52604160045260245ffd5b630732d7b560e51b5f523060045260245ffd5b506001301615156101db565b506002301615156101d4565b506004301615156101cd565b506008301615156101c6565b506010301615156101bf565b506020301615156101b8565b50604030161515600114156101b1565b506080301615156101aa565b50610100301615156101a3565b506102003016151561019c565b5061040030161515610195565b506108003016151561018e565b506110003016151560011415610187565b5f80fd5b604051906101c082016001600160401b038111838210176103fd57604052565b6040519190601f01601f191682016001600160401b038111838210176103fd57604052565b51906001600160a01b03821682036104cd5756fe6080604052600436101561001a575b3615610018575f80fd5b005b5f3560e01c8062fdd58e1461028957806301ffc9a7146102845780630bb106eb1461027f5780630e89341c1461027a57806321d0ee7014610275578063259982e5146102755780632eb2c2d6146102705780633440d8201461026b5780633aeac4e1146102665780633bb76cc1146102615780634e1273f41461025c57806351419b4b1461025757806351cff8d914610252578063575e24b41461024d5780636c2bbe7e1461022557806379ba5097146102485780637e8941af14610243578063872d40001461023e5780638da5cb5b1461023957806391dd73461461023457806395e1402c1461022f57806396d3b83d1461022a5780639f063efc14610225578063a0dc3f9914610220578063a22cb4651461021b578063a2dc31b214610216578063a910f80f14610211578063b47b2fb11461020c578063b5a3391414610207578063b6a8b0fa146101f8578063c4e833ce14610202578063dc4c90d3146101fd578063e1b4af69146101f8578063e40997d1146101f3578063e4cbfea5146101ee578063e985e9c5146101e9578063f242432a146101e4578063f2fde38b146101df578063fa59cb0c146101da5763ffe2ec0d0361000e57611cdf565b611ccc565b611bf2565b611ad5565b611a8a565b611a5d565b611a30565b6117fe565b6119ed565b611905565b6117d4565b611726565b611654565b611605565b61154e565b61148c565b610de9565b611406565b6113e2565b611350565b61132a565b6111a9565b610f44565b610e4a565b610d97565b610d1e565b610a8f565b61098b565b61091d565b61087a565b6107f2565b61075d565b610559565b610415565b61039f565b610302565b6102a3565b6001600160a01b0381160361029f57565b5f80fd5b3461029f57604036600319011261029f5760206102e76004356102c58161028e565b6024355f525f835260405f20906001600160a01b03165f5260205260405f2090565b54604051908152f35b6001600160e01b031981160361029f57565b3461029f57602036600319011261029f576020600435610321816102f0565b63ffffffff60e01b16636cdb3d1360e11b811490811561035f575b811561034e575b506040519015158152f35b6301ffc9a760e01b1490505f610343565b6303a24d0760e21b8114915061033c565b6004359067ffffffffffffffff8216820361029f57565b610104359067ffffffffffffffff8216820361029f57565b3461029f57602036600319011261029f5767ffffffffffffffff6103c1610370565b165f526005602052602060ff60405f2054166040519015158152f35b805180835260209291819084018484015e5f828201840152601f01601f1916010190565b9060206104129281815201906103dd565b90565b3461029f57602036600319011261029f576040515f6002548060011c90600181169081156104ff575b6020831082146104eb5782855260208501919081156104d25750600114610480575b61047c8461047081860382610616565b60405191829182610401565b0390f35b60025f9081529250907f405787fa12a823e0f2b7631cc41b3ba8828b3321ca811111fa75cd3aa3bb5ace5b8184106104be5750500161047082610460565b8054848401526020909301926001016104ab565b60ff191682525090151560051b01905061047082610460565b634e487b7160e01b5f52602260045260245ffd5b91607f169161043e565b60a090602319011261029f57602490565b60a090600319011261029f57600490565b9181601f8401121561029f5782359167ffffffffffffffff831161029f576020838186019501011161029f57565b3461029f5761016036600319011261029f576004356105778161028e565b5060a036602319011261029f5760803660c319011261029f576101443567ffffffffffffffff811161029f576105b190369060040161052b565b5050630a85dc2960e01b5f908152600490fd5b634e487b7160e01b5f52604160045260245ffd5b6101c0810190811067ffffffffffffffff8211176105f557604052565b6105c4565b60a0810190811067ffffffffffffffff8211176105f557604052565b90601f8019910116810190811067ffffffffffffffff8211176105f557604052565b604051906106486101c083610616565b565b60405190610648604083610616565b60405190610648602083610616565b6040519061064860a083610616565b60405190610648606083610616565b67ffffffffffffffff81116105f55760051b60200190565b9080601f8301121561029f5781356106b581610686565b926106c36040519485610616565b81845260208085019260051b82010192831161029f57602001905b8282106106eb5750505090565b81358152602091820191016106de565b67ffffffffffffffff81116105f557601f01601f191660200190565b81601f8201121561029f5780359061072e826106fb565b9261073c6040519485610616565b8284526020838301011161029f57815f926020809301838601378301015290565b3461029f5760a036600319011261029f5760043561077a8161028e565b602435906107878261028e565b60443567ffffffffffffffff811161029f576107a790369060040161069e565b60643567ffffffffffffffff811161029f576107c790369060040161069e565b906084359367ffffffffffffffff851161029f576107ec610018953690600401610717565b93611d2e565b3461029f5761010036600319011261029f5761080f60043561028e565b61081836610509565b5061082460c43561028e565b60e43567ffffffffffffffff811161029f5761084490369060040161052b565b5050630a85dc2960e01b5f5260045ffd5b604090600319011261029f5760043561086d8161028e565b906024356104128161028e565b3461029f576001600160a01b0361089036610855565b61089b9291926124cf565b6040516370a0823160e01b8152306004820152911691602082602481865afa918215610918575f926108e7575b5081156108d85761001892612528565b630686827b60e51b5f5260045ffd5b61090a91925060203d602011610911575b6109028183610616565b810190611d98565b905f6108c8565b503d6108f8565b611da7565b3461029f57602036600319011261029f576004355f52600a602052602060405f2054604051908152f35b90602080835192838152019201905f5b8181106109645750505090565b8251845260209384019390920191600101610957565b906020610412928181520190610947565b3461029f57604036600319011261029f5760043567ffffffffffffffff811161029f573660238201121561029f578060040135906109c882610686565b916109d66040519384610616565b8083526024602084019160051b8301019136831161029f57602401905b828210610a34578360243567ffffffffffffffff811161029f5761047c91610a22610a2892369060040161069e565b90611dec565b6040519182918261097a565b602080918335610a438161028e565b8152019101906109f3565b608090600319011261029f5760043567ffffffffffffffff8116810361029f5790602435610a7b8161028e565b90604435610a888161028e565b9060643590565b3461029f57610a9d36610a4e565b9190610aa76124cf565b67ffffffffffffffff841691825f52600560205260ff60405f20541615610d0b576001600160a01b03811615610cfc57610ae28483836126b2565b610b03610af76006546001600160a01b031690565b6001600160a01b031690565b95604051916320487ded60e01b835260208380610b24848660048401611e81565b03818b5afa928315610918575f93610cdb575b50478311610cc05760405163095ea7b360e01b81526001600160a01b03909816600489015260248801879052602088806044810103815f6001600160a01b038a165af191821561091857610bc198602093610c95575b50610ba3610af76006546001600160a01b031690565b9084604051809b819582946396f4e9f960e01b845260048401611e81565b03925af19485156109185761047c965f96610c48575b5091610c358694927fc15fb748c32ba4eb29c1c311e78533f93b4425eab49ea87c6fe4279ecadca0439460405194859485909493926001600160a01b036080938160a085019816845216602083015260408201525f60608201520152565b0390a36040519081529081906020820190565b7fc15fb748c32ba4eb29c1c311e78533f93b4425eab49ea87c6fe4279ecadca043939194929650610c8a610c359160203d602011610911576109028183610616565b969294919350610bd7565b610cb490843d8611610cb9575b610cac8183610616565b810190611f54565b610b8d565b503d610ca2565b634787a10360e11b5f5247600452602483905260445ffd5b5ffd5b610cf591935060203d602011610911576109028183610616565b915f610b37565b63502ffa3f60e11b5f5260045ffd5b82630a503cdb60e01b5f5260045260245ffd5b3461029f57602036600319011261029f57600435610d3b8161028e565b610d436124cf565b479081156108d8575f80808085855af1610d5b611f7d565b5015610d6357005b6001600160a01b0390639d11f56360e01b5f52336004521660245260445260645ffd5b60609060c319011261029f5760c490565b3461029f5761014036600319011261029f57610db460043561028e565b610dbd36610509565b50610dc736610d86565b506101243567ffffffffffffffff811161029f5761084490369060040161052b565b3461029f576101a036600319011261029f57600435610e078161028e565b5060a036602319011261029f57608060c436031261029f576101843567ffffffffffffffff811161029f576105b190369060040161052b565b5f91031261029f57565b3461029f575f36600319011261029f576001600160a01b03600454163303610eea576003546001600160a01b03166003805473ffffffffffffffffffffffffffffffffffffffff191633179055610eb973ffffffffffffffffffffffffffffffffffffffff1960045416600455565b6001600160a01b033391167f8be0079c531659141344cd1fd0a4f28419497f9722a3daafe3b4186f6b6457e05f80a3005b60405162461bcd60e51b815260206004820152601660248201527f4d7573742062652070726f706f736564206f776e6572000000000000000000006044820152606490fd5b8060020b0361029f57565b8015150361029f57565b3461029f5761010036600319011261029f57610f5f3661051a565b60a43590610f6c82610f2f565b60c43591610f7983610f3a565b60e435916060810190610f94610f8e83611fac565b8461284b565b93610fe186610fd287610fc2610fb4610fad3689611fc3565b60a0902090565b5f52600860205260405f2090565b9060020b5f5260205260405f2090565b9015155f5260205260405f2090565b610fec82825461204a565b905561102b610ffc878785612491565b61100e815f52600960205260405f2090565b61101984825461204a565b905582611024611f69565b91336128ca565b85156111945761103d610af78361205c565b935b6040516323b872dd60e01b81523360048201523060248201526044810183905294602090869060649082905f906001600160a01b03165af19182156109185761047c977ffe7473324d2b1731cf14a118591c75deb661ce7a804f30d2d0f2b4b72087a8689661115f94611177575b506110b78561205c565b926110c46020870161205c565b956110e660806110df6110d960408501612066565b9a611fac565b920161205c565b9060405198899833978a979593919998969492909961012089019a6001600160a01b031689526001600160a01b0316602089015262ffffff16604088015260020b60608701526001600160a01b0316608086015260020b60a0850152151560c084015260e08301526001600160a01b0316906101000152565b0390a160405160029190910b81529081906020820190565b61118f9060203d602011610cb957610cac8183610616565b6110ad565b6111a3610af76020840161205c565b9361103f565b3461029f5761012036600319011261029f576111c43661051a565b60a435906111d182610f2f565b60c435916111de83610f3a565b60e435611209846112036111f0610387565b946111fd60608801611fac565b9061284b565b85612491565b9261121c845f52600a60205260405f2090565b541561131b578161124e33611238875f525f60205260405f2090565b906001600160a01b03165f5260205260405f2090565b541061130c57610018946112d96001600160a01b0393611294611279885f52600a60205260405f2090565b5461128c895f52600960205260405f2090565b549083612a23565b966112a7815f52600a60205260405f2090565b6112b2898254612070565b90556112c6815f52600960205260405f2090565b6112d1838254612070565b905533612a38565b156112fe5760206112ea910161205c565b6112f5843383612bb5565b1690339061207d565b6113079061205c565b6112ea565b639378648960e01b5f5260045ffd5b6312d37ee560e31b5f5260045ffd5b3461029f575f36600319011261029f5760206001600160a01b0360035416604051908152f35b3461029f57602036600319011261029f5760043567ffffffffffffffff811161029f5761138190369060040161052b565b906001600160a01b037f00000000000000000000000000000000000000000000000000000000000000001633036113d35761047c916113bf91612c42565b6040519182916020835260208301906103dd565b63570c108560e11b5f5260045ffd5b3461029f5760206113fe6113f536610a4e565b9291909161207d565b604051908152f35b3461029f57604036600319011261029f57610018611422610370565b67ffffffffffffffff6024359161143883610f3a565b6114406124cf565b165f52600560205260405f209060ff801983541691151516179055565b6003190160e0811261029f5760a01361029f5760049060a43561147f81610f2f565b9060c43561041281610f3a565b3461029f576114b461149d3661145d565b9192906060840135906114af82610f2f565b61284b565b916114c0828483612491565b91825f525f6020526114e63360405f20906001600160a01b03165f5260205260405f2090565b5492831561153f57836115199161150e84610fd261001899610fc2610fb4610fad368c611fc3565b6112b2838254612070565b1561152e576115279061205c565b3390612bb5565b602061153a910161205c565b611527565b63af61069360e01b5f5260045ffd5b3461029f57604036600319011261029f5760043561156b8161028e565b60243561157781610f3a565b6001600160a01b0382169182156115f357816115b26115c392335f52600160205260405f20906001600160a01b03165f5260205260405f2090565b9060ff801983541691151516179055565b60405190151581527f17307eab39ab6107e8899845ad3d59bd9653f200f220920489ca2b5937696c3160203392a3005b62ced3e160e81b5f525f60045260245ffd5b3461029f57606036600319011261029f5760206102e7600435610fd260243561162d81610f2f565b6044359261163a84610f3a565b5f526008855260405f209060020b5f5260205260405f2090565b3461029f5761012036600319011261029f5761167160043561028e565b61167a36610509565b61168560c43561028e565b60e43561169181610f2f565b6101043567ffffffffffffffff811161029f576116b290369060040161052b565b50506001600160a01b037f00000000000000000000000000000000000000000000000000000000000000001633036113d35760a06116f4611714933690611fc3565b205f52600b60205260405f209062ffffff198254169062ffffff16179055565b60405163a910f80f60e01b8152602090f35b3461029f5761016036600319011261029f576004356117448161028e565b61174d36610509565b61175636610d86565b906101443567ffffffffffffffff811161029f5761177890369060040161052b565b50506001600160a01b037f00000000000000000000000000000000000000000000000000000000000000001633036113d3576117b392612407565b604080516001600160e01b0319939093168352600f9190910b602083015290f35b3461029f57602036600319011261029f576004355f526009602052602060405f2054604051908152f35b3461029f5761012036600319011261029f5760043561181c8161028e565b5060a036602319011261029f576101043567ffffffffffffffff811161029f576105b190369060040161052b565b610648909291926101a0806101c083019561186784825115159052565b60208181015115159085015260408181015115159085015260608181015115159085015260808181015115159085015260a08181015115159085015260c08181015115159085015260e081810151151590850152610100818101511515908501526101208181015115159085015261014081810151151590850152610160818101511515908501526101808181015115159085015201511515910152565b3461029f575f36600319011261029f575f6101a0604051611925816105d8565b8281528260208201528260408201528260608201528260808201528260a08201528260c08201528260e08201528261010082015282610120820152826101408201528261016082015282610180820152015261047c611982610638565b5f8152600160208201525f60408201525f60608201525f60808201525f60a08201525f60c08201526119b760e0820160019052565b5f6101008201525f6101208201525f6101408201525f6101608201525f6101808201525f6101a08201526040519182918261184a565b3461029f575f36600319011261029f5760206040516001600160a01b037f0000000000000000000000000000000000000000000000000000000000000000168152f35b3461029f57611a47611a413661145d565b91612491565b5f52600a602052602060405f2054604051908152f35b3461029f57602036600319011261029f576004355f52600b602052602060405f205460020b604051908152f35b3461029f57602060ff611ac96001600160a01b03611aa736610855565b91165f526001845260405f20906001600160a01b03165f5260205260405f2090565b54166040519015158152f35b3461029f5760a036600319011261029f57600435611af28161028e565b602435611afe8161028e565b604435906064359260843567ffffffffffffffff811161029f57611b26903690600401610717565b926001600160a01b0382163381141580611bc1575b611bab576001600160a01b03841615611b985715611b865761001894611b7e60405192600184526020840152604083019160018352606084015260808301604052565b929091612de9565b626a0d4560e21b5f525f60045260245ffd5b632bfa23e760e11b5f525f60045260245ffd5b63711bec9160e11b5f523360045260245260445ffd5b50805f52600160205260ff611bea3360405f20906001600160a01b03165f5260205260405f2090565b541615611b3b565b3461029f57602036600319011261029f576001600160a01b03600435611c178161028e565b611c1f6124cf565b16338114611c87578073ffffffffffffffffffffffffffffffffffffffff1960045416176004556001600160a01b03611c606003546001600160a01b031690565b167fed8889f560326eb138920d842192f0eb3dd22b4f139c87a2c57538e05bae12785f80a3005b60405162461bcd60e51b815260206004820152601760248201527f43616e6e6f74207472616e7366657220746f2073656c660000000000000000006044820152606490fd5b3461029f5760206113fe611a413661145d565b3461029f57611cf0611a413661145d565b5f526009602052602060405f2054604051908152f35b611d2a915f525f60205260405f20906001600160a01b03165f5260205260405f2090565b5490565b939291906001600160a01b0385163381141580611d67575b611bab576001600160a01b03821615611b985715611b865761064894612de9565b50805f52600160205260ff611d903360405f20906001600160a01b03165f5260205260405f2090565b541615611d46565b9081602091031261029f575190565b6040513d5f823e3d90fd5b634e487b7160e01b5f52603260045260245ffd5b805115611dd35760200190565b611db2565b8051821015611dd35760209160051b010190565b91909180518351808203611e6c575050805190611e0882610686565b91611e166040519384610616565b808352611e25601f1991610686565b013660208401375f5b8151811015611e655780611e5460019260051b6020808287010151918901015190611d06565b611e5e8286611dd8565b5201611e2e565b5090925050565b635b05999160e01b5f5260045260245260445ffd5b9067ffffffffffffffff9093929316815260406020820152611ec8611eb2845160a0604085015260e08401906103dd565b6020850151838203603f190160608501526103dd565b90604084015191603f19828203016080830152602080845192838152019301905f5b818110611f2957505050608084611f1560606104129697015160a08501906001600160a01b03169052565b01519060c0603f19828503019101526103dd565b825180516001600160a01b031686526020908101518187015260409095019490920191600101611eea565b9081602091031261029f575161041281610f3a565b60405190611f78602083610616565b5f8252565b3d15611fa7573d90611f8e826106fb565b91611f9c6040519384610616565b82523d5f602084013e565b606090565b3561041281610f2f565b62ffffff81160361029f57565b91908260a091031261029f57604051611fdb816105fa565b60808082948035611feb8161028e565b84526020810135611ffb8161028e565b6020850152604081013561200e81611fb6565b6040850152606081013561202181610f2f565b60608501520135916120328361028e565b0152565b634e487b7160e01b5f52601160045260245ffd5b9190820180921161205757565b612036565b356104128161028e565b3561041281611fb6565b9190820391821161205757565b919093929361208a6124cf565b67ffffffffffffffff831692835f52600560205260ff60405f205416156123f4576001600160a01b03821615610cfc576120cf610af76007546001600160a01b031690565b956120dc87828686612788565b916120f2610af76006546001600160a01b031690565b6040516320487ded60e01b8152939060208580612113858760048401611e81565b0381845afa948515610918575f956123d3575b506040516370a0823160e01b81523060048201526020816024818e5afa908115610918575f916123b4575b5085116123515760405163095ea7b360e01b81526001600160a01b03919091166004820152602481018590529798602090899060449082905f905af1978815610918576121e798612334575b506020836121b6610af76006546001600160a01b031690565b60405163095ea7b360e01b81526001600160a01b039091166004820152602481019190915298899081906044820190565b03815f6001600160a01b038b165af19182156109185761223d98602093612319575b5061221f610af76006546001600160a01b031690565b905f604051809b819582946396f4e9f960e01b845260048401611e81565b03925af1958615610918575f966122cc575b50916122c68694927fc15fb748c32ba4eb29c1c311e78533f93b4425eab49ea87c6fe4279ecadca0439461228e610af76007546001600160a01b031690565b906040519586958691936080936001600160a01b0380939897968160a087019a16865216602085015260408401521660608201520152565b0390a390565b7fc15fb748c32ba4eb29c1c311e78533f93b4425eab49ea87c6fe4279ecadca04393919492965061230e6122c69160203d602011610911576109028183610616565b96929491935061224f565b61232f90843d8611610cb957610cac8183610616565b612209565b61234c9060203d602011610cb957610cac8183610616565b61219d565b6040516370a0823160e01b8152306004820152856020826024818f5afa801561091857610cd8925f91612395575b50634787a10360e11b5f52600452602452604490565b6123ae915060203d602011610911576109028183610616565b8361237f565b6123cd915060203d602011610911576109028183610616565b5f612151565b6123ed91955060203d602011610911576109028183610616565b935f612126565b83630a503cdb60e01b5f5260045260245ffd5b6001600160a01b03163014612482575f9160015b61246457509061244360a0612434612457943690611fc3565b205f52600b60205260405f2090565b9062ffffff198254169062ffffff16179055565b63b47b2fb160e01b905f90565b915061247b823561247481610f3a565b1582612cc2565b929061241b565b5063b47b2fb160e01b915f9150565b61249e60a0913690611fc3565b2091604051916020830193845260020b604083015215156060820152606081526124c9608082610616565b51902090565b6001600160a01b036003541633036124e357565b60405162461bcd60e51b815260206004820152601660248201527f4f6e6c792063616c6c61626c65206279206f776e6572000000000000000000006044820152606490fd5b60405163a9059cbb60e01b602082019081526001600160a01b0393841660248301526044808301959095529381526125bc93909290915f91829161256d606487610616565b16926040519461257e604087610616565b602086527f5361666545524332303a206c6f772d6c6576656c2063616c6c206661696c65646020870152519082855af16125b6611f7d565b916137e0565b805190816125c8575050565b6020806125d9938301019101611f54565b156125e057565b60405162461bcd60e51b815260206004820152602a60248201527f5361666545524332303a204552433230206f7065726174696f6e20646964206e60448201527f6f742073756363656564000000000000000000000000000000000000000000006064820152608490fd5b60408051919061265b9083610616565b6001825281601f1961266d6001610686565b015f5b81811061267c57505050565b60405190604082019180831067ffffffffffffffff8411176105f5576020926040525f81525f8382015282828601015201612670565b6127489061273a9392606060806040516126cb816105fa565b8281528260208201528260408201525f8382015201526126e961264b565b936127046126f561064a565b6001600160a01b039093168352565b602082015261271284611dc6565b5261271c83611dc6565b50604080516001600160a01b03909216602083015290938491820190565b03601f198101845283610616565b61275b612753610659565b5f8152612fc4565b90612764610668565b92835261276f611f69565b602084015260408301525f60608301525b608082015290565b926128126128049461278093606060806040516127a4816105fa565b8281528260208201528260408201525f8382015201526127c261264b565b956127ce6126f561064a565b60208201526127dc86611dc6565b526127e685611dc6565b50604080516001600160a01b03909216602083015290958691820190565b03601f198101865285610616565b61281d612753610659565b92612826610668565b948552612831611f69565b602086015260408501526001600160a01b03166060840152565b60020b9060020b9081156128b657627fffff1981145f198314166120575781810590825f821291826128a7575b5050612891575b60020b028060020b9081036120575790565b60020b627fffff198114612057575f190161287f565b0760020b15159050825f612878565b634e487b7160e01b5f52601260045260245ffd5b909291926001600160a01b038216938415611b985761290660405192600184526020840152604083019160018352606084015260808301604052565b928151845190818103612a0e5750505f5b825181101561295c578060019160051b61295461294c87611238602080868b010151958c010151945f525f60205260405f2090565b91825461204a565b905501612917565b5092919360018251145f146129d3576020828101518482015160408051928352928201525f9133917fc3d58168c5ae7397731d063d5bbf3d657854427343f4c083240f7aacaa2d0f629190a45b80516001036129c8579060208061064895930151910151915f33613386565b610648935f3361325c565b5f6040517f4a39dc06d4c0dbc64b70af90fd698a233a518aa5d07e595d983b8c0526c8f7fb339180612a068888836131d4565b0390a46129a9565b635b05999160e01b5f5260045260245260445ffd5b815f1904811182021583021561029f57020490565b92906001600160a01b038416928315611b8657612a7260405192600184526020840152604083019160018352606084015260808301604052565b91906020915f604051612a858582610616565b528151845190818103612a0e5750505f5b8251811015612b2a578060051b848082860101519187010151612ac489611238845f525f60205260405f2090565b54818110612aef57896112386001959493612ae89303935f525f60205260405f2090565b5501612a96565b6040516303dee4c560e01b81526001600160a01b038b16600482015260248101919091526044810182905260648101839052608490fd5b0390fd5b50945090915f939260018351148514612b81579182015191015160408051928352602083019190915233917fc3d58168c5ae7397731d063d5bbf3d657854427343f4c083240f7aacaa2d0f6291819081015b0390a4565b50612b7c7f4a39dc06d4c0dbc64b70af90fd698a233a518aa5d07e595d983b8c0526c8f7fb916040519182913395836131d4565b9091906001600160a01b038116612be257505f808080612bd694865af11590565b612bdd5750565b61301f565b91906001600160a01b036040519263a9059cbb60e01b845216600483015260248201525f604060208260448582885af13d15601f3d11600185511416171692828152826020820152015215612c345750565b6001600160a01b0316612fea565b5f9182918160405192839283378101838152039082305af190612c63611f7d565b916106485750805115612c7857602081519101fd5b6314815f4760e31b5f5260045ffd5b600291820b910b0390627fffff198212627fffff83131761205757565b9060020b9060020b0190627fffff198212627fffff83131761205757565b919091612cfb612cd5610fad3684611fc3565b7f0000000000000000000000000000000000000000000000000000000000000000613054565b5050939050612d28612d21612d13610fad3686611fc3565b5f52600b60205260405f2090565b5460020b90565b908460020b918060020b83135f14612d9b575b828160020b1315612d5057505050505b5f9190565b612d6882610fd283610fc2610fb4610fad368b611fc3565b5480612d8a5750612d8590612d7f60608601611fac565b90612ca4565b612d3b565b9250612d9593613101565b60019190565b828160020b1215612daf5750505050612d4b565b612dc782610fd283610fc2610fb4610fad368b611fc3565b5480612d8a5750612de490612dde60608601611fac565b90612c87565b612d9b565b9493929091938451825190818103612a0e575050935f906001600160a01b03871695861515956001600160a01b038616801515945b8451811015612ef7578060051b90898988602080868b010151958c01015192612e76575b93600194612e54575b50505001612e1e565b612e6c9161123861294c925f525f60205260405f2090565b90555f8981612e4b565b50509091612e8f8d611238835f525f60205260405f2090565b54828110612ec0578291898f612eb7600197968f950391611238855f525f60205260405f2090565b55909450612e42565b6040516303dee4c560e01b81526001600160a01b038f16600482015260248101919091526044810183905260648101829052608490fd5b5091989593929790965060018851145f14612f8a5760208881015186820151604080519283529282015233917fc3d58168c5ae7397731d063d5bbf3d657854427343f4c083240f7aacaa2d0f6291a45b612f53575b5050505050565b8451600103612f7957602080612f6f9601519201519233613386565b5f80808080612f4c565b612f859491923361325c565b612f6f565b6040517f4a39dc06d4c0dbc64b70af90fd698a233a518aa5d07e595d983b8c0526c8f7fb339180612fbc898d836131d4565b0390a4612f47565b604051906397a657c960e01b602083015251602482015260248152610412604482610616565b3d60405191632c4b17e760e21b8352600483015260406024830152806044830152805f606484013e601f801991011660640190fd5b3d60405191638549db5960e01b8352600483015260406024830152806044830152805f606484013e601f801991011660640190fd5b6130a76020916001600160a01b0394936040518481019182526006604082015260408152613083606082610616565b519020604051958680948193631e2eaeaf60e01b8352600483019190602083019252565b0392165afa918215610918575f926130e0575b506001600160a01b038216918060a01c60020b9162ffffff808360b81c169260d01c1690565b6130fa91925060203d602011610911576109028183610616565b905f6130ba565b909192600160ff1b8114612057576131868461319e9461294c9461315b855f03845f146131b7576131556401000276a45b61313a610677565b87151581529260208401526001600160a01b03166040830152565b82613508565b9461317f61317785610fd286610fc2610fb4610fad368a611fc3565b918254612070565b9055612491565b93156131a257600f0b925f52600a60205260405f2090565b9055565b60801d600f0b925f52600a60205260405f2090565b61315573fffd8963efd1fc6a506488495d951d5263988d25613132565b90916131eb61041293604084526040840190610947565b916020818403910152610947565b9081602091031261029f5751610412816102f0565b939061041295936001600160a01b0361324e94816132409416885216602087015260a0604087015260a0860190610947565b908482036060860152610947565b9160808184039101526103dd565b9091949293853b613270575b505050505050565b60209361329291604051968795869563bc197c8160e01b87526004870161320e565b03815f6001600160a01b0387165af15f9181613321575b506132e357506132b7611f7d565b80519190826132dc57632bfa23e760e11b5f526001600160a01b03821660045260245ffd5b9050602001fd5b6001600160e01b0319166343e6837f60e01b0161330657505f8080808080613268565b632bfa23e760e11b5f526001600160a01b031660045260245ffd5b61334491925060203d60201161334b575b61333c8183610616565b8101906131f9565b905f6132a9565b503d613332565b91926001600160a01b0360a094816104129897941685521660208401526040830152606082015281608082015201906103dd565b9091949293853b61339957505050505050565b6020936133bb91604051968795869563f23a6e6160e01b875260048701613352565b03815f6001600160a01b0387165af15f9181613403575b506133e057506132b7611f7d565b6001600160e01b031916630dc5919f60e01b0161330657505f8080808080613268565b61341d91925060203d60201161334b5761333c8183610616565b905f6133d2565b6134d6610412936134af6080610120956001600160a01b0381356134478161028e565b1686526001600160a01b0360208201356134608161028e565b16602087015262ffffff604082013561347881611fb6565b166040870152606081013561348c81610f2f565b60020b6060870152013561349f8161028e565b6001600160a01b03166080850152565b8051151560a0840152602081015160c0840152604001516001600160a01b031660e0830152565b81610100820152016020905f81520190565b600f0b6f7fffffffffffffffffffffffffffffff198114612057575f0390565b604051633cf3645360e21b81529160208380613528848660048401613424565b03815f6001600160a01b037f0000000000000000000000000000000000000000000000000000000000000000165af1928315610918575f93613650575b505115155b156135ef578160801d5f81600f0b126135b5575b505f82600f0b1361358d575090565b61359c6020610412920161205c565b826fffffffffffffffffffffffffffffffff1690613752565b6135e9906135e36135ce6135c88561205c565b926134e8565b6fffffffffffffffffffffffffffffffff1690565b90613675565b5f61357e565b81600f0b5f8112613634575b508160801d5f81600f0b1361360f57505090565b61361b6104129261205c565b906fffffffffffffffffffffffffffffffff1690613752565b61364a906135e36135ce6135c86020860161205c565b5f6135fb565b61356a91935061366e9060203d602011610911576109028183610616565b9290613565565b6001600160a01b037f000000000000000000000000000000000000000000000000000000000000000016803b1561029f57604051632961046560e21b81526001600160a01b0383166004820152925f8460248183865af192831561091857826fffffffffffffffffffffffffffffffff6136fb935f97602097613738575b501691612bb5565b600460405180948193630476982d60e21b83525af180156109185761371d5750565b6137359060203d602011610911576109028183610616565b50565b806137468a61374c93610616565b80610e40565b5f6136f3565b6001600160a01b037f00000000000000000000000000000000000000000000000000000000000000001690813b1561029f5760646001600160a01b03915f80946fffffffffffffffffffffffffffffffff6040519788968795630b0d9c0960e01b87521660048601523060248601521660448401525af18015610918576137d65750565b5f61064891610616565b9192901561384257508151156137f4575090565b3b156137fd5790565b60405162461bcd60e51b815260206004820152601d60248201527f416464726573733a2063616c6c20746f206e6f6e2d636f6e74726163740000006044820152606490fd5b8251909150156138555750805190602001fd5b60405162461bcd60e51b8152908190612b26906004830161040156fea2646970667358221220ed8b0f89d082dc705e873bff64de9e17d56e54b105c66b51df7d1cc93b432ecb64736f6c634300081a0033","linkReferences":{}},"methodIdentifiers":{"acceptOwnership()":"79ba5097","afterAddLiquidity(address,(address,address,uint24,int24,address),(int24,int24,int256,bytes32),int256,int256,bytes)":"9f063efc","afterDonate(address,(address,address,uint24,int24,address),uint256,uint256,bytes)":"e1b4af69","afterInitialize(address,(address,address,uint24,int24,address),uint160,int24,bytes)":"a910f80f","afterRemoveLiquidity(address,(address,address,uint24,int24,address),(int24,int24,int256,bytes32),int256,int256,bytes)":"6c2bbe7e","afterSwap(address,(address,address,uint24,int24,address),(bool,int256,uint160),int256,bytes)":"b47b2fb1","allowlistDestinationChain(uint64,bool)":"96d3b83d","allowlistedChains(uint64)":"0bb106eb","balanceOf(address,uint256)":"00fdd58e","balanceOfBatch(address[],uint256[])":"4e1273f4","beforeAddLiquidity(address,(address,address,uint24,int24,address),(int24,int24,int256,bytes32),bytes)":"259982e5","beforeDonate(address,(address,address,uint24,int24,address),uint256,uint256,bytes)":"b6a8b0fa","beforeInitialize(address,(address,address,uint24,int24,address),uint160,bytes)":"3440d820","beforeRemoveLiquidity(address,(address,address,uint24,int24,address),(int24,int24,int256,bytes32),bytes)":"21d0ee70","beforeSwap(address,(address,address,uint24,int24,address),(bool,int256,uint160),bytes)":"575e24b4","cancelOrder((address,address,uint24,int24,address),int24,bool)":"a0dc3f99","claimTokensSupply(uint256)":"b5a33914","claimableOutputTokens(uint256)":"3bb76cc1","getClaimSupplyAmount((address,address,uint24,int24,address),int24,bool)":"ffe2ec0d","getClaimableOutputAmount((address,address,uint24,int24,address),int24,bool)":"e40997d1","getHookPermissions()":"c4e833ce","getPositionId((address,address,uint24,int24,address),int24,bool)":"fa59cb0c","isApprovedForAll(address,address)":"e985e9c5","lastTicks(bytes32)":"e4cbfea5","owner()":"8da5cb5b","pendingOrders(bytes32,int24,bool)":"a2dc31b2","placeOrder((address,address,uint24,int24,address),int24,bool,uint256)":"7e8941af","poolManager()":"dc4c90d3","redeem((address,address,uint24,int24,address),int24,bool,uint256,uint64)":"872d4000","safeBatchTransferFrom(address,address,uint256[],uint256[],bytes)":"2eb2c2d6","safeTransferFrom(address,address,uint256,uint256,bytes)":"f242432a","setApprovalForAll(address,bool)":"a22cb465","supportsInterface(bytes4)":"01ffc9a7","transferOwnership(address)":"f2fde38b","transferTokensPayLINK(uint64,address,address,uint256)":"95e1402c","transferTokensPayNative(uint64,address,address,uint256)":"51419b4b","unlockCallback(bytes)":"91dd7346","uri(uint256)":"0e89341c","withdraw(address)":"51cff8d9","withdrawToken(address,address)":"3aeac4e1"},"id":99}