{"abi":[{"type":"constructor","inputs":[{"name":"_manager","type":"address","internalType":"contract IPoolManager"},{"name":"_uri","type":"string","internalType":"string"},{"name":"_router","type":"address","internalType":"address"},{"name":"_link","type":"address","internalType":"address"},{"name":"_chainSelector","type":"uint64","internalType":"uint64"}],"stateMutability":"nonpayable"},{"type":"receive","stateMutability":"payable"},{"type":"function","name":"acceptOwnership","inputs":[],"outputs":[],"stateMutability":"nonpayable"},{"type":"function","name":"afterAddLiquidity","inputs":[{"name":"","type":"address","internalType":"address"},{"name":"","type":"tuple","internalType":"struct PoolKey","components":[{"name":"currency0","type":"address","internalType":"Currency"},{"name":"currency1","type":"address","internalType":"Currency"},{"name":"fee","type":"uint24","internalType":"uint24"},{"name":"tickSpacing","type":"int24","internalType":"int24"},{"name":"hooks","type":"address","internalType":"contract IHooks"}]},{"name":"","type":"tuple","internalType":"struct IPoolManager.ModifyLiquidityParams","components":[{"name":"tickLower","type":"int24","internalType":"int24"},{"name":"tickUpper","type":"int24","internalType":"int24"},{"name":"liquidityDelta","type":"int256","internalType":"int256"},{"name":"salt","type":"bytes32","internalType":"bytes32"}]},{"name":"","type":"int256","internalType":"BalanceDelta"},{"name":"","type":"int256","internalType":"BalanceDelta"},{"name":"","type":"bytes","internalType":"bytes"}],"outputs":[{"name":"","type":"bytes4","internalType":"bytes4"},{"name":"","type":"int256","internalType":"BalanceDelta"}],"stateMutability":"nonpayable"},{"type":"function","name":"afterDonate","inputs":[{"name":"","type":"address","internalType":"address"},{"name":"","type":"tuple","internalType":"struct PoolKey","components":[{"name":"currency0","type":"address","internalType":"Currency"},{"name":"currency1","type":"address","internalType":"Currency"},{"name":"fee","type":"uint24","internalType":"uint24"},{"name":"tickSpacing","type":"int24","internalType":"int24"},{"name":"hooks","type":"address","internalType":"contract IHooks"}]},{"name":"","type":"uint256","internalType":"uint256"},{"name":"","type":"uint256","internalType":"uint256"},{"name":"","type":"bytes","internalType":"bytes"}],"outputs":[{"name":"","type":"bytes4","internalType":"bytes4"}],"stateMutability":"nonpayable"},{"type":"function","name":"afterInitialize","inputs":[{"name":"","type":"address","internalType":"address"},{"name":"key","type":"tuple","internalType":"struct PoolKey","components":[{"name":"currency0","type":"address","internalType":"Currency"},{"name":"currency1","type":"address","internalType":"Currency"},{"name":"fee","type":"uint24","internalType":"uint24"},{"name":"tickSpacing","type":"int24","internalType":"int24"},{"name":"hooks","type":"address","internalType":"contract IHooks"}]},{"name":"","type":"uint160","internalType":"uint160"},{"name":"tick","type":"int24","internalType":"int24"},{"name":"","type":"bytes","internalType":"bytes"}],"outputs":[{"name":"","type":"bytes4","internalType":"bytes4"}],"stateMutability":"nonpayable"},{"type":"function","name":"afterRemoveLiquidity","inputs":[{"name":"","type":"address","internalType":"address"},{"name":"","type":"tuple","internalType":"struct PoolKey","components":[{"name":"currency0","type":"address","internalType":"Currency"},{"name":"currency1","type":"address","internalType":"Currency"},{"name":"fee","type":"uint24","internalType":"uint24"},{"name":"tickSpacing","type":"int24","internalType":"int24"},{"name":"hooks","type":"address","internalType":"contract IHooks"}]},{"name":"","type":"tuple","internalType":"struct IPoolManager.ModifyLiquidityParams","components":[{"name":"tickLower","type":"int24","internalType":"int24"},{"name":"tickUpper","type":"int24","internalType":"int24"},{"name":"liquidityDelta","type":"int256","internalType":"int256"},{"name":"salt","type":"bytes32","internalType":"bytes32"}]},{"name":"","type":"int256","internalType":"BalanceDelta"},{"name":"","type":"int256","internalType":"BalanceDelta"},{"name":"","type":"bytes","internalType":"bytes"}],"outputs":[{"name":"","type":"bytes4","internalType":"bytes4"},{"name":"","type":"int256","internalType":"BalanceDelta"}],"stateMutability":"nonpayable"},{"type":"function","name":"afterSwap","inputs":[{"name":"sender","type":"address","internalType":"address"},{"name":"key","type":"tuple","internalType":"struct PoolKey","components":[{"name":"currency0","type":"address","internalType":"Currency"},{"name":"currency1","type":"address","internalType":"Currency"},{"name":"fee","type":"uint24","internalType":"uint24"},{"name":"tickSpacing","type":"int24","internalType":"int24"},{"name":"hooks","type":"address","internalType":"contract IHooks"}]},{"name":"params","type":"tuple","internalType":"struct IPoolManager.SwapParams","components":[{"name":"zeroForOne","type":"bool","internalType":"bool"},{"name":"amountSpecified","type":"int256","internalType":"int256"},{"name":"sqrtPriceLimitX96","type":"uint160","internalType":"uint160"}]},{"name":"","type":"int256","internalType":"BalanceDelta"},{"name":"","type":"bytes","internalType":"bytes"}],"outputs":[{"name":"","type":"bytes4","internalType":"bytes4"},{"name":"","type":"int128","internalType":"int128"}],"stateMutability":"nonpayable"},{"type":"function","name":"allowlistDestinationChain","inputs":[{"name":"_destinationChainSelector","type":"uint64","internalType":"uint64"},{"name":"allowed","type":"bool","internalType":"bool"}],"outputs":[],"stateMutability":"nonpayable"},{"type":"function","name":"allowlistedChains","inputs":[{"name":"","type":"uint64","internalType":"uint64"}],"outputs":[{"name":"","type":"bool","internalType":"bool"}],"stateMutability":"view"},{"type":"function","name":"balanceOf","inputs":[{"name":"account","type":"address","internalType":"address"},{"name":"id","type":"uint256","internalType":"uint256"}],"outputs":[{"name":"","type":"uint256","internalType":"uint256"}],"stateMutability":"view"},{"type":"function","name":"balanceOfBatch","inputs":[{"name":"accounts","type":"address[]","internalType":"address[]"},{"name":"ids","type":"uint256[]","internalType":"uint256[]"}],"outputs":[{"name":"","type":"uint256[]","internalType":"uint256[]"}],"stateMutability":"view"},{"type":"function","name":"beforeAddLiquidity","inputs":[{"name":"","type":"address","internalType":"address"},{"name":"","type":"tuple","internalType":"struct PoolKey","components":[{"name":"currency0","type":"address","internalType":"Currency"},{"name":"currency1","type":"address","internalType":"Currency"},{"name":"fee","type":"uint24","internalType":"uint24"},{"name":"tickSpacing","type":"int24","internalType":"int24"},{"name":"hooks","type":"address","internalType":"contract IHooks"}]},{"name":"","type":"tuple","internalType":"struct IPoolManager.ModifyLiquidityParams","components":[{"name":"tickLower","type":"int24","internalType":"int24"},{"name":"tickUpper","type":"int24","internalType":"int24"},{"name":"liquidityDelta","type":"int256","internalType":"int256"},{"name":"salt","type":"bytes32","internalType":"bytes32"}]},{"name":"","type":"bytes","internalType":"bytes"}],"outputs":[{"name":"","type":"bytes4","internalType":"bytes4"}],"stateMutability":"nonpayable"},{"type":"function","name":"beforeDonate","inputs":[{"name":"","type":"address","internalType":"address"},{"name":"","type":"tuple","internalType":"struct PoolKey","components":[{"name":"currency0","type":"address","internalType":"Currency"},{"name":"currency1","type":"address","internalType":"Currency"},{"name":"fee","type":"uint24","internalType":"uint24"},{"name":"tickSpacing","type":"int24","internalType":"int24"},{"name":"hooks","type":"address","internalType":"contract IHooks"}]},{"name":"","type":"uint256","internalType":"uint256"},{"name":"","type":"uint256","internalType":"uint256"},{"name":"","type":"bytes","internalType":"bytes"}],"outputs":[{"name":"","type":"bytes4","internalType":"bytes4"}],"stateMutability":"nonpayable"},{"type":"function","name":"beforeInitialize","inputs":[{"name":"","type":"address","internalType":"address"},{"name":"","type":"tuple","internalType":"struct PoolKey","components":[{"name":"currency0","type":"address","internalType":"Currency"},{"name":"currency1","type":"address","internalType":"Currency"},{"name":"fee","type":"uint24","internalType":"uint24"},{"name":"tickSpacing","type":"int24","internalType":"int24"},{"name":"hooks","type":"address","internalType":"contract IHooks"}]},{"name":"","type":"uint160","internalType":"uint160"},{"name":"","type":"bytes","internalType":"bytes"}],"outputs":[{"name":"","type":"bytes4","internalType":"bytes4"}],"stateMutability":"nonpayable"},{"type":"function","name":"beforeRemoveLiquidity","inputs":[{"name":"","type":"address","internalType":"address"},{"name":"","type":"tuple","internalType":"struct PoolKey","components":[{"name":"currency0","type":"address","internalType":"Currency"},{"name":"currency1","type":"address","internalType":"Currency"},{"name":"fee","type":"uint24","internalType":"uint24"},{"name":"tickSpacing","type":"int24","internalType":"int24"},{"name":"hooks","type":"address","internalType":"contract IHooks"}]},{"name":"","type":"tuple","internalType":"struct IPoolManager.ModifyLiquidityParams","components":[{"name":"tickLower","type":"int24","internalType":"int24"},{"name":"tickUpper","type":"int24","internalType":"int24"},{"name":"liquidityDelta","type":"int256","internalType":"int256"},{"name":"salt","type":"bytes32","internalType":"bytes32"}]},{"name":"","type":"bytes","internalType":"bytes"}],"outputs":[{"name":"","type":"bytes4","internalType":"bytes4"}],"stateMutability":"nonpayable"},{"type":"function","name":"beforeSwap","inputs":[{"name":"","type":"address","internalType":"address"},{"name":"","type":"tuple","internalType":"struct PoolKey","components":[{"name":"currency0","type":"address","internalType":"Currency"},{"name":"currency1","type":"address","internalType":"Currency"},{"name":"fee","type":"uint24","internalType":"uint24"},{"name":"tickSpacing","type":"int24","internalType":"int24"},{"name":"hooks","type":"address","internalType":"contract IHooks"}]},{"name":"","type":"tuple","internalType":"struct IPoolManager.SwapParams","components":[{"name":"zeroForOne","type":"bool","internalType":"bool"},{"name":"amountSpecified","type":"int256","internalType":"int256"},{"name":"sqrtPriceLimitX96","type":"uint160","internalType":"uint160"}]},{"name":"","type":"bytes","internalType":"bytes"}],"outputs":[{"name":"","type":"bytes4","internalType":"bytes4"},{"name":"","type":"int256","internalType":"BeforeSwapDelta"},{"name":"","type":"uint24","internalType":"uint24"}],"stateMutability":"nonpayable"},{"type":"function","name":"cancelOrder","inputs":[{"name":"key","type":"tuple","internalType":"struct PoolKey","components":[{"name":"currency0","type":"address","internalType":"Currency"},{"name":"currency1","type":"address","internalType":"Currency"},{"name":"fee","type":"uint24","internalType":"uint24"},{"name":"tickSpacing","type":"int24","internalType":"int24"},{"name":"hooks","type":"address","internalType":"contract IHooks"}]},{"name":"tickToSellAt","type":"int24","internalType":"int24"},{"name":"zeroForOne","type":"bool","internalType":"bool"}],"outputs":[],"stateMutability":"nonpayable"},{"type":"function","name":"chainSelector","inputs":[],"outputs":[{"name":"","type":"uint64","internalType":"uint64"}],"stateMutability":"view"},{"type":"function","name":"claimTokensSupply","inputs":[{"name":"positionId","type":"uint256","internalType":"uint256"}],"outputs":[{"name":"claimsSupply","type":"uint256","internalType":"uint256"}],"stateMutability":"view"},{"type":"function","name":"claimableOutputTokens","inputs":[{"name":"positionId","type":"uint256","internalType":"uint256"}],"outputs":[{"name":"outputClaimable","type":"uint256","internalType":"uint256"}],"stateMutability":"view"},{"type":"function","name":"getClaimSupplyAmount","inputs":[{"name":"key","type":"tuple","internalType":"struct PoolKey","components":[{"name":"currency0","type":"address","internalType":"Currency"},{"name":"currency1","type":"address","internalType":"Currency"},{"name":"fee","type":"uint24","internalType":"uint24"},{"name":"tickSpacing","type":"int24","internalType":"int24"},{"name":"hooks","type":"address","internalType":"contract IHooks"}]},{"name":"tick","type":"int24","internalType":"int24"},{"name":"zeroForOne","type":"bool","internalType":"bool"}],"outputs":[{"name":"","type":"uint256","internalType":"uint256"}],"stateMutability":"view"},{"type":"function","name":"getClaimableOutputAmount","inputs":[{"name":"key","type":"tuple","internalType":"struct PoolKey","components":[{"name":"currency0","type":"address","internalType":"Currency"},{"name":"currency1","type":"address","internalType":"Currency"},{"name":"fee","type":"uint24","internalType":"uint24"},{"name":"tickSpacing","type":"int24","internalType":"int24"},{"name":"hooks","type":"address","internalType":"contract IHooks"}]},{"name":"tick","type":"int24","internalType":"int24"},{"name":"zeroForOne","type":"bool","internalType":"bool"}],"outputs":[{"name":"","type":"uint256","internalType":"uint256"}],"stateMutability":"view"},{"type":"function","name":"getHookPermissions","inputs":[],"outputs":[{"name":"","type":"tuple","internalType":"struct Hooks.Permissions","components":[{"name":"beforeInitialize","type":"bool","internalType":"bool"},{"name":"afterInitialize","type":"bool","internalType":"bool"},{"name":"beforeAddLiquidity","type":"bool","internalType":"bool"},{"name":"afterAddLiquidity","type":"bool","internalType":"bool"},{"name":"beforeRemoveLiquidity","type":"bool","internalType":"bool"},{"name":"afterRemoveLiquidity","type":"bool","internalType":"bool"},{"name":"beforeSwap","type":"bool","internalType":"bool"},{"name":"afterSwap","type":"bool","internalType":"bool"},{"name":"beforeDonate","type":"bool","internalType":"bool"},{"name":"afterDonate","type":"bool","internalType":"bool"},{"name":"beforeSwapReturnDelta","type":"bool","internalType":"bool"},{"name":"afterSwapReturnDelta","type":"bool","internalType":"bool"},{"name":"afterAddLiquidityReturnDelta","type":"bool","internalType":"bool"},{"name":"afterRemoveLiquidityReturnDelta","type":"bool","internalType":"bool"}]}],"stateMutability":"pure"},{"type":"function","name":"getPositionId","inputs":[{"name":"key","type":"tuple","internalType":"struct PoolKey","components":[{"name":"currency0","type":"address","internalType":"Currency"},{"name":"currency1","type":"address","internalType":"Currency"},{"name":"fee","type":"uint24","internalType":"uint24"},{"name":"tickSpacing","type":"int24","internalType":"int24"},{"name":"hooks","type":"address","internalType":"contract IHooks"}]},{"name":"tick","type":"int24","internalType":"int24"},{"name":"zeroForOne","type":"bool","internalType":"bool"}],"outputs":[{"name":"","type":"uint256","internalType":"uint256"}],"stateMutability":"pure"},{"type":"function","name":"isApprovedForAll","inputs":[{"name":"account","type":"address","internalType":"address"},{"name":"operator","type":"address","internalType":"address"}],"outputs":[{"name":"","type":"bool","internalType":"bool"}],"stateMutability":"view"},{"type":"function","name":"lastTicks","inputs":[{"name":"poolId","type":"bytes32","internalType":"PoolId"}],"outputs":[{"name":"lastTick","type":"int24","internalType":"int24"}],"stateMutability":"view"},{"type":"function","name":"owner","inputs":[],"outputs":[{"name":"","type":"address","internalType":"address"}],"stateMutability":"view"},{"type":"function","name":"pendingOrders","inputs":[{"name":"poolId","type":"bytes32","internalType":"PoolId"},{"name":"tickToSellAt","type":"int24","internalType":"int24"},{"name":"zeroForOne","type":"bool","internalType":"bool"}],"outputs":[{"name":"inputAmount","type":"uint256","internalType":"uint256"}],"stateMutability":"view"},{"type":"function","name":"placeOrder","inputs":[{"name":"key","type":"tuple","internalType":"struct PoolKey","components":[{"name":"currency0","type":"address","internalType":"Currency"},{"name":"currency1","type":"address","internalType":"Currency"},{"name":"fee","type":"uint24","internalType":"uint24"},{"name":"tickSpacing","type":"int24","internalType":"int24"},{"name":"hooks","type":"address","internalType":"contract IHooks"}]},{"name":"tickToSellAt","type":"int24","internalType":"int24"},{"name":"zeroForOne","type":"bool","internalType":"bool"},{"name":"inputAmount","type":"uint256","internalType":"uint256"}],"outputs":[{"name":"","type":"int24","internalType":"int24"}],"stateMutability":"nonpayable"},{"type":"function","name":"poolManager","inputs":[],"outputs":[{"name":"","type":"address","internalType":"contract IPoolManager"}],"stateMutability":"view"},{"type":"function","name":"redeem","inputs":[{"name":"key","type":"tuple","internalType":"struct PoolKey","components":[{"name":"currency0","type":"address","internalType":"Currency"},{"name":"currency1","type":"address","internalType":"Currency"},{"name":"fee","type":"uint24","internalType":"uint24"},{"name":"tickSpacing","type":"int24","internalType":"int24"},{"name":"hooks","type":"address","internalType":"contract IHooks"}]},{"name":"tickToSellAt","type":"int24","internalType":"int24"},{"name":"zeroForOne","type":"bool","internalType":"bool"},{"name":"inputAmountToClaimFor","type":"uint256","internalType":"uint256"},{"name":"destinationChainSelector","type":"uint64","internalType":"uint64"}],"outputs":[],"stateMutability":"nonpayable"},{"type":"function","name":"safeBatchTransferFrom","inputs":[{"name":"from","type":"address","internalType":"address"},{"name":"to","type":"address","internalType":"address"},{"name":"ids","type":"uint256[]","internalType":"uint256[]"},{"name":"values","type":"uint256[]","internalType":"uint256[]"},{"name":"data","type":"bytes","internalType":"bytes"}],"outputs":[],"stateMutability":"nonpayable"},{"type":"function","name":"safeTransferFrom","inputs":[{"name":"from","type":"address","internalType":"address"},{"name":"to","type":"address","internalType":"address"},{"name":"id","type":"uint256","internalType":"uint256"},{"name":"value","type":"uint256","internalType":"uint256"},{"name":"data","type":"bytes","internalType":"bytes"}],"outputs":[],"stateMutability":"nonpayable"},{"type":"function","name":"setApprovalForAll","inputs":[{"name":"operator","type":"address","internalType":"address"},{"name":"approved","type":"bool","internalType":"bool"}],"outputs":[],"stateMutability":"nonpayable"},{"type":"function","name":"supportsInterface","inputs":[{"name":"interfaceId","type":"bytes4","internalType":"bytes4"}],"outputs":[{"name":"","type":"bool","internalType":"bool"}],"stateMutability":"view"},{"type":"function","name":"transferOwnership","inputs":[{"name":"to","type":"address","internalType":"address"}],"outputs":[],"stateMutability":"nonpayable"},{"type":"function","name":"transferTokensPayLINK","inputs":[{"name":"_destinationChainSelector","type":"uint64","internalType":"uint64"},{"name":"_receiver","type":"address","internalType":"address"},{"name":"_token","type":"address","internalType":"address"},{"name":"_amount","type":"uint256","internalType":"uint256"}],"outputs":[{"name":"messageId","type":"bytes32","internalType":"bytes32"}],"stateMutability":"nonpayable"},{"type":"function","name":"transferTokensPayNative","inputs":[{"name":"_destinationChainSelector","type":"uint64","internalType":"uint64"},{"name":"_receiver","type":"address","internalType":"address"},{"name":"_token","type":"address","internalType":"address"},{"name":"_amount","type":"uint256","internalType":"uint256"}],"outputs":[{"name":"messageId","type":"bytes32","internalType":"bytes32"}],"stateMutability":"nonpayable"},{"type":"function","name":"unlockCallback","inputs":[{"name":"data","type":"bytes","internalType":"bytes"}],"outputs":[{"name":"","type":"bytes","internalType":"bytes"}],"stateMutability":"nonpayable"},{"type":"function","name":"uri","inputs":[{"name":"","type":"uint256","internalType":"uint256"}],"outputs":[{"name":"","type":"string","internalType":"string"}],"stateMutability":"view"},{"type":"function","name":"withdraw","inputs":[{"name":"_beneficiary","type":"address","internalType":"address"}],"outputs":[],"stateMutability":"nonpayable"},{"type":"function","name":"withdrawToken","inputs":[{"name":"_beneficiary","type":"address","internalType":"address"},{"name":"_token","type":"address","internalType":"address"}],"outputs":[],"stateMutability":"nonpayable"},{"type":"event","name":"ApprovalForAll","inputs":[{"name":"account","type":"address","indexed":true,"internalType":"address"},{"name":"operator","type":"address","indexed":true,"internalType":"address"},{"name":"approved","type":"bool","indexed":false,"internalType":"bool"}],"anonymous":false},{"type":"event","name":"OrderPlaced","inputs":[{"name":"currency0","type":"address","indexed":false,"internalType":"Currency"},{"name":"currency1","type":"address","indexed":false,"internalType":"Currency"},{"name":"fee","type":"uint24","indexed":false,"internalType":"uint24"},{"name":"tickSpacing","type":"int24","indexed":false,"internalType":"int24"},{"name":"hooks","type":"address","indexed":false,"internalType":"contract IHooks"},{"name":"tickToSellAt","type":"int24","indexed":false,"internalType":"int24"},{"name":"zeroForOne","type":"bool","indexed":false,"internalType":"bool"},{"name":"inputAmount","type":"uint256","indexed":false,"internalType":"uint256"},{"name":"sender","type":"address","indexed":false,"internalType":"address"}],"anonymous":false},{"type":"event","name":"OwnershipTransferRequested","inputs":[{"name":"from","type":"address","indexed":true,"internalType":"address"},{"name":"to","type":"address","indexed":true,"internalType":"address"}],"anonymous":false},{"type":"event","name":"OwnershipTransferred","inputs":[{"name":"from","type":"address","indexed":true,"internalType":"address"},{"name":"to","type":"address","indexed":true,"internalType":"address"}],"anonymous":false},{"type":"event","name":"TokensTransferred","inputs":[{"name":"messageId","type":"bytes32","indexed":true,"internalType":"bytes32"},{"name":"destinationChainSelector","type":"uint64","indexed":true,"internalType":"uint64"},{"name":"receiver","type":"address","indexed":false,"internalType":"address"},{"name":"token","type":"address","indexed":false,"internalType":"address"},{"name":"tokenAmount","type":"uint256","indexed":false,"internalType":"uint256"},{"name":"feeToken","type":"address","indexed":false,"internalType":"address"},{"name":"fees","type":"uint256","indexed":false,"internalType":"uint256"}],"anonymous":false},{"type":"event","name":"TransferBatch","inputs":[{"name":"operator","type":"address","indexed":true,"internalType":"address"},{"name":"from","type":"address","indexed":true,"internalType":"address"},{"name":"to","type":"address","indexed":true,"internalType":"address"},{"name":"ids","type":"uint256[]","indexed":false,"internalType":"uint256[]"},{"name":"values","type":"uint256[]","indexed":false,"internalType":"uint256[]"}],"anonymous":false},{"type":"event","name":"TransferSingle","inputs":[{"name":"operator","type":"address","indexed":true,"internalType":"address"},{"name":"from","type":"address","indexed":true,"internalType":"address"},{"name":"to","type":"address","indexed":true,"internalType":"address"},{"name":"id","type":"uint256","indexed":false,"internalType":"uint256"},{"name":"value","type":"uint256","indexed":false,"internalType":"uint256"}],"anonymous":false},{"type":"event","name":"URI","inputs":[{"name":"value","type":"string","indexed":false,"internalType":"string"},{"name":"id","type":"uint256","indexed":true,"internalType":"uint256"}],"anonymous":false},{"type":"error","name":"DestinationChainNotAllowlisted","inputs":[{"name":"destinationChainSelector","type":"uint64","internalType":"uint64"}]},{"type":"error","name":"ERC1155InsufficientBalance","inputs":[{"name":"sender","type":"address","internalType":"address"},{"name":"balance","type":"uint256","internalType":"uint256"},{"name":"needed","type":"uint256","internalType":"uint256"},{"name":"tokenId","type":"uint256","internalType":"uint256"}]},{"type":"error","name":"ERC1155InvalidApprover","inputs":[{"name":"approver","type":"address","internalType":"address"}]},{"type":"error","name":"ERC1155InvalidArrayLength","inputs":[{"name":"idsLength","type":"uint256","internalType":"uint256"},{"name":"valuesLength","type":"uint256","internalType":"uint256"}]},{"type":"error","name":"ERC1155InvalidOperator","inputs":[{"name":"operator","type":"address","internalType":"address"}]},{"type":"error","name":"ERC1155InvalidReceiver","inputs":[{"name":"receiver","type":"address","internalType":"address"}]},{"type":"error","name":"ERC1155InvalidSender","inputs":[{"name":"sender","type":"address","internalType":"address"}]},{"type":"error","name":"ERC1155MissingApprovalForAll","inputs":[{"name":"operator","type":"address","internalType":"address"},{"name":"owner","type":"address","internalType":"address"}]},{"type":"error","name":"FailedToWithdrawEth","inputs":[{"name":"owner","type":"address","internalType":"address"},{"name":"target","type":"address","internalType":"address"},{"name":"value","type":"uint256","internalType":"uint256"}]},{"type":"error","name":"HookNotImplemented","inputs":[]},{"type":"error","name":"InvalidOrder","inputs":[]},{"type":"error","name":"InvalidPool","inputs":[]},{"type":"error","name":"InvalidReceiverAddress","inputs":[]},{"type":"error","name":"LockFailure","inputs":[]},{"type":"error","name":"NotEnoughBalance","inputs":[{"name":"currentBalance","type":"uint256","internalType":"uint256"},{"name":"calculatedFees","type":"uint256","internalType":"uint256"}]},{"type":"error","name":"NotEnoughToClaim","inputs":[]},{"type":"error","name":"NotPoolManager","inputs":[]},{"type":"error","name":"NotSelf","inputs":[]},{"type":"error","name":"NothingToClaim","inputs":[]},{"type":"error","name":"NothingToWithdraw","inputs":[]},{"type":"error","name":"UnsupportedToken","inputs":[]}],"bytecode":{"object":"0x60a0604052346104ff57613e478038038061001981610523565b92833981019060a0818303126104ff5780516001600160a01b03811681036104ff5760208201516001600160401b0381116104ff57820183601f820112156104ff578051906001600160401b03821161042f5761007f601f8301601f1916602001610523565b94828652602083830101116104ff57815f9260208093018388015e850101526100aa60408301610548565b60806100b860608501610548565b930151916001600160401b03831683036104ff576080525f6101a06100db610503565b8281528260208201528260408201528260608201528260808201528260a08201528260c08201528260e0820152826101008201528261012082015282610140820152826101608201528261018082015201525f6101a0610139610503565b828152600160208201528260408201528260608201528260808201528260a08201528260c0820152600160e0820152826101008201528261012082015282610140820152826101608201528261018082015201526120003016158015906104ee575b80156104e1575b80156104d4575b80156104c7575b80156104ba575b80156104ae575b801561049e575b8015610492575b8015610486575b801561047a575b801561046e575b8015610462575b8015610456575b6104435783516001600160401b03811161042f57600254600181811c91168015610425575b602082101461041157601f81116103ae575b50602094601f821160011461034b579481929394955f92610340575b50508160011b915f199060031b1c1916176002555b33156102fb57600380546001600160a01b03199081163317909155600680549091166001600160a01b03928316179055600780546001600160e01b031916939091169290921760a09190911b600160a01b600160e01b03161790556040516138ea908161055d823960805181818161150b01528181611835015281816118fb01528181611b8301528181612d1a01528181613578015281816136c2015261379f0152f35b60405162461bcd60e51b815260206004820152601860248201527f43616e6e6f7420736574206f776e657220746f207a65726f00000000000000006044820152606490fd5b015190505f80610242565b601f1982169560025f52805f20915f5b8881106103965750836001959697981061037e575b505050811b01600255610257565b01515f1960f88460031b161c191690555f8080610370565b9192602060018192868501518155019401920161035b565b60025f527f405787fa12a823e0f2b7631cc41b3ba8828b3321ca811111fa75cd3aa3bb5ace601f830160051c81019160208410610407575b601f0160051c01905b8181106103fc5750610226565b5f81556001016103ef565b90915081906103e6565b634e487b7160e01b5f52602260045260245ffd5b90607f1690610214565b634e487b7160e01b5f52604160045260245ffd5b630732d7b560e51b5f523060045260245ffd5b506001301615156101ef565b506002301615156101e8565b506004301615156101e1565b506008301615156101da565b506010301615156101d3565b506020301615156101cc565b50604030161515600114156101c5565b506080301615156101be565b50610100301615156101b7565b50610200301615156101b0565b50610400301615156101a9565b50610800301615156101a2565b50611000301615156001141561019b565b5f80fd5b604051906101c082016001600160401b0381118382101761042f57604052565b6040519190601f01601f191682016001600160401b0381118382101761042f57604052565b51906001600160a01b03821682036104ff5756fe6080604052600436101561001a575b3615610018575f80fd5b005b5f3560e01c8062fdd58e1461029957806301ffc9a7146102945780630bb106eb1461028f5780630e89341c1461028a57806321d0ee7014610285578063259982e5146102855780632eb2c2d6146102805780633440d8201461027b5780633aeac4e1146102765780633bb76cc1146102715780634e1273f41461026c5780634e4bc8471461026757806351419b4b1461026257806351cff8d91461025d578063575e24b4146102585780636c2bbe7e1461023057806379ba5097146102535780637e8941af1461024e578063872d4000146102495780638da5cb5b1461024457806391dd73461461023f57806395e1402c1461023a57806396d3b83d146102355780639f063efc14610230578063a0dc3f991461022b578063a22cb46514610226578063a2dc31b214610221578063a910f80f1461021c578063b47b2fb114610217578063b5a3391414610212578063b6a8b0fa14610203578063c4e833ce1461020d578063dc4c90d314610208578063e1b4af6914610203578063e40997d1146101fe578063e4cbfea5146101f9578063e985e9c5146101f4578063f242432a146101ef578063f2fde38b146101ea578063fa59cb0c146101e55763ffe2ec0d0361000e57611ea6565b611e93565b611d69565b611c4c565b611c01565b611bd4565b611ba7565b611975565b611b64565b611a7c565b61194b565b61189d565b6117cb565b61177c565b6116c5565b611603565b610f3c565b611585565b611561565b6114cf565b6114a9565b6112f2565b61108d565b610f93565b610eea565b610e79565b610bf2565b610b87565b610aba565b610a4c565b61088a565b610802565b61076d565b610569565b610425565b6103af565b610312565b6102b3565b6001600160a01b038116036102af57565b5f80fd5b346102af5760403660031901126102af5760206102f76004356102d58161029e565b6024355f525f835260405f20906001600160a01b03165f5260205260405f2090565b54604051908152f35b6001600160e01b03198116036102af57565b346102af5760203660031901126102af57602060043561033181610300565b63ffffffff60e01b16636cdb3d1360e11b811490811561036f575b811561035e575b506040519015158152f35b6301ffc9a760e01b1490505f610353565b6303a24d0760e21b8114915061034c565b6004359067ffffffffffffffff821682036102af57565b610104359067ffffffffffffffff821682036102af57565b346102af5760203660031901126102af5767ffffffffffffffff6103d1610380565b165f526005602052602060ff60405f2054166040519015158152f35b805180835260209291819084018484015e5f828201840152601f01601f1916010190565b9060206104229281815201906103ed565b90565b346102af5760203660031901126102af576040515f6002548060011c906001811690811561050f575b6020831082146104fb5782855260208501919081156104e25750600114610490575b61048c8461048081860382610626565b60405191829182610411565b0390f35b60025f9081529250907f405787fa12a823e0f2b7631cc41b3ba8828b3321ca811111fa75cd3aa3bb5ace5b8184106104ce5750500161048082610470565b8054848401526020909301926001016104bb565b60ff191682525090151560051b01905061048082610470565b634e487b7160e01b5f52602260045260245ffd5b91607f169161044e565b60a09060231901126102af57602490565b60a09060031901126102af57600490565b9181601f840112156102af5782359167ffffffffffffffff83116102af57602083818601950101116102af57565b346102af576101603660031901126102af576004356105878161029e565b5060a03660231901126102af5760803660c31901126102af576101443567ffffffffffffffff81116102af576105c190369060040161053b565b5050630a85dc2960e01b5f908152600490fd5b634e487b7160e01b5f52604160045260245ffd5b6101c0810190811067ffffffffffffffff82111761060557604052565b6105d4565b60a0810190811067ffffffffffffffff82111761060557604052565b90601f8019910116810190811067ffffffffffffffff82111761060557604052565b604051906106586101c083610626565b565b60405190610658604083610626565b60405190610658602083610626565b6040519061065860a083610626565b60405190610658606083610626565b67ffffffffffffffff81116106055760051b60200190565b9080601f830112156102af5781356106c581610696565b926106d36040519485610626565b81845260208085019260051b8201019283116102af57602001905b8282106106fb5750505090565b81358152602091820191016106ee565b67ffffffffffffffff811161060557601f01601f191660200190565b81601f820112156102af5780359061073e8261070b565b9261074c6040519485610626565b828452602083830101116102af57815f926020809301838601378301015290565b346102af5760a03660031901126102af5760043561078a8161029e565b602435906107978261029e565b60443567ffffffffffffffff81116102af576107b79036906004016106ae565b60643567ffffffffffffffff81116102af576107d79036906004016106ae565b906084359367ffffffffffffffff85116102af576107fc610018953690600401610727565b93611ef5565b346102af576101003660031901126102af5761081f60043561029e565b61082836610519565b5061083460c43561029e565b60e43567ffffffffffffffff81116102af5761085490369060040161053b565b5050630a85dc2960e01b5f5260045ffd5b60409060031901126102af5760043561087d8161029e565b906024356104228161029e565b346102af576001600160a01b036108a036610865565b6040516370a0823160e01b8152306004820152921690602083602481855afa928315610a47575f93610a16575b508215610a07575f806001600160a01b0361091d9461092b61097a97604051978891602083019863a9059cbb60e01b8a5260248401602090939291936001600160a01b0360408201951681520152565b03601f198101885287610626565b16926040519461093c604087610626565b602086527f5361666545524332303a206c6f772d6c6576656c2063616c6c206661696c65646020870152519082855af1610974612144565b91613823565b8051908161098457005b60208061099593830101910161211b565b1561099c57005b60405162461bcd60e51b815260206004820152602a60248201527f5361666545524332303a204552433230206f7065726174696f6e20646964206e60448201527f6f742073756363656564000000000000000000000000000000000000000000006064820152608490fd5b630686827b60e51b5f5260045ffd5b610a3991935060203d602011610a40575b610a318183610626565b810190611f5f565b915f6108cd565b503d610a27565b611f6e565b346102af5760203660031901126102af576004355f52600a602052602060405f2054604051908152f35b90602080835192838152019201905f5b818110610a935750505090565b8251845260209384019390920191600101610a86565b906020610422928181520190610a76565b346102af5760403660031901126102af5760043567ffffffffffffffff81116102af57366023820112156102af57806004013590610af782610696565b91610b056040519384610626565b8083526024602084019160051b830101913683116102af57602401905b828210610b63578360243567ffffffffffffffff81116102af5761048c91610b51610b579236906004016106ae565b90611fb3565b60405191829182610aa9565b602080918335610b728161029e565b815201910190610b22565b5f9103126102af57565b346102af575f3660031901126102af57602067ffffffffffffffff60075460a01c16604051908152f35b60809060031901126102af5760043567ffffffffffffffff811681036102af5790602435610bde8161029e565b90604435610beb8161029e565b9060643590565b346102af57610c0036610bb1565b919067ffffffffffffffff841691825f52600560205260ff60405f20541615610e66576001600160a01b03811615610e5757610c3d8483836126f5565b610c5e610c526006546001600160a01b031690565b6001600160a01b031690565b95604051916320487ded60e01b835260208380610c7f848660048401612048565b03818b5afa928315610a47575f93610e36575b50478311610e1b5760405163095ea7b360e01b81526001600160a01b03909816600489015260248801879052602088806044810103815f6001600160a01b038a165af1918215610a4757610d1c98602093610df0575b50610cfe610c526006546001600160a01b031690565b9084604051809b819582946396f4e9f960e01b845260048401612048565b03925af1948515610a475761048c965f96610da3575b5091610d908694927fc15fb748c32ba4eb29c1c311e78533f93b4425eab49ea87c6fe4279ecadca0439460405194859485909493926001600160a01b036080938160a085019816845216602083015260408201525f60608201520152565b0390a36040519081529081906020820190565b7fc15fb748c32ba4eb29c1c311e78533f93b4425eab49ea87c6fe4279ecadca043939194929650610de5610d909160203d602011610a4057610a318183610626565b969294919350610d32565b610e0f90843d8611610e14575b610e078183610626565b81019061211b565b610ce8565b503d610dfd565b634787a10360e11b5f5247600452602483905260445ffd5b5ffd5b610e5091935060203d602011610a4057610a318183610626565b915f610c92565b63502ffa3f60e11b5f5260045ffd5b82630a503cdb60e01b5f5260045260245ffd5b346102af5760203660031901126102af57600435610e968161029e565b47908115610a07575f80808085855af1610eae612144565b5015610eb657005b6001600160a01b0390639d11f56360e01b5f52336004521660245260445260645ffd5b60609060c31901126102af5760c490565b346102af576101403660031901126102af57610f0760043561029e565b610f1036610519565b50610f1a36610ed9565b506101243567ffffffffffffffff81116102af5761085490369060040161053b565b346102af576101a03660031901126102af57600435610f5a8161029e565b5060a03660231901126102af57608060c43603126102af576101843567ffffffffffffffff81116102af576105c190369060040161053b565b346102af575f3660031901126102af576001600160a01b03600454163303611033576003546001600160a01b03166003805473ffffffffffffffffffffffffffffffffffffffff19163317905561100273ffffffffffffffffffffffffffffffffffffffff1960045416600455565b6001600160a01b033391167f8be0079c531659141344cd1fd0a4f28419497f9722a3daafe3b4186f6b6457e05f80a3005b60405162461bcd60e51b815260206004820152601660248201527f4d7573742062652070726f706f736564206f776e6572000000000000000000006044820152606490fd5b8060020b036102af57565b801515036102af57565b346102af576101003660031901126102af576110a83661052a565b60a435906110b582611078565b60c435916110c283611083565b60e4359160608101906110dd6110d783612173565b8461288e565b9361112a8661111b8761110b6110fd6110f6368961218a565b60a0902090565b5f52600860205260405f2090565b9060020b5f5260205260405f2090565b9015155f5260205260405f2090565b611135828254612211565b9055611174611145878785612650565b611157815f52600960205260405f2090565b611162848254612211565b90558261116d612130565b913361290d565b85156112dd57611186610c5283612223565b935b6040516323b872dd60e01b81523360048201523060248201526044810183905294602090869060649082905f906001600160a01b03165af1918215610a475761048c977ffe7473324d2b1731cf14a118591c75deb661ce7a804f30d2d0f2b4b72087a868966112a8946112c0575b5061120085612223565b9261120d60208701612223565b9561122f60806112286112226040850161222d565b9a612173565b9201612223565b9060405198899833978a979593919998969492909961012089019a6001600160a01b031689526001600160a01b0316602089015262ffffff16604088015260020b60608701526001600160a01b0316608086015260020b60a0850152151560c084015260e08301526001600160a01b0316906101000152565b0390a160405160029190910b81529081906020820190565b6112d89060203d602011610e1457610e078183610626565b6111f6565b6112ec610c5260208401612223565b93611188565b346102af576101203660031901126102af5761130d3661052a565b60a4359061131a82611078565b60c4359061132782611083565b60e435916113538161134d61133a610397565b9661134760608701612173565b9061288e565b84612650565b92611366845f52600a60205260405f2090565b541561149a578061139833611382875f525f60205260405f2090565b906001600160a01b03165f5260205260405f2090565b541061148b57611417906113d26113b7865f52600a60205260405f2090565b546113ca875f52600960205260405f2090565b549083612a66565b946113e5815f52600a60205260405f2090565b6113f0878254612237565b9055611404815f52600960205260405f2090565b61140f838254612237565b905533612a7b565b1561147d5760206114289101612223565b60075460a01c67ffffffffffffffff1667ffffffffffffffff8416036114545761001892503390612bf8565b6001600160a01b0316801561146e57610018923390612244565b63350b944160e11b5f5260045ffd5b61148690612223565b611428565b639378648960e01b5f5260045ffd5b6312d37ee560e31b5f5260045ffd5b346102af575f3660031901126102af5760206001600160a01b0360035416604051908152f35b346102af5760203660031901126102af5760043567ffffffffffffffff81116102af5761150090369060040161053b565b906001600160a01b037f00000000000000000000000000000000000000000000000000000000000000001633036115525761048c9161153e91612c85565b6040519182916020835260208301906103ed565b63570c108560e11b5f5260045ffd5b346102af57602061157d61157436610bb1565b92919091612244565b604051908152f35b346102af5760403660031901126102af576100186115a1610380565b67ffffffffffffffff602435916115b783611083565b165f52600560205260405f209060ff801983541691151516179055565b6003190160e081126102af5760a0136102af5760049060a4356115f681611078565b9060c43561042281611083565b346102af5761162b611614366115d4565b91929060608401359061162682611078565b61288e565b91611637828483612650565b91825f525f60205261165d3360405f20906001600160a01b03165f5260205260405f2090565b549283156116b65783611690916116858461111b6100189961110b6110fd6110f6368c61218a565b6113f0838254612237565b156116a55761169e90612223565b3390612bf8565b60206116b19101612223565b61169e565b63af61069360e01b5f5260045ffd5b346102af5760403660031901126102af576004356116e28161029e565b6024356116ee81611083565b6001600160a01b03821691821561176a578161172961173a92335f52600160205260405f20906001600160a01b03165f5260205260405f2090565b9060ff801983541691151516179055565b60405190151581527f17307eab39ab6107e8899845ad3d59bd9653f200f220920489ca2b5937696c3160203392a3005b62ced3e160e81b5f525f60045260245ffd5b346102af5760603660031901126102af5760206102f760043561111b6024356117a481611078565b604435926117b184611083565b5f526008855260405f209060020b5f5260205260405f2090565b346102af576101203660031901126102af576117e860043561029e565b6117f136610519565b6117fc60c43561029e565b60e43561180881611078565b6101043567ffffffffffffffff81116102af5761182990369060040161053b565b50506001600160a01b037f00000000000000000000000000000000000000000000000000000000000000001633036115525760a061186b61188b93369061218a565b205f52600b60205260405f209062ffffff198254169062ffffff16179055565b60405163a910f80f60e01b8152602090f35b346102af576101603660031901126102af576004356118bb8161029e565b6118c436610519565b6118cd36610ed9565b906101443567ffffffffffffffff81116102af576118ef90369060040161053b565b50506001600160a01b037f00000000000000000000000000000000000000000000000000000000000000001633036115525761192a926125c6565b604080516001600160e01b0319939093168352600f9190910b602083015290f35b346102af5760203660031901126102af576004355f526009602052602060405f2054604051908152f35b346102af576101203660031901126102af576004356119938161029e565b5060a03660231901126102af576101043567ffffffffffffffff81116102af576105c190369060040161053b565b610658909291926101a0806101c08301956119de84825115159052565b60208181015115159085015260408181015115159085015260608181015115159085015260808181015115159085015260a08181015115159085015260c08181015115159085015260e081810151151590850152610100818101511515908501526101208181015115159085015261014081810151151590850152610160818101511515908501526101808181015115159085015201511515910152565b346102af575f3660031901126102af575f6101a0604051611a9c816105e8565b8281528260208201528260408201528260608201528260808201528260a08201528260c08201528260e08201528261010082015282610120820152826101408201528261016082015282610180820152015261048c611af9610648565b5f8152600160208201525f60408201525f60608201525f60808201525f60a08201525f60c0820152611b2e60e0820160019052565b5f6101008201525f6101208201525f6101408201525f6101608201525f6101808201525f6101a0820152604051918291826119c1565b346102af575f3660031901126102af5760206040516001600160a01b037f0000000000000000000000000000000000000000000000000000000000000000168152f35b346102af57611bbe611bb8366115d4565b91612650565b5f52600a602052602060405f2054604051908152f35b346102af5760203660031901126102af576004355f52600b602052602060405f205460020b604051908152f35b346102af57602060ff611c406001600160a01b03611c1e36610865565b91165f526001845260405f20906001600160a01b03165f5260205260405f2090565b54166040519015158152f35b346102af5760a03660031901126102af57600435611c698161029e565b602435611c758161029e565b604435906064359260843567ffffffffffffffff81116102af57611c9d903690600401610727565b926001600160a01b0382163381141580611d38575b611d22576001600160a01b03841615611d0f5715611cfd5761001894611cf560405192600184526020840152604083019160018352606084015260808301604052565b929091612e2c565b626a0d4560e21b5f525f60045260245ffd5b632bfa23e760e11b5f525f60045260245ffd5b63711bec9160e11b5f523360045260245260445ffd5b50805f52600160205260ff611d613360405f20906001600160a01b03165f5260205260405f2090565b541615611cb2565b346102af5760203660031901126102af57600435611d868161029e565b600354906001600160a01b0382163303611e4e576001600160a01b031690338214611e0957611de26001600160a01b03918373ffffffffffffffffffffffffffffffffffffffff1960045416176004556001600160a01b031690565b167fed8889f560326eb138920d842192f0eb3dd22b4f139c87a2c57538e05bae12785f80a3005b60405162461bcd60e51b815260206004820152601760248201527f43616e6e6f74207472616e7366657220746f2073656c660000000000000000006044820152606490fd5b60405162461bcd60e51b815260206004820152601660248201527f4f6e6c792063616c6c61626c65206279206f776e6572000000000000000000006044820152606490fd5b346102af57602061157d611bb8366115d4565b346102af57611eb7611bb8366115d4565b5f526009602052602060405f2054604051908152f35b611ef1915f525f60205260405f20906001600160a01b03165f5260205260405f2090565b5490565b939291906001600160a01b0385163381141580611f2e575b611d22576001600160a01b03821615611d0f5715611cfd5761065894612e2c565b50805f52600160205260ff611f573360405f20906001600160a01b03165f5260205260405f2090565b541615611f0d565b908160209103126102af575190565b6040513d5f823e3d90fd5b634e487b7160e01b5f52603260045260245ffd5b805115611f9a5760200190565b611f79565b8051821015611f9a5760209160051b010190565b91909180518351808203612033575050805190611fcf82610696565b91611fdd6040519384610626565b808352611fec601f1991610696565b013660208401375f5b815181101561202c578061201b60019260051b6020808287010151918901015190611ecd565b6120258286611f9f565b5201611ff5565b5090925050565b635b05999160e01b5f5260045260245260445ffd5b9067ffffffffffffffff909392931681526040602082015261208f612079845160a0604085015260e08401906103ed565b6020850151838203603f190160608501526103ed565b90604084015191603f19828203016080830152602080845192838152019301905f5b8181106120f0575050506080846120dc60606104229697015160a08501906001600160a01b03169052565b01519060c0603f19828503019101526103ed565b825180516001600160a01b0316865260209081015181870152604090950194909201916001016120b1565b908160209103126102af575161042281611083565b6040519061213f602083610626565b5f8252565b3d1561216e573d906121558261070b565b916121636040519384610626565b82523d5f602084013e565b606090565b3561042281611078565b62ffffff8116036102af57565b91908260a09103126102af576040516121a28161060a565b608080829480356121b28161029e565b845260208101356121c28161029e565b602085015260408101356121d58161217d565b604085015260608101356121e881611078565b60608501520135916121f98361029e565b0152565b634e487b7160e01b5f52601160045260245ffd5b9190820180921161221e57565b6121fd565b356104228161029e565b356104228161217d565b9190820391821161221e57565b919093929367ffffffffffffffff831692835f52600560205260ff60405f205416156125b3576001600160a01b03821615610e575761228e610c526007546001600160a01b031690565b9561229b878286866127cb565b916122b1610c526006546001600160a01b031690565b6040516320487ded60e01b81529390602085806122d2858760048401612048565b0381845afa948515610a47575f95612592575b506040516370a0823160e01b81523060048201526020816024818e5afa908115610a47575f91612573575b5085116125105760405163095ea7b360e01b81526001600160a01b03919091166004820152602481018590529798602090899060449082905f905af1978815610a47576123a6986124f3575b50602083612375610c526006546001600160a01b031690565b60405163095ea7b360e01b81526001600160a01b039091166004820152602481019190915298899081906044820190565b03815f6001600160a01b038b165af1918215610a47576123fc986020936124d8575b506123de610c526006546001600160a01b031690565b905f604051809b819582946396f4e9f960e01b845260048401612048565b03925af1958615610a47575f9661248b575b50916124858694927fc15fb748c32ba4eb29c1c311e78533f93b4425eab49ea87c6fe4279ecadca0439461244d610c526007546001600160a01b031690565b906040519586958691936080936001600160a01b0380939897968160a087019a16865216602085015260408401521660608201520152565b0390a390565b7fc15fb748c32ba4eb29c1c311e78533f93b4425eab49ea87c6fe4279ecadca0439391949296506124cd6124859160203d602011610a4057610a318183610626565b96929491935061240e565b6124ee90843d8611610e1457610e078183610626565b6123c8565b61250b9060203d602011610e1457610e078183610626565b61235c565b6040516370a0823160e01b8152306004820152856020826024818f5afa8015610a4757610e33925f91612554575b50634787a10360e11b5f52600452602452604490565b61256d915060203d602011610a4057610a318183610626565b8361253e565b61258c915060203d602011610a4057610a318183610626565b5f612310565b6125ac91955060203d602011610a4057610a318183610626565b935f6122e5565b83630a503cdb60e01b5f5260045260245ffd5b6001600160a01b03163014612641575f9160015b61262357509061260260a06125f361261694369061218a565b205f52600b60205260405f2090565b9062ffffff198254169062ffffff16179055565b63b47b2fb160e01b905f90565b915061263a823561263381611083565b1582612d05565b92906125da565b5063b47b2fb160e01b915f9150565b61265d60a091369061218a565b2091604051916020830193845260020b60408301521515606082015260608152612688608082610626565b51902090565b60408051919061269e9083610626565b6001825281601f196126b06001610696565b015f5b8181106126bf57505050565b60405190604082019180831067ffffffffffffffff841117610605576020926040525f81525f83820152828286010152016126b3565b61278b9061277d93926060608060405161270e8161060a565b8281528260208201528260408201525f83820152015261272c61268e565b9361274761273861065a565b6001600160a01b039093168352565b602082015261275584611f8d565b5261275f83611f8d565b50604080516001600160a01b03909216602083015290938491820190565b03601f198101845283610626565b61279e612796610669565b5f8152613007565b906127a7610678565b9283526127b2612130565b602084015260408301525f60608301525b608082015290565b92612855612847946127c393606060806040516127e78161060a565b8281528260208201528260408201525f83820152015261280561268e565b9561281161273861065a565b602082015261281f86611f8d565b5261282985611f8d565b50604080516001600160a01b03909216602083015290958691820190565b03601f198101865285610626565b612860612796610669565b92612869610678565b948552612874612130565b602086015260408501526001600160a01b03166060840152565b60020b9060020b9081156128f957627fffff1981145f1983141661221e5781810590825f821291826128ea575b50506128d4575b60020b028060020b90810361221e5790565b60020b627fffff19811461221e575f19016128c2565b0760020b15159050825f6128bb565b634e487b7160e01b5f52601260045260245ffd5b909291926001600160a01b038216938415611d0f5761294960405192600184526020840152604083019160018352606084015260808301604052565b928151845190818103612a515750505f5b825181101561299f578060019160051b61299761298f87611382602080868b010151958c010151945f525f60205260405f2090565b918254612211565b90550161295a565b5092919360018251145f14612a16576020828101518482015160408051928352928201525f9133917fc3d58168c5ae7397731d063d5bbf3d657854427343f4c083240f7aacaa2d0f629190a45b8051600103612a0b579060208061065895930151910151915f336133c9565b610658935f3361329f565b5f6040517f4a39dc06d4c0dbc64b70af90fd698a233a518aa5d07e595d983b8c0526c8f7fb339180612a49888883613217565b0390a46129ec565b635b05999160e01b5f5260045260245260445ffd5b815f190481118202158302156102af57020490565b92906001600160a01b038416928315611cfd57612ab560405192600184526020840152604083019160018352606084015260808301604052565b91906020915f604051612ac88582610626565b528151845190818103612a515750505f5b8251811015612b6d578060051b848082860101519187010151612b0789611382845f525f60205260405f2090565b54818110612b3257896113826001959493612b2b9303935f525f60205260405f2090565b5501612ad9565b6040516303dee4c560e01b81526001600160a01b038b16600482015260248101919091526044810182905260648101839052608490fd5b0390fd5b50945090915f939260018351148514612bc4579182015191015160408051928352602083019190915233917fc3d58168c5ae7397731d063d5bbf3d657854427343f4c083240f7aacaa2d0f6291819081015b0390a4565b50612bbf7f4a39dc06d4c0dbc64b70af90fd698a233a518aa5d07e595d983b8c0526c8f7fb91604051918291339583613217565b9091906001600160a01b038116612c2557505f808080612c1994865af11590565b612c205750565b613062565b91906001600160a01b036040519263a9059cbb60e01b845216600483015260248201525f604060208260448582885af13d15601f3d11600185511416171692828152826020820152015215612c775750565b6001600160a01b031661302d565b5f9182918160405192839283378101838152039082305af190612ca6612144565b916106585750805115612cbb57602081519101fd5b6314815f4760e31b5f5260045ffd5b600291820b910b0390627fffff198212627fffff83131761221e57565b9060020b9060020b0190627fffff198212627fffff83131761221e57565b919091612d3e612d186110f6368461218a565b7f0000000000000000000000000000000000000000000000000000000000000000613097565b5050939050612d6b612d64612d566110f6368661218a565b5f52600b60205260405f2090565b5460020b90565b908460020b918060020b83135f14612dde575b828160020b1315612d9357505050505b5f9190565b612dab8261111b8361110b6110fd6110f6368b61218a565b5480612dcd5750612dc890612dc260608601612173565b90612ce7565b612d7e565b9250612dd893613144565b60019190565b828160020b1215612df25750505050612d8e565b612e0a8261111b8361110b6110fd6110f6368b61218a565b5480612dcd5750612e2790612e2160608601612173565b90612cca565b612dde565b9493929091938451825190818103612a51575050935f906001600160a01b03871695861515956001600160a01b038616801515945b8451811015612f3a578060051b90898988602080868b010151958c01015192612eb9575b93600194612e97575b50505001612e61565b612eaf9161138261298f925f525f60205260405f2090565b90555f8981612e8e565b50509091612ed28d611382835f525f60205260405f2090565b54828110612f03578291898f612efa600197968f950391611382855f525f60205260405f2090565b55909450612e85565b6040516303dee4c560e01b81526001600160a01b038f16600482015260248101919091526044810183905260648101829052608490fd5b5091989593929790965060018851145f14612fcd5760208881015186820151604080519283529282015233917fc3d58168c5ae7397731d063d5bbf3d657854427343f4c083240f7aacaa2d0f6291a45b612f96575b5050505050565b8451600103612fbc57602080612fb296015192015192336133c9565b5f80808080612f8f565b612fc89491923361329f565b612fb2565b6040517f4a39dc06d4c0dbc64b70af90fd698a233a518aa5d07e595d983b8c0526c8f7fb339180612fff898d83613217565b0390a4612f8a565b604051906397a657c960e01b602083015251602482015260248152610422604482610626565b3d60405191632c4b17e760e21b8352600483015260406024830152806044830152805f606484013e601f801991011660640190fd5b3d60405191638549db5960e01b8352600483015260406024830152806044830152805f606484013e601f801991011660640190fd5b6130ea6020916001600160a01b03949360405184810191825260066040820152604081526130c6606082610626565b519020604051958680948193631e2eaeaf60e01b8352600483019190602083019252565b0392165afa918215610a47575f92613123575b506001600160a01b038216918060a01c60020b9162ffffff808360b81c169260d01c1690565b61313d91925060203d602011610a4057610a318183610626565b905f6130fd565b909192600160ff1b811461221e576131c9846131e19461298f9461319e855f03845f146131fa576131986401000276a45b61317d610687565b87151581529260208401526001600160a01b03166040830152565b8261354b565b946131c26131ba8561111b8661110b6110fd6110f6368a61218a565b918254612237565b9055612650565b93156131e557600f0b925f52600a60205260405f2090565b9055565b60801d600f0b925f52600a60205260405f2090565b61319873fffd8963efd1fc6a506488495d951d5263988d25613175565b909161322e61042293604084526040840190610a76565b916020818403910152610a76565b908160209103126102af575161042281610300565b939061042295936001600160a01b0361329194816132839416885216602087015260a0604087015260a0860190610a76565b908482036060860152610a76565b9160808184039101526103ed565b9091949293853b6132b3575b505050505050565b6020936132d591604051968795869563bc197c8160e01b875260048701613251565b03815f6001600160a01b0387165af15f9181613364575b5061332657506132fa612144565b805191908261331f57632bfa23e760e11b5f526001600160a01b03821660045260245ffd5b9050602001fd5b6001600160e01b0319166343e6837f60e01b0161334957505f80808080806132ab565b632bfa23e760e11b5f526001600160a01b031660045260245ffd5b61338791925060203d60201161338e575b61337f8183610626565b81019061323c565b905f6132ec565b503d613375565b91926001600160a01b0360a094816104229897941685521660208401526040830152606082015281608082015201906103ed565b9091949293853b6133dc57505050505050565b6020936133fe91604051968795869563f23a6e6160e01b875260048701613395565b03815f6001600160a01b0387165af15f9181613446575b5061342357506132fa612144565b6001600160e01b031916630dc5919f60e01b0161334957505f80808080806132ab565b61346091925060203d60201161338e5761337f8183610626565b905f613415565b613519610422936134f26080610120956001600160a01b03813561348a8161029e565b1686526001600160a01b0360208201356134a38161029e565b16602087015262ffffff60408201356134bb8161217d565b16604087015260608101356134cf81611078565b60020b606087015201356134e28161029e565b6001600160a01b03166080850152565b8051151560a0840152602081015160c0840152604001516001600160a01b031660e0830152565b81610100820152016020905f81520190565b600f0b6f7fffffffffffffffffffffffffffffff19811461221e575f0390565b604051633cf3645360e21b8152916020838061356b848660048401613467565b03815f6001600160a01b037f0000000000000000000000000000000000000000000000000000000000000000165af1928315610a47575f93613693575b505115155b15613632578160801d5f81600f0b126135f8575b505f82600f0b136135d0575090565b6135df60206104229201612223565b826fffffffffffffffffffffffffffffffff1690613795565b61362c9061362661361161360b85612223565b9261352b565b6fffffffffffffffffffffffffffffffff1690565b906136b8565b5f6135c1565b81600f0b5f8112613677575b508160801d5f81600f0b1361365257505090565b61365e61042292612223565b906fffffffffffffffffffffffffffffffff1690613795565b61368d9061362661361161360b60208601612223565b5f61363e565b6135ad9193506136b19060203d602011610a4057610a318183610626565b92906135a8565b6001600160a01b037f000000000000000000000000000000000000000000000000000000000000000016803b156102af57604051632961046560e21b81526001600160a01b0383166004820152925f8460248183865af1928315610a4757826fffffffffffffffffffffffffffffffff61373e935f9760209761377b575b501691612bf8565b600460405180948193630476982d60e21b83525af18015610a47576137605750565b6137789060203d602011610a4057610a318183610626565b50565b806137898a61378f93610626565b80610b7d565b5f613736565b6001600160a01b037f00000000000000000000000000000000000000000000000000000000000000001690813b156102af5760646001600160a01b03915f80946fffffffffffffffffffffffffffffffff6040519788968795630b0d9c0960e01b87521660048601523060248601521660448401525af18015610a47576138195750565b5f61065891610626565b919290156138855750815115613837575090565b3b156138405790565b60405162461bcd60e51b815260206004820152601d60248201527f416464726573733a2063616c6c20746f206e6f6e2d636f6e74726163740000006044820152606490fd5b8251909150156138985750805190602001fd5b60405162461bcd60e51b8152908190612b69906004830161041156fea2646970667358221220d3731f653780500cdd3450690bb1b351ec5181b5fd1c590cc9d5376f8d6d13cb64736f6c634300081a0033","linkReferences":{}},"methodIdentifiers":{"acceptOwnership()":"79ba5097","afterAddLiquidity(address,(address,address,uint24,int24,address),(int24,int24,int256,bytes32),int256,int256,bytes)":"9f063efc","afterDonate(address,(address,address,uint24,int24,address),uint256,uint256,bytes)":"e1b4af69","afterInitialize(address,(address,address,uint24,int24,address),uint160,int24,bytes)":"a910f80f","afterRemoveLiquidity(address,(address,address,uint24,int24,address),(int24,int24,int256,bytes32),int256,int256,bytes)":"6c2bbe7e","afterSwap(address,(address,address,uint24,int24,address),(bool,int256,uint160),int256,bytes)":"b47b2fb1","allowlistDestinationChain(uint64,bool)":"96d3b83d","allowlistedChains(uint64)":"0bb106eb","balanceOf(address,uint256)":"00fdd58e","balanceOfBatch(address[],uint256[])":"4e1273f4","beforeAddLiquidity(address,(address,address,uint24,int24,address),(int24,int24,int256,bytes32),bytes)":"259982e5","beforeDonate(address,(address,address,uint24,int24,address),uint256,uint256,bytes)":"b6a8b0fa","beforeInitialize(address,(address,address,uint24,int24,address),uint160,bytes)":"3440d820","beforeRemoveLiquidity(address,(address,address,uint24,int24,address),(int24,int24,int256,bytes32),bytes)":"21d0ee70","beforeSwap(address,(address,address,uint24,int24,address),(bool,int256,uint160),bytes)":"575e24b4","cancelOrder((address,address,uint24,int24,address),int24,bool)":"a0dc3f99","chainSelector()":"4e4bc847","claimTokensSupply(uint256)":"b5a33914","claimableOutputTokens(uint256)":"3bb76cc1","getClaimSupplyAmount((address,address,uint24,int24,address),int24,bool)":"ffe2ec0d","getClaimableOutputAmount((address,address,uint24,int24,address),int24,bool)":"e40997d1","getHookPermissions()":"c4e833ce","getPositionId((address,address,uint24,int24,address),int24,bool)":"fa59cb0c","isApprovedForAll(address,address)":"e985e9c5","lastTicks(bytes32)":"e4cbfea5","owner()":"8da5cb5b","pendingOrders(bytes32,int24,bool)":"a2dc31b2","placeOrder((address,address,uint24,int24,address),int24,bool,uint256)":"7e8941af","poolManager()":"dc4c90d3","redeem((address,address,uint24,int24,address),int24,bool,uint256,uint64)":"872d4000","safeBatchTransferFrom(address,address,uint256[],uint256[],bytes)":"2eb2c2d6","safeTransferFrom(address,address,uint256,uint256,bytes)":"f242432a","setApprovalForAll(address,bool)":"a22cb465","supportsInterface(bytes4)":"01ffc9a7","transferOwnership(address)":"f2fde38b","transferTokensPayLINK(uint64,address,address,uint256)":"95e1402c","transferTokensPayNative(uint64,address,address,uint256)":"51419b4b","unlockCallback(bytes)":"91dd7346","uri(uint256)":"0e89341c","withdraw(address)":"51cff8d9","withdrawToken(address,address)":"3aeac4e1"},"id":100}