{"abi":[{"type":"function","name":"ADDRESS_ZERO","inputs":[],"outputs":[{"name":"","type":"address","internalType":"Currency"}],"stateMutability":"view"},{"type":"error","name":"Wrap__ERC20TransferFailed","inputs":[{"name":"token","type":"address","internalType":"address"},{"name":"reason","type":"bytes","internalType":"bytes"}]},{"type":"error","name":"Wrap__NativeTransferFailed","inputs":[{"name":"recipient","type":"address","internalType":"address"},{"name":"reason","type":"bytes","internalType":"bytes"}]}],"bytecode":{"object":"0x60808060405234601757606f9081601c823930815050f35b5f80fdfe60808060405260043610156011575f80fd5b5f3560e01c6366e79509146023575f80fd5b5f366003190112603557805f60209252f35b5f80fdfea2646970667358221220d4166fd3c4af58ad9395a2203a6eebbf434febed73a52e2eefd3ac360f2537a264736f6c634300081a0033","linkReferences":{}},"methodIdentifiers":{"ADDRESS_ZERO()":"66e79509"},"id":89}