{"abi":[{"type":"receive","stateMutability":"payable"},{"type":"function","name":"LIQUIDITY_PARAMS","inputs":[],"outputs":[{"name":"tickLower","type":"int24","internalType":"int24"},{"name":"tickUpper","type":"int24","internalType":"int24"},{"name":"liquidityDelta","type":"int256","internalType":"int256"},{"name":"salt","type":"bytes32","internalType":"bytes32"}],"stateMutability":"view"},{"type":"function","name":"MAX_PRICE_LIMIT","inputs":[],"outputs":[{"name":"","type":"uint160","internalType":"uint160"}],"stateMutability":"view"},{"type":"function","name":"MIN_PRICE_LIMIT","inputs":[],"outputs":[{"name":"","type":"uint160","internalType":"uint160"}],"stateMutability":"view"},{"type":"function","name":"REMOVE_LIQUIDITY_PARAMS","inputs":[],"outputs":[{"name":"tickLower","type":"int24","internalType":"int24"},{"name":"tickUpper","type":"int24","internalType":"int24"},{"name":"liquidityDelta","type":"int256","internalType":"int256"},{"name":"salt","type":"bytes32","internalType":"bytes32"}],"stateMutability":"view"},{"type":"function","name":"SWAP_PARAMS","inputs":[],"outputs":[{"name":"zeroForOne","type":"bool","internalType":"bool"},{"name":"amountSpecified","type":"int256","internalType":"int256"},{"name":"sqrtPriceLimitX96","type":"uint160","internalType":"uint160"}],"stateMutability":"view"}],"bytecode":{"object":"0x608060405234610146575f606061001461014a565b607719815260786020820152670de0b6b3a7640000604082015201526378ffff8865ffffffffffff195f5416175f55670de0b6b3a76400006001555f6002555f606061005e61014a565b607719815260786020820152670de0b6b3a763ffff19604082015201526378ffff8865ffffffffffff196003541617600355670de0b6b3a763ffff196004555f6005556040516060810181811060018060401b038211176101325760409081526001808352606319602084018190526bb504f333f9de6484597d89b39383018490526006805460ff1916909217909155600755600880546001600160a01b03199081169093179055602680548316600e17905560278054909216614000600160a01b0317909155516101ad908161016a8239f35b634e487b7160e01b5f52604160045260245ffd5b5f80fd5b60405190608082016001600160401b038111838210176101325760405256fe608080604052600436101561001c575b50361561001a575f80fd5b005b5f3560e01c90816339cd20131461013a57508063542524dd1461010c57806393ad73ed146100cb578063b1a73b8a146100825763c7b8e15d1461005f575f61000f565b3461007e575f36600319011261007e5760206040516401000276a48152f35b5f80fd5b3461007e575f36600319011261007e57606060ff6006541660075473ffffffffffffffffffffffffffffffffffffffff6008541690604051921515835260208301526040820152f35b3461007e575f36600319011261007e575f54600154600280546040805185840b815260189590951c90920b6020850152908301919091526060820152608090f35b3461007e575f36600319011261007e57602060405173fffd8963efd1fc6a506488495d951d5263988d258152f35b3461007e575f36600319011261007e57600354600454600554600283810b855260189390931c90920b602084015260408301526060820152608090f3fea2646970667358221220ad2f725bbb56e706384af5486d4e65b69ebc79258f9e906c52d180f1c2d0184164736f6c634300081a0033","linkReferences":{}},"methodIdentifiers":{"LIQUIDITY_PARAMS()":"93ad73ed","MAX_PRICE_LIMIT()":"542524dd","MIN_PRICE_LIMIT()":"c7b8e15d","REMOVE_LIQUIDITY_PARAMS()":"39cd2013","SWAP_PARAMS()":"b1a73b8a"},"id":115}