{"abi":[{"type":"constructor","inputs":[{"name":"_manager","type":"address","internalType":"contract IPoolManager"}],"stateMutability":"nonpayable"},{"type":"function","name":"manager","inputs":[],"outputs":[{"name":"","type":"address","internalType":"contract IPoolManager"}],"stateMutability":"view"},{"type":"function","name":"modifyLiquidity","inputs":[{"name":"key","type":"tuple","internalType":"struct PoolKey","components":[{"name":"currency0","type":"address","internalType":"Currency"},{"name":"currency1","type":"address","internalType":"Currency"},{"name":"fee","type":"uint24","internalType":"uint24"},{"name":"tickSpacing","type":"int24","internalType":"int24"},{"name":"hooks","type":"address","internalType":"contract IHooks"}]},{"name":"params","type":"tuple","internalType":"struct IPoolManager.ModifyLiquidityParams","components":[{"name":"tickLower","type":"int24","internalType":"int24"},{"name":"tickUpper","type":"int24","internalType":"int24"},{"name":"liquidityDelta","type":"int256","internalType":"int256"},{"name":"salt","type":"bytes32","internalType":"bytes32"}]},{"name":"hookData","type":"bytes","internalType":"bytes"},{"name":"settleUsingBurn","type":"bool","internalType":"bool"},{"name":"takeClaims","type":"bool","internalType":"bool"}],"outputs":[{"name":"delta","type":"int256","internalType":"BalanceDelta"}],"stateMutability":"payable"},{"type":"function","name":"modifyLiquidity","inputs":[{"name":"key","type":"tuple","internalType":"struct PoolKey","components":[{"name":"currency0","type":"address","internalType":"Currency"},{"name":"currency1","type":"address","internalType":"Currency"},{"name":"fee","type":"uint24","internalType":"uint24"},{"name":"tickSpacing","type":"int24","internalType":"int24"},{"name":"hooks","type":"address","internalType":"contract IHooks"}]},{"name":"params","type":"tuple","internalType":"struct IPoolManager.ModifyLiquidityParams","components":[{"name":"tickLower","type":"int24","internalType":"int24"},{"name":"tickUpper","type":"int24","internalType":"int24"},{"name":"liquidityDelta","type":"int256","internalType":"int256"},{"name":"salt","type":"bytes32","internalType":"bytes32"}]},{"name":"hookData","type":"bytes","internalType":"bytes"}],"outputs":[{"name":"delta","type":"int256","internalType":"BalanceDelta"}],"stateMutability":"payable"},{"type":"function","name":"unlockCallback","inputs":[{"name":"rawData","type":"bytes","internalType":"bytes"}],"outputs":[{"name":"","type":"bytes","internalType":"bytes"}],"stateMutability":"nonpayable"}],"bytecode":{"object":"0x60a034607357601f610e7038819003918201601f19168301916001600160401b03831184841017607757808492602094604052833981010312607357516001600160a01b0381168103607357608052604051610de4908161008c82396080518181816097015281816105f301526106f90152f35b5f80fd5b634e487b7160e01b5f52604160045260245ffdfe60806040526004361015610011575f80fd5b5f3560e01c80630a5b11e41461071d578063481c6a75146106da5780635a6bcfda1461046f576391dd734614610045575f80fd5b346104585760203660031901126104585760043567ffffffffffffffff8111610458573660238201121561045857806004013567ffffffffffffffff81116104585781016024810190368211610458577f0000000000000000000000000000000000000000000000000000000000000000916001600160a01b03831693843303610458576020818403126104585760248101359067ffffffffffffffff821161045857016101a081840312610458576040519161010183610827565b61010d602483016108b1565b835260a0601f198386030112610458576040519361012a85610857565b610136604484016108b1565b8552610144606484016108b1565b6020860152608483013562ffffff8116810361045857604086015261016b60a484016108c5565b606086015260c48301356001600160a01b03811681036104585760809160249183880152602086019687528460e319910301011261045857604051906101b082610873565b6101bc60e484016108c5565b82526101cb61010484016108c5565b602083015261012483013560408301526101448301356060830152604084019182526101648301359667ffffffffffffffff88116104585761021760409260246102db9a8701016109c4565b908160608701526102ad5f6102436101a46102356101848a01610a0a565b9860808b01998a5201610a0a565b9560a089019687526102ef8a5191519587519d8e9788968795632d35e7ed60e11b875260048701906001600160a01b036080809282815116855282602082015116602086015262ffffff6040820151166040860152606081015160020b6060860152015116910152565b8051600290810b60a48701526020820151900b60c4860152604081015160e486015260600151610104850152565b610140610124840152610144830190610a17565b03925af1948515610464575f9561042a575b61036296508560801d600f0b86600f0b935f82126103f6575b5f85126103bd575b505f8113610390575b505f8313610366575b86866040519060208201526020815261034e60408261088f565b604051918291602083526020830190610a17565b0390f35b6001600160a01b0380602061038697510151169451169151151593610cce565b5f80808080610334565b6103b7906001600160a01b0387515116906001600160a01b03875116848651151593610cce565b5f61032b565b6103f0906001600160a01b0360208951015116906001600160a01b03885116856103e689610a3b565b9251151593610a86565b5f610322565b6104256001600160a01b03885151166001600160a01b0388511661041985610a3b565b90868551151593610a86565b61031a565b94506040863d60401161045c575b816104456040938361088f565b8101031261045857610362955194610301565b5f80fd5b3d9150610438565b6040513d5f823e3d90fd5b61014036600319011261045857610485366108d3565b61048e3661095a565b90610124359167ffffffffffffffff8311610458576105c45f926001600160a01b03926104c26105e69636906004016109c4565b916105a3604051936104d385610827565b33855260208501928352604085019384526060850190815261058e608086019489865261055c60a08801958b87526040519a8b996020808c0152511660408a01525160608901906001600160a01b036080809282815116855282602082015116602086015262ffffff6040820151166040860152606081015160020b6060860152015116910152565b518051600290810b6101008901526020820151900b610120880152604081015161014088015260600151610160870152565b516101a06101808601526101e0850190610a17565b915115156101a08401525115156101c083015203601f19810183528261088f565b604051809381926348c8949160e01b8352602060048401526024830190610a17565b0381836001600160a01b037f0000000000000000000000000000000000000000000000000000000000000000165af1908115610464575f91610660575b5060208180518101031261045857602001514780610647575b602082604051908152f35b5f80808093335af11561065a578161063c565b33610d79565b90503d805f833e610671818361088f565b8101906020818303126104585780519067ffffffffffffffff8211610458570181601f82011215610458578051906106a8826109a8565b926106b6604051948561088f565b8284526020838301011161045857815f9260208093018386015e8301015281610623565b34610458575f3660031901126104585760206040516001600160a01b037f0000000000000000000000000000000000000000000000000000000000000000168152f35b61018036600319011261045857610733366108d3565b61073c3661095a565b906101243567ffffffffffffffff81116104585761075e9036906004016109c4565b916101443592831515809403610458576101643592831515809403610458576105e6945f946105a36105c49461058e6001600160a01b039761055c604051976107a689610827565b3389526020890190815260408901928352606089019485526080890197885260a089019687526040519a8b996020808c0152511660408a01525160608901906001600160a01b036080809282815116855282602082015116602086015262ffffff6040820151166040860152606081015160020b6060860152015116910152565b60c0810190811067ffffffffffffffff82111761084357604052565b634e487b7160e01b5f52604160045260245ffd5b60a0810190811067ffffffffffffffff82111761084357604052565b6080810190811067ffffffffffffffff82111761084357604052565b90601f8019910116810190811067ffffffffffffffff82111761084357604052565b35906001600160a01b038216820361045857565b35908160020b820361045857565b60a090600319011261045857604051906108ec82610857565b816004356001600160a01b03811681036104585781526024356001600160a01b038116810361045857602082015260443562ffffff811681036104585760408201526064358060020b8103610458576060820152608435906001600160a01b03821682036104585760800152565b60809060a3190112610458576040519061097382610873565b8160a4358060020b810361045857815260c4358060020b810361045857602082015260e4356040820152606061010435910152565b67ffffffffffffffff811161084357601f01601f191660200190565b81601f82011215610458578035906109db826109a8565b926109e9604051948561088f565b8284526020838301011161045857815f926020809301838601378301015290565b3590811515820361045857565b805180835260209291819084018484015e5f828201840152601f01601f1916010190565b600160ff1b8114610a4b575f0390565b634e487b7160e01b5f52601160045260245ffd5b90816020910312610458575180151581036104585790565b90816020910312610458575190565b929315610af5576001600160a01b0316803b1561045857604051637a94c56560e11b81526001600160a01b0392831660048201529290911660248301526044820192909252905f908290818381606481015b03925af1801561046457610ae95750565b5f610af39161088f565b565b916001600160a01b031680610b605750506001600160a01b0360046020926040519485938492630476982d60e21b8452165af1801561046457610b355750565b610b569060203d602011610b59575b610b4e818361088f565b810190610a77565b50565b503d610b44565b9092916001600160a01b031691823b1561045857604051632961046560e21b8152600481018390525f9490858160248183895af1801561046457610cb2575b506001600160a01b031684308214610c57576020929160649160405195869485936323b872dd60e01b8552600485015288602485015260448401525af18015610c4c57916020918493610c1f575b505b600460405180958193630476982d60e21b83525af1908115610c135750610b355750565b604051903d90823e3d90fd5b610c3e90833d8511610c45575b610c36818361088f565b810190610a5f565b505f610bed565b503d610c2c565b6040513d85823e3d90fd5b9290506044602092604051948593849263a9059cbb60e01b845288600485015260248401525af18015610c4c57916020918493610c95575b50610bef565b610cab90833d8511610c4557610c36818361088f565b505f610c8f565b610cbf9195505f9061088f565b5f936001600160a01b03610b9f565b929315610d24576001600160a01b0316803b1561045857604051630ab714fb60e11b81526001600160a01b0392831660048201529290911660248301526044820192909252905f90829081838160648101610ad8565b9092906001600160a01b0316803b15610458575f92836064926001600160a01b0394856040519889978896630b0d9c0960e01b885216600487015216602485015260448401525af1801561046457610ae95750565b3d60405191638549db5960e01b8352600483015260406024830152806044830152805f606484013e601f801991011660640190fdfea2646970667358221220c18ffce7d7cfc61fd773f285a94cb5e1d427a72874e855cae4ed18616acbdc1264736f6c634300081a0033","linkReferences":{}},"methodIdentifiers":{"manager()":"481c6a75","modifyLiquidity((address,address,uint24,int24,address),(int24,int24,int256,bytes32),bytes)":"5a6bcfda","modifyLiquidity((address,address,uint24,int24,address),(int24,int24,int256,bytes32),bytes,bool,bool)":"0a5b11e4","unlockCallback(bytes)":"91dd7346"},"id":100}