{"abi":[{"type":"constructor","inputs":[{"name":"_manager","type":"address","internalType":"contract IPoolManager"}],"stateMutability":"nonpayable"},{"type":"function","name":"manager","inputs":[],"outputs":[{"name":"","type":"address","internalType":"contract IPoolManager"}],"stateMutability":"view"},{"type":"function","name":"modifyLiquidity","inputs":[{"name":"key","type":"tuple","internalType":"struct PoolKey","components":[{"name":"currency0","type":"address","internalType":"Currency"},{"name":"currency1","type":"address","internalType":"Currency"},{"name":"fee","type":"uint24","internalType":"uint24"},{"name":"tickSpacing","type":"int24","internalType":"int24"},{"name":"hooks","type":"address","internalType":"contract IHooks"}]},{"name":"params","type":"tuple","internalType":"struct IPoolManager.ModifyLiquidityParams","components":[{"name":"tickLower","type":"int24","internalType":"int24"},{"name":"tickUpper","type":"int24","internalType":"int24"},{"name":"liquidityDelta","type":"int256","internalType":"int256"},{"name":"salt","type":"bytes32","internalType":"bytes32"}]},{"name":"hookData","type":"bytes","internalType":"bytes"},{"name":"settleUsingBurn","type":"bool","internalType":"bool"},{"name":"takeClaims","type":"bool","internalType":"bool"}],"outputs":[{"name":"delta","type":"int256","internalType":"BalanceDelta"}],"stateMutability":"payable"},{"type":"function","name":"modifyLiquidity","inputs":[{"name":"key","type":"tuple","internalType":"struct PoolKey","components":[{"name":"currency0","type":"address","internalType":"Currency"},{"name":"currency1","type":"address","internalType":"Currency"},{"name":"fee","type":"uint24","internalType":"uint24"},{"name":"tickSpacing","type":"int24","internalType":"int24"},{"name":"hooks","type":"address","internalType":"contract IHooks"}]},{"name":"params","type":"tuple","internalType":"struct IPoolManager.ModifyLiquidityParams","components":[{"name":"tickLower","type":"int24","internalType":"int24"},{"name":"tickUpper","type":"int24","internalType":"int24"},{"name":"liquidityDelta","type":"int256","internalType":"int256"},{"name":"salt","type":"bytes32","internalType":"bytes32"}]},{"name":"hookData","type":"bytes","internalType":"bytes"}],"outputs":[{"name":"delta","type":"int256","internalType":"BalanceDelta"}],"stateMutability":"payable"},{"type":"function","name":"unlockCallback","inputs":[{"name":"rawData","type":"bytes","internalType":"bytes"}],"outputs":[{"name":"","type":"bytes","internalType":"bytes"}],"stateMutability":"nonpayable"}],"bytecode":{"object":"0x60a034607a57601f6112ac38819003918201601f19168301916001600160401b03831184841017607e57808492602094604052833981010312607a57516001600160a01b0381168103607a57608052604051611219908161009382396080518181816097015281816107ba015281816108c00152610db30152f35b5f80fd5b634e487b7160e01b5f52604160045260245ffdfe60806040526004361015610011575f80fd5b5f3560e01c80630a5b11e4146108e4578063481c6a75146108a15780635a6bcfda14610636576391dd734614610045575f80fd5b3461061f57602036600319011261061f5760043567ffffffffffffffff811161061f573660238201121561061f57806004013567ffffffffffffffff811161061f578101602481019036821161061f577f0000000000000000000000000000000000000000000000000000000000000000926001600160a01b0384169081330361061f5760208184031261061f5760248101359067ffffffffffffffff821161061f5701906101a08284031261061f5760405191610102836109ee565b61010e60248201610a78565b835260a0601f19828603011261061f576040519361012b85610a1e565b61013760448301610a78565b855261014560648301610a78565b6020860152608482013562ffffff8116810361061f57604086015261016c60a48301610a8c565b606086015260c48201356001600160a01b038116810361061f5760809160249183880152602086019687528360e319910301011261061f57604051956101b187610a3a565b6101bd60e48301610a8c565b87526101cc6101048301610a8c565b6020880152610124820135604088015261014482013560608801526040840196875261016482013567ffffffffffffffff811161061f5761030696602461021592850101610b8b565b916060850192835260406102406101a46102326101848501610bd1565b936080890194855201610bd1565b9360a0870194855261026d60a08951208b51805160020b6060602083015160020b92015192309089610c2d565b5050956102d85f8c61031a8c519151955187519e8f9788968795632d35e7ed60e11b875260048701906001600160a01b036080809282815116855282602082015116602086015262ffffff6040820151166040860152606081015160020b6060860152015116910152565b8051600290810b60a48701526020820151900b60c4860152604081015160e486015260600151610104850152565b610140610124840152610144830190610bde565b03925af196871561062b575f976105f3575b5061035260a08751208951805160020b6060602083015160020b92015192309087610c2d565b5050906103776001600160a01b038851511630906001600160a01b0389511690610d9b565b939150506fffffffffffffffffffffffffffffffff6103b16001600160a01b0360208b5101511630906001600160a01b038b511690610d9b565b9891505016600f0b9060408b510151915f83820193841291129080158216911516176105df576fffffffffffffffffffffffffffffffff16600f0b0361059a57604061047b995101515f81125f1461055557505f8213801561054c575b61041790610c02565b5f82128015610543575b61042b9015610c02565b5f821261050f575b5f85126104d6575b505f81136104a9575b505f831361047f575b868660405190602082015260208152610467604082610a56565b604051918291602083526020830190610bde565b0390f35b6001600160a01b0380602061049f975101511694511691511515936110b6565b5f8080808061044d565b6104d0906001600160a01b0387515116906001600160a01b038751168486511515936110b6565b5f610444565b610509906001600160a01b0360208951015116906001600160a01b03885116856104ff89610c1d565b9251151593610e6e565b5f61043b565b61053e6001600160a01b03885151166001600160a01b0388511661053285610c1d565b90868551151593610e6e565b610433565b505f8512610421565b505f851361040e565b5f121561042b575f82128015610591575b61056f90610c02565b5f82138015610588575b6105839015610c02565b61042b565b505f8513610579565b505f8512610566565b60405162461bcd60e51b815260206004820152601a60248201527f6c6971756964697479206368616e676520696e636f72726563740000000000006044820152606490fd5b634e487b7160e01b5f52601160045260245ffd5b9096506040813d604011610623575b8161060f60409383610a56565b8101031261061f5751955f61032c565b5f80fd5b3d9150610602565b6040513d5f823e3d90fd5b61014036600319011261061f5761064c36610a9a565b61065536610b21565b90610124359167ffffffffffffffff831161061f5761078b5f926001600160a01b03926106896107ad963690600401610b8b565b9161076a6040519361069a856109ee565b338552602085019283526040850193845260608501908152610755608086019489865261072360a08801958b87526040519a8b996020808c0152511660408a01525160608901906001600160a01b036080809282815116855282602082015116602086015262ffffff6040820151166040860152606081015160020b6060860152015116910152565b518051600290810b6101008901526020820151900b610120880152604081015161014088015260600151610160870152565b516101a06101808601526101e0850190610bde565b915115156101a08401525115156101c083015203601f198101835282610a56565b604051809381926348c8949160e01b8352602060048401526024830190610bde565b0381836001600160a01b037f0000000000000000000000000000000000000000000000000000000000000000165af190811561062b575f91610827575b5060208180518101031261061f5760200151478061080e575b602082604051908152f35b5f80808093335af1156108215781610803565b33611161565b90503d805f833e6108388183610a56565b81019060208183031261061f5780519067ffffffffffffffff821161061f570181601f8201121561061f5780519061086f82610b6f565b9261087d6040519485610a56565b8284526020838301011161061f57815f9260208093018386015e83010152816107ea565b3461061f575f36600319011261061f5760206040516001600160a01b037f0000000000000000000000000000000000000000000000000000000000000000168152f35b61018036600319011261061f576108fa36610a9a565b61090336610b21565b906101243567ffffffffffffffff811161061f57610925903690600401610b8b565b91610144359283151580940361061f57610164359283151580940361061f576107ad945f9461076a61078b946107556001600160a01b03976107236040519761096d896109ee565b3389526020890190815260408901928352606089019485526080890197885260a089019687526040519a8b996020808c0152511660408a01525160608901906001600160a01b036080809282815116855282602082015116602086015262ffffff6040820151166040860152606081015160020b6060860152015116910152565b60c0810190811067ffffffffffffffff821117610a0a57604052565b634e487b7160e01b5f52604160045260245ffd5b60a0810190811067ffffffffffffffff821117610a0a57604052565b6080810190811067ffffffffffffffff821117610a0a57604052565b90601f8019910116810190811067ffffffffffffffff821117610a0a57604052565b35906001600160a01b038216820361061f57565b35908160020b820361061f57565b60a090600319011261061f5760405190610ab382610a1e565b816004356001600160a01b038116810361061f5781526024356001600160a01b038116810361061f57602082015260443562ffffff8116810361061f5760408201526064358060020b810361061f576060820152608435906001600160a01b038216820361061f5760800152565b60809060a319011261061f5760405190610b3a82610a3a565b8160a4358060020b810361061f57815260c4358060020b810361061f57602082015260e4356040820152606061010435910152565b67ffffffffffffffff8111610a0a57601f01601f191660200190565b81601f8201121561061f57803590610ba282610b6f565b92610bb06040519485610a56565b8284526020838301011161061f57815f926020809301838601378301015290565b3590811515820361061f57565b805180835260209291819084018484015e5f828201840152601f01601f1916010190565b15610c0957565b634e487b7160e01b5f52600160045260245ffd5b600160ff1b81146105df575f0390565b94939290926040519460268601526006850152600384015282525f603a600c8401209281604082015281602082015252604051602081019182526006604082015260408152610c7d606082610a56565b51902091600683018093116105df5760445f926001600160a01b03946040519060208201928352604082015260408152610cb8606082610a56565b5190206040519485938492631afeb18d60e11b8452600484015260036024840152165afa90811561062b575f91610cff575b50602081015160408201516060909201519092565b90503d805f833e610d108183610a56565b81019060208183031261061f5780519067ffffffffffffffff821161061f57019080601f8301121561061f5781519167ffffffffffffffff8311610a0a578260051b9060405193610d646020840186610a56565b845260208085019282010192831161061f57602001905b828210610d8b575050505f610cea565b8151815260209182019101610d7b565b9290610da79084611196565b926001600160a01b03807f0000000000000000000000000000000000000000000000000000000000000000169181610ddf8483611196565b95165f5216602052602060405f2060246040518094819363789add5560e11b835260048301525afa90811561062b575f91610e18575090565b90506020813d602011610e3f575b81610e3360209383610a56565b8101031261061f575190565b3d9150610e26565b9081602091031261061f5751801515810361061f5790565b9081602091031261061f575190565b929315610edd576001600160a01b0316803b1561061f57604051637a94c56560e11b81526001600160a01b0392831660048201529290911660248301526044820192909252905f908290818381606481015b03925af1801561062b57610ed15750565b5f610edb91610a56565b565b916001600160a01b031680610f485750506001600160a01b0360046020926040519485938492630476982d60e21b8452165af1801561062b57610f1d5750565b610f3e9060203d602011610f41575b610f368183610a56565b810190610e5f565b50565b503d610f2c565b9092916001600160a01b031691823b1561061f57604051632961046560e21b8152600481018390525f9490858160248183895af1801561062b5761109a575b506001600160a01b03168430821461103f576020929160649160405195869485936323b872dd60e01b8552600485015288602485015260448401525af1801561103457916020918493611007575b505b600460405180958193630476982d60e21b83525af1908115610ffb5750610f1d5750565b604051903d90823e3d90fd5b61102690833d851161102d575b61101e8183610a56565b810190610e47565b505f610fd5565b503d611014565b6040513d85823e3d90fd5b9290506044602092604051948593849263a9059cbb60e01b845288600485015260248401525af180156110345791602091849361107d575b50610fd7565b61109390833d851161102d5761101e8183610a56565b505f611077565b6110a79195505f90610a56565b5f936001600160a01b03610f87565b92931561110c576001600160a01b0316803b1561061f57604051630ab714fb60e11b81526001600160a01b0392831660048201529290911660248301526044820192909252905f90829081838160648101610ec0565b9092906001600160a01b0316803b1561061f575f92836064926001600160a01b0394856040519889978896630b0d9c0960e01b885216600487015216602485015260448401525af1801561062b57610ed15750565b3d60405191638549db5960e01b8352600483015260406024830152806044830152805f606484013e601f801991011660640190fd5b6001600160a01b0316806111a957503190565b6040516370a0823160e01b81526001600160a01b039092166004830152602090829060249082905afa90811561062b575f91610e1857509056fea2646970667358221220bb04ffe42b05eb470646e109916c8b8704adab1a94aa2e85cd211001fb5e23a464736f6c634300081a0033","linkReferences":{}},"methodIdentifiers":{"manager()":"481c6a75","modifyLiquidity((address,address,uint24,int24,address),(int24,int24,int256,bytes32),bytes)":"5a6bcfda","modifyLiquidity((address,address,uint24,int24,address),(int24,int24,int256,bytes32),bytes,bool,bool)":"0a5b11e4","unlockCallback(bytes)":"91dd7346"},"id":50}