{"abi":[{"type":"constructor","inputs":[{"name":"_manager","type":"address","internalType":"contract IPoolManager"}],"stateMutability":"nonpayable"},{"type":"function","name":"manager","inputs":[],"outputs":[{"name":"","type":"address","internalType":"contract IPoolManager"}],"stateMutability":"view"},{"type":"function","name":"swap","inputs":[{"name":"key","type":"tuple","internalType":"struct PoolKey","components":[{"name":"currency0","type":"address","internalType":"Currency"},{"name":"currency1","type":"address","internalType":"Currency"},{"name":"fee","type":"uint24","internalType":"uint24"},{"name":"tickSpacing","type":"int24","internalType":"int24"},{"name":"hooks","type":"address","internalType":"contract IHooks"}]},{"name":"params","type":"tuple","internalType":"struct IPoolManager.SwapParams","components":[{"name":"zeroForOne","type":"bool","internalType":"bool"},{"name":"amountSpecified","type":"int256","internalType":"int256"},{"name":"sqrtPriceLimitX96","type":"uint160","internalType":"uint160"}]},{"name":"testSettings","type":"tuple","internalType":"struct PoolSwapTest.TestSettings","components":[{"name":"takeClaims","type":"bool","internalType":"bool"},{"name":"settleUsingBurn","type":"bool","internalType":"bool"}]},{"name":"hookData","type":"bytes","internalType":"bytes"}],"outputs":[{"name":"delta","type":"int256","internalType":"BalanceDelta"}],"stateMutability":"payable"},{"type":"function","name":"unlockCallback","inputs":[{"name":"rawData","type":"bytes","internalType":"bytes"}],"outputs":[{"name":"","type":"bytes","internalType":"bytes"}],"stateMutability":"nonpayable"},{"type":"error","name":"NoSwapOccurred","inputs":[]}],"bytecode":{"object":"0x60a034607a57601f6114a138819003918201601f19168301916001600160401b03831184841017607e57808492602094604052833981010312607a57516001600160a01b0381168103607a5760805260405161140e90816100938239608051818181608d015281816109ec01528181610c710152610fec0152f35b5f80fd5b634e487b7160e01b5f52604160045260245ffdfe60806040526004361015610011575f80fd5b5f3560e01c80632229d0b414610a10578063481c6a75146109cd576391dd73461461003a575f80fd5b3461092c57602036600319011261092c5760043567ffffffffffffffff811161092c573660238201121561092c57806004013567ffffffffffffffff811161092c57810190602482019136831161092c577f0000000000000000000000000000000000000000000000000000000000000000926001600160a01b0384169283330361092c5760208184031261092c5760248101359067ffffffffffffffff821161092c5701906101808284031261092c57604051916100f883610d8c565b61010460248201610e16565b83526040601f19828603011261092c576040519061012182610dd8565b61012d60448201610e2a565b825261013b60648201610e2a565b60208301526020840191825260a0602460831983880301011261092c576040519461016586610d8c565b61017160848301610e16565b865261017f60a48301610e16565b602087015260c482013562ffffff8116810361092c57604087015260e48201358060020b810361092c5760608701526101048201356001600160a01b038116810361092c5760808701526040850195865260609082900360ff19011261092c57604051926101ec84610dbc565b6101f96101248301610e2a565b845261014482013560208501526101648201356001600160a01b038116810361092c576040850152606085019384526101848201359167ffffffffffffffff831161092c5761024b9201602401610e53565b94608084019586526102746001600160a01b03865151166001600160a01b038651163091610fd4565b91505061029c6001600160a01b036020885101511630906001600160a01b0388511690610fd4565b92915050610988576109435761033e956020916103175f8851610352885195516040519c8d9788968795633cf3645360e21b875260048701906001600160a01b036080809282815116855282602082015116602086015262ffffff6040820151166040860152606081015160020b6060860152015116910152565b8051151560a4860152602081015160c4860152604001516001600160a01b031660e4850152565b610120610104840152610124830190610e99565b03925af1948515610938575f95610900575b506103876001600160a01b038551511630906001600160a01b0386511690610fd4565b979150506103b06001600160a01b036020875101511630906001600160a01b0387511690610fd4565b85518051919693509150156106e757505f602082510151125f146105db5751602001518712610560576103ea878760801d600f0b14610ecc565b5f831261050557610445965b5f81126104dd575b5f84126104a2575b5f8113610474575b505f8313610449575b868660405190602082015260208152610431604082610df4565b604051918291602083526020830190610e99565b0390f35b6001600160a01b0380602061046a97510151169451169151511515936112e0565b5f80808080610417565b61049c906001600160a01b0387515116906001600160a01b03875116848651511515936112e0565b5f61040e565b6104d86001600160a01b03602088510151166001600160a01b038751166104c887610fb0565b9085602088510151151593611098565b610406565b6105006001600160a01b03875151166001600160a01b038751166104c884610fb0565b6103fe565b60405162461bcd60e51b815260206004820152602d60248201527f64656c7461416674657231206973206e6f742067726561746572207468616e2060448201526c06f7220657175616c20746f203609c1b6064820152608490fd5b60405162461bcd60e51b815260206004820152604760248201527f64656c7461416674657230206973206e6f742067726561746572207468616e2060448201527f6f7220657175616c20746f20646174612e706172616d732e616d6f756e7453706064820152661958da599a595960ca1b608482015260a490fd5b5f881361067c576020906105f38589600f0b14610f3e565b510151831361060557610445966103f6565b60a460405162461bcd60e51b815260206004820152604460248201527f64656c7461416674657231206973206e6f74206c657373207468616e206f722060448201527f657175616c20746f20646174612e706172616d732e616d6f756e745370656369606482015263199a595960e21b6084820152fd5b60405162461bcd60e51b815260206004820152602d60248201527f64656c7461416674657230206973206e6f74206c657373207468616e206f722060448201527f657175616c20746f207a65726f000000000000000000000000000000000000006064820152608490fd5b602001515f13156107f157516020015183126107765761070b8387600f0b14610f3e565b5f871261071b57610445966103f6565b60405162461bcd60e51b815260206004820152602d60248201527f64656c7461416674657230206973206e6f742067726561746572207468616e2060448201526c06f7220657175616c20746f203609c1b6064820152608490fd5b60405162461bcd60e51b815260206004820152604760248201527f64656c7461416674657231206973206e6f742067726561746572207468616e2060448201527f6f7220657175616c20746f20646174612e706172616d732e616d6f756e7453706064820152661958da599a595960ca1b608482015260a490fd5b5f84136108955760209061080c898960801d600f0b14610ecc565b510151871361081e57610445966103f6565b60a460405162461bcd60e51b815260206004820152604460248201527f64656c7461416674657230206973206e6f74206c657373207468616e206f722060448201527f657175616c20746f20646174612e706172616d732e616d6f756e745370656369606482015263199a595960e21b6084820152fd5b60405162461bcd60e51b815260206004820152602a60248201527f64656c7461416674657231206973206e6f74206c657373207468616e206f722060448201527f657175616c20746f2030000000000000000000000000000000000000000000006064820152608490fd5b9094506020813d602011610930575b8161091c60209383610df4565b8101031261092c5751935f610364565b5f80fd5b3d915061090f565b6040513d5f823e3d90fd5b60405162461bcd60e51b815260206004820152601e60248201527f64656c74614265666f726531206973206e6f7420657175616c20746f203000006044820152606490fd5b60405162461bcd60e51b815260206004820152601e60248201527f64656c74614265666f726530206973206e6f7420657175616c20746f203000006044820152606490fd5b3461092c575f36600319011261092c5760206040516001600160a01b037f0000000000000000000000000000000000000000000000000000000000000000168152f35b3660031901610160811261092c5760a01361092c57604051610a3181610d8c565b6004356001600160a01b038116810361092c5781526024356001600160a01b038116810361092c57602082015260443562ffffff8116810361092c5760408201526064358060020b810361092c5760608201526084356001600160a01b038116810361092c57608082015260603660a319011261092c57604051610ab481610dbc565b60a435801515810361092c57815260c435602082015260e4356001600160a01b038116810361092c57604082015260406101031936011261092c5760405191610afc83610dd8565b61010435801515810361092c57835261012435801515810361092c5760208401526101443567ffffffffffffffff811161092c57610c6493610c346001600160a01b0393610c1f5f96610bf4610b59610c42973690600401610e53565b93602060405197610b6989610d8c565b3389528189019081526040890192835260608901948552608089019687526040519a8b9983808c0152511660408a0152518051151560608a01520151151560808801525160a08701906001600160a01b036080809282815116855282602082015116602086015262ffffff6040820151166040860152606081015160020b6060860152015116910152565b51805115156101408601526020810151610160860152604001516001600160a01b0316610180850152565b516101806101a08401526101c0830190610e99565b03601f198101835282610df4565b604051809381926348c8949160e01b8352602060048401526024830190610e99565b0381836001600160a01b037f0000000000000000000000000000000000000000000000000000000000000000165af1908115610938575f91610d12575b506020815191818082019384920101031261092c57514780610cc9575b602082604051908152f35b5f80808093335af115610cdc5781610cbe565b3d60405190638549db5960e01b825233600483015260406024830152806044830152805f606484013e601f801991011660640190fd5b90503d805f833e610d238183610df4565b81019060208183031261092c5780519067ffffffffffffffff821161092c570181601f8201121561092c57805190610d5a82610e37565b92610d686040519485610df4565b8284526020838301011161092c57815f9260208093018386015e8301015281610ca1565b60a0810190811067ffffffffffffffff821117610da857604052565b634e487b7160e01b5f52604160045260245ffd5b6060810190811067ffffffffffffffff821117610da857604052565b6040810190811067ffffffffffffffff821117610da857604052565b90601f8019910116810190811067ffffffffffffffff821117610da857604052565b35906001600160a01b038216820361092c57565b3590811515820361092c57565b67ffffffffffffffff8111610da857601f01601f191660200190565b81601f8201121561092c57803590610e6a82610e37565b92610e786040519485610df4565b8284526020838301011161092c57815f926020809301838601378301015290565b805180835260209291819084018484015e5f828201840152601f01601f1916010190565b9081602091031261092c575190565b15610ed357565b60405162461bcd60e51b815260206004820152602b60248201527f64656c74612e616d6f756e74302829206973206e6f7420657175616c20746f2060448201527f64656c74614166746572300000000000000000000000000000000000000000006064820152608490fd5b15610f4557565b60405162461bcd60e51b815260206004820152602b60248201527f64656c74612e616d6f756e74312829206973206e6f7420657175616c20746f2060448201527f64656c74614166746572310000000000000000000000000000000000000000006064820152608490fd5b600160ff1b8114610fc0575f0390565b634e487b7160e01b5f52601160045260245ffd5b9290610fe0908461138b565b926001600160a01b03807f0000000000000000000000000000000000000000000000000000000000000000169181611018848361138b565b95165f5216602052602060405f2060246040518094819363789add5560e11b835260048301525afa908115610938575f91611051575090565b90506020813d602011611078575b8161106c60209383610df4565b8101031261092c575190565b3d915061105f565b9081602091031261092c5751801515810361092c5790565b929315611107576001600160a01b0316803b1561092c57604051637a94c56560e11b81526001600160a01b0392831660048201529290911660248301526044820192909252905f908290818381606481015b03925af18015610938576110fb5750565b5f61110591610df4565b565b916001600160a01b0316806111725750506001600160a01b0360046020926040519485938492630476982d60e21b8452165af18015610938576111475750565b6111689060203d60201161116b575b6111608183610df4565b810190610ebd565b50565b503d611156565b9092916001600160a01b031691823b1561092c57604051632961046560e21b8152600481018390525f9490858160248183895af18015610938576112c4575b506001600160a01b031684308214611269576020929160649160405195869485936323b872dd60e01b8552600485015288602485015260448401525af1801561125e57916020918493611231575b505b600460405180958193630476982d60e21b83525af190811561122557506111475750565b604051903d90823e3d90fd5b61125090833d8511611257575b6112488183610df4565b810190611080565b505f6111ff565b503d61123e565b6040513d85823e3d90fd5b9290506044602092604051948593849263a9059cbb60e01b845288600485015260248401525af1801561125e579160209184936112a7575b50611201565b6112bd90833d8511611257576112488183610df4565b505f6112a1565b6112d19195505f90610df4565b5f936001600160a01b036111b1565b929315611336576001600160a01b0316803b1561092c57604051630ab714fb60e11b81526001600160a01b0392831660048201529290911660248301526044820192909252905f908290818381606481016110ea565b9092906001600160a01b0316803b1561092c575f92836064926001600160a01b0394856040519889978896630b0d9c0960e01b885216600487015216602485015260448401525af18015610938576110fb5750565b6001600160a01b03168061139e57503190565b6040516370a0823160e01b81526001600160a01b039092166004830152602090829060249082905afa908115610938575f9161105157509056fea2646970667358221220ac39d7882a4b9d60a49fa26e408c529a341f45ba04931e58bb505ed930fed2d864736f6c634300081a0033","linkReferences":{}},"methodIdentifiers":{"manager()":"481c6a75","swap((address,address,uint24,int24,address),(bool,int256,uint160),(bool,bool),bytes)":"2229d0b4","unlockCallback(bytes)":"91dd7346"},"id":60}