{"abi":[{"type":"function","name":"RELATIVE_BROADCAST_PATH","inputs":[],"outputs":[{"name":"","type":"string","internalType":"string"}],"stateMutability":"view"},{"type":"function","name":"vm","inputs":[],"outputs":[{"name":"","type":"Vm","internalType":"contract Vm"}],"stateMutability":"view"}],"bytecode":{"object":"0x60808060405234601957610121908161001e823930815050f35b5f80fdfe60808060405260043610156011575f80fd5b5f3560e01c9081632aa1c69614605b5750633a76846314602f575f80fd5b5f3660031901126057576020604051737109709ecfa91a80626ff3989d68f67f5b1dd12d8152f35b5f80fd5b5f3660031901126057576040810181811067ffffffffffffffff82111760d757604052600b8152604060208201917f2e2f62726f61646361737400000000000000000000000000000000000000000083528151928391602083525180918160208501528484015e5f828201840152601f01601f19168101030190f35b634e487b7160e01b5f52604160045260245ffdfea2646970667358221220dbebf8aa7c0ba59e38919067d8e5bd93ea4cf9c2d9783c33dce5504dbfad755c64736f6c634300081a0033","linkReferences":{}},"methodIdentifiers":{"RELATIVE_BROADCAST_PATH()":"2aa1c696","vm()":"3a768463"},"id":24}