{"abi":[{"type":"function","name":"DYNAMIC_FEE_FLAG","inputs":[],"outputs":[{"name":"","type":"uint24","internalType":"uint24"}],"stateMutability":"view"},{"type":"function","name":"MAX_LP_FEE","inputs":[],"outputs":[{"name":"","type":"uint24","internalType":"uint24"}],"stateMutability":"view"},{"type":"function","name":"OVERRIDE_FEE_FLAG","inputs":[],"outputs":[{"name":"","type":"uint24","internalType":"uint24"}],"stateMutability":"view"},{"type":"function","name":"REMOVE_OVERRIDE_MASK","inputs":[],"outputs":[{"name":"","type":"uint24","internalType":"uint24"}],"stateMutability":"view"},{"type":"error","name":"LPFeeTooLarge","inputs":[{"name":"fee","type":"uint24","internalType":"uint24"}]}],"bytecode":{"object":"0x6080806040523460185760d7908161001d823930815050f35b5f80fdfe60808060405260043610156011575f80fd5b5f3560e01c9081633b01d64d14608c575080633fc48eba1460755780636f95ebcf14605e5763f26ef49d146043575f80fd5b5f366003190112605a576020604051628000008152f35b5f80fd5b5f366003190112605a57602060405162bfffff8152f35b5f366003190112605a576020604051620f42408152f35b5f366003190112605a57806240000060209252f3fea2646970667358221220a803b2144a09cd4f48d881cb8895c6650561ed7e78d9e89825205ac9247bed6464736f6c634300081a0033","linkReferences":{}},"methodIdentifiers":{"DYNAMIC_FEE_FLAG()":"f26ef49d","MAX_LP_FEE()":"3fc48eba","OVERRIDE_FEE_FLAG()":"3b01d64d","REMOVE_OVERRIDE_MASK()":"6f95ebcf"},"id":71}