{"abi":[{"type":"function","name":"allowance","inputs":[{"name":"owner","type":"address","internalType":"address"},{"name":"spender","type":"address","internalType":"address"},{"name":"id","type":"uint256","internalType":"uint256"}],"outputs":[{"name":"amount","type":"uint256","internalType":"uint256"}],"stateMutability":"view"},{"type":"function","name":"approve","inputs":[{"name":"spender","type":"address","internalType":"address"},{"name":"id","type":"uint256","internalType":"uint256"},{"name":"amount","type":"uint256","internalType":"uint256"}],"outputs":[{"name":"","type":"bool","internalType":"bool"}],"stateMutability":"nonpayable"},{"type":"function","name":"balanceOf","inputs":[{"name":"owner","type":"address","internalType":"address"},{"name":"id","type":"uint256","internalType":"uint256"}],"outputs":[{"name":"balance","type":"uint256","internalType":"uint256"}],"stateMutability":"view"},{"type":"function","name":"burn","inputs":[{"name":"from","type":"address","internalType":"address"},{"name":"id","type":"uint256","internalType":"uint256"},{"name":"amount","type":"uint256","internalType":"uint256"}],"outputs":[],"stateMutability":"nonpayable"},{"type":"function","name":"clear","inputs":[{"name":"currency","type":"address","internalType":"Currency"},{"name":"amount","type":"uint256","internalType":"uint256"}],"outputs":[],"stateMutability":"nonpayable"},{"type":"function","name":"collectProtocolFees","inputs":[{"name":"recipient","type":"address","internalType":"address"},{"name":"currency","type":"address","internalType":"Currency"},{"name":"amount","type":"uint256","internalType":"uint256"}],"outputs":[{"name":"amountCollected","type":"uint256","internalType":"uint256"}],"stateMutability":"nonpayable"},{"type":"function","name":"donate","inputs":[{"name":"key","type":"tuple","internalType":"struct PoolKey","components":[{"name":"currency0","type":"address","internalType":"Currency"},{"name":"currency1","type":"address","internalType":"Currency"},{"name":"fee","type":"uint24","internalType":"uint24"},{"name":"tickSpacing","type":"int24","internalType":"int24"},{"name":"hooks","type":"address","internalType":"contract IHooks"}]},{"name":"amount0","type":"uint256","internalType":"uint256"},{"name":"amount1","type":"uint256","internalType":"uint256"},{"name":"hookData","type":"bytes","internalType":"bytes"}],"outputs":[{"name":"delta","type":"int256","internalType":"BalanceDelta"}],"stateMutability":"nonpayable"},{"type":"function","name":"extsload","inputs":[{"name":"slot","type":"bytes32","internalType":"bytes32"}],"outputs":[{"name":"","type":"bytes32","internalType":"bytes32"}],"stateMutability":"view"},{"type":"function","name":"extsload","inputs":[{"name":"startSlot","type":"bytes32","internalType":"bytes32"},{"name":"nSlots","type":"uint256","internalType":"uint256"}],"outputs":[{"name":"","type":"bytes32[]","internalType":"bytes32[]"}],"stateMutability":"view"},{"type":"function","name":"extsload","inputs":[{"name":"slots","type":"bytes32[]","internalType":"bytes32[]"}],"outputs":[{"name":"","type":"bytes32[]","internalType":"bytes32[]"}],"stateMutability":"view"},{"type":"function","name":"exttload","inputs":[{"name":"slots","type":"bytes32[]","internalType":"bytes32[]"}],"outputs":[{"name":"","type":"bytes32[]","internalType":"bytes32[]"}],"stateMutability":"view"},{"type":"function","name":"exttload","inputs":[{"name":"slot","type":"bytes32","internalType":"bytes32"}],"outputs":[{"name":"","type":"bytes32","internalType":"bytes32"}],"stateMutability":"view"},{"type":"function","name":"initialize","inputs":[{"name":"key","type":"tuple","internalType":"struct PoolKey","components":[{"name":"currency0","type":"address","internalType":"Currency"},{"name":"currency1","type":"address","internalType":"Currency"},{"name":"fee","type":"uint24","internalType":"uint24"},{"name":"tickSpacing","type":"int24","internalType":"int24"},{"name":"hooks","type":"address","internalType":"contract IHooks"}]},{"name":"sqrtPriceX96","type":"uint160","internalType":"uint160"},{"name":"hookData","type":"bytes","internalType":"bytes"}],"outputs":[{"name":"tick","type":"int24","internalType":"int24"}],"stateMutability":"nonpayable"},{"type":"function","name":"isOperator","inputs":[{"name":"owner","type":"address","internalType":"address"},{"name":"operator","type":"address","internalType":"address"}],"outputs":[{"name":"isOperator","type":"bool","internalType":"bool"}],"stateMutability":"view"},{"type":"function","name":"mint","inputs":[{"name":"to","type":"address","internalType":"address"},{"name":"id","type":"uint256","internalType":"uint256"},{"name":"amount","type":"uint256","internalType":"uint256"}],"outputs":[],"stateMutability":"nonpayable"},{"type":"function","name":"modifyLiquidity","inputs":[{"name":"key","type":"tuple","internalType":"struct PoolKey","components":[{"name":"currency0","type":"address","internalType":"Currency"},{"name":"currency1","type":"address","internalType":"Currency"},{"name":"fee","type":"uint24","internalType":"uint24"},{"name":"tickSpacing","type":"int24","internalType":"int24"},{"name":"hooks","type":"address","internalType":"contract IHooks"}]},{"name":"params","type":"tuple","internalType":"struct IPoolManager.ModifyLiquidityParams","components":[{"name":"tickLower","type":"int24","internalType":"int24"},{"name":"tickUpper","type":"int24","internalType":"int24"},{"name":"liquidityDelta","type":"int256","internalType":"int256"},{"name":"salt","type":"bytes32","internalType":"bytes32"}]},{"name":"hookData","type":"bytes","internalType":"bytes"}],"outputs":[{"name":"callerDelta","type":"int256","internalType":"BalanceDelta"},{"name":"feesAccrued","type":"int256","internalType":"BalanceDelta"}],"stateMutability":"nonpayable"},{"type":"function","name":"owner","inputs":[],"outputs":[{"name":"","type":"address","internalType":"address"}],"stateMutability":"view"},{"type":"function","name":"protocolFeeController","inputs":[],"outputs":[{"name":"","type":"address","internalType":"contract IProtocolFeeController"}],"stateMutability":"view"},{"type":"function","name":"protocolFeesAccrued","inputs":[{"name":"currency","type":"address","internalType":"Currency"}],"outputs":[{"name":"amount","type":"uint256","internalType":"uint256"}],"stateMutability":"view"},{"type":"function","name":"setOperator","inputs":[{"name":"operator","type":"address","internalType":"address"},{"name":"approved","type":"bool","internalType":"bool"}],"outputs":[{"name":"","type":"bool","internalType":"bool"}],"stateMutability":"nonpayable"},{"type":"function","name":"setProtocolFee","inputs":[{"name":"key","type":"tuple","internalType":"struct PoolKey","components":[{"name":"currency0","type":"address","internalType":"Currency"},{"name":"currency1","type":"address","internalType":"Currency"},{"name":"fee","type":"uint24","internalType":"uint24"},{"name":"tickSpacing","type":"int24","internalType":"int24"},{"name":"hooks","type":"address","internalType":"contract IHooks"}]},{"name":"newProtocolFee","type":"uint24","internalType":"uint24"}],"outputs":[],"stateMutability":"nonpayable"},{"type":"function","name":"setProtocolFeeController","inputs":[{"name":"controller","type":"address","internalType":"contract IProtocolFeeController"}],"outputs":[],"stateMutability":"nonpayable"},{"type":"function","name":"settle","inputs":[],"outputs":[{"name":"","type":"uint256","internalType":"uint256"}],"stateMutability":"payable"},{"type":"function","name":"settleFor","inputs":[{"name":"recipient","type":"address","internalType":"address"}],"outputs":[{"name":"","type":"uint256","internalType":"uint256"}],"stateMutability":"payable"},{"type":"function","name":"supportsInterface","inputs":[{"name":"interfaceId","type":"bytes4","internalType":"bytes4"}],"outputs":[{"name":"","type":"bool","internalType":"bool"}],"stateMutability":"view"},{"type":"function","name":"swap","inputs":[{"name":"key","type":"tuple","internalType":"struct PoolKey","components":[{"name":"currency0","type":"address","internalType":"Currency"},{"name":"currency1","type":"address","internalType":"Currency"},{"name":"fee","type":"uint24","internalType":"uint24"},{"name":"tickSpacing","type":"int24","internalType":"int24"},{"name":"hooks","type":"address","internalType":"contract IHooks"}]},{"name":"params","type":"tuple","internalType":"struct IPoolManager.SwapParams","components":[{"name":"zeroForOne","type":"bool","internalType":"bool"},{"name":"amountSpecified","type":"int256","internalType":"int256"},{"name":"sqrtPriceLimitX96","type":"uint160","internalType":"uint160"}]},{"name":"hookData","type":"bytes","internalType":"bytes"}],"outputs":[{"name":"swapDelta","type":"int256","internalType":"BalanceDelta"}],"stateMutability":"nonpayable"},{"type":"function","name":"sync","inputs":[{"name":"currency","type":"address","internalType":"Currency"}],"outputs":[],"stateMutability":"nonpayable"},{"type":"function","name":"take","inputs":[{"name":"currency","type":"address","internalType":"Currency"},{"name":"to","type":"address","internalType":"address"},{"name":"amount","type":"uint256","internalType":"uint256"}],"outputs":[],"stateMutability":"nonpayable"},{"type":"function","name":"transfer","inputs":[{"name":"receiver","type":"address","internalType":"address"},{"name":"id","type":"uint256","internalType":"uint256"},{"name":"amount","type":"uint256","internalType":"uint256"}],"outputs":[{"name":"","type":"bool","internalType":"bool"}],"stateMutability":"nonpayable"},{"type":"function","name":"transferFrom","inputs":[{"name":"sender","type":"address","internalType":"address"},{"name":"receiver","type":"address","internalType":"address"},{"name":"id","type":"uint256","internalType":"uint256"},{"name":"amount","type":"uint256","internalType":"uint256"}],"outputs":[{"name":"","type":"bool","internalType":"bool"}],"stateMutability":"nonpayable"},{"type":"function","name":"transferOwnership","inputs":[{"name":"newOwner","type":"address","internalType":"address"}],"outputs":[],"stateMutability":"nonpayable"},{"type":"function","name":"unlock","inputs":[{"name":"data","type":"bytes","internalType":"bytes"}],"outputs":[{"name":"result","type":"bytes","internalType":"bytes"}],"stateMutability":"nonpayable"},{"type":"function","name":"updateDynamicLPFee","inputs":[{"name":"key","type":"tuple","internalType":"struct PoolKey","components":[{"name":"currency0","type":"address","internalType":"Currency"},{"name":"currency1","type":"address","internalType":"Currency"},{"name":"fee","type":"uint24","internalType":"uint24"},{"name":"tickSpacing","type":"int24","internalType":"int24"},{"name":"hooks","type":"address","internalType":"contract IHooks"}]},{"name":"newDynamicLPFee","type":"uint24","internalType":"uint24"}],"outputs":[],"stateMutability":"nonpayable"},{"type":"event","name":"Approval","inputs":[{"name":"owner","type":"address","indexed":true,"internalType":"address"},{"name":"spender","type":"address","indexed":true,"internalType":"address"},{"name":"id","type":"uint256","indexed":true,"internalType":"uint256"},{"name":"amount","type":"uint256","indexed":false,"internalType":"uint256"}],"anonymous":false},{"type":"event","name":"Donate","inputs":[{"name":"id","type":"bytes32","indexed":true,"internalType":"PoolId"},{"name":"sender","type":"address","indexed":true,"internalType":"address"},{"name":"amount0","type":"uint256","indexed":false,"internalType":"uint256"},{"name":"amount1","type":"uint256","indexed":false,"internalType":"uint256"}],"anonymous":false},{"type":"event","name":"Initialize","inputs":[{"name":"id","type":"bytes32","indexed":true,"internalType":"PoolId"},{"name":"currency0","type":"address","indexed":true,"internalType":"Currency"},{"name":"currency1","type":"address","indexed":true,"internalType":"Currency"},{"name":"fee","type":"uint24","indexed":false,"internalType":"uint24"},{"name":"tickSpacing","type":"int24","indexed":false,"internalType":"int24"},{"name":"hooks","type":"address","indexed":false,"internalType":"contract IHooks"},{"name":"sqrtPriceX96","type":"uint160","indexed":false,"internalType":"uint160"},{"name":"tick","type":"int24","indexed":false,"internalType":"int24"}],"anonymous":false},{"type":"event","name":"ModifyLiquidity","inputs":[{"name":"id","type":"bytes32","indexed":true,"internalType":"PoolId"},{"name":"sender","type":"address","indexed":true,"internalType":"address"},{"name":"tickLower","type":"int24","indexed":false,"internalType":"int24"},{"name":"tickUpper","type":"int24","indexed":false,"internalType":"int24"},{"name":"liquidityDelta","type":"int256","indexed":false,"internalType":"int256"},{"name":"salt","type":"bytes32","indexed":false,"internalType":"bytes32"}],"anonymous":false},{"type":"event","name":"OperatorSet","inputs":[{"name":"owner","type":"address","indexed":true,"internalType":"address"},{"name":"operator","type":"address","indexed":true,"internalType":"address"},{"name":"approved","type":"bool","indexed":false,"internalType":"bool"}],"anonymous":false},{"type":"event","name":"OwnershipTransferred","inputs":[{"name":"user","type":"address","indexed":true,"internalType":"address"},{"name":"newOwner","type":"address","indexed":true,"internalType":"address"}],"anonymous":false},{"type":"event","name":"ProtocolFeeControllerUpdated","inputs":[{"name":"protocolFeeController","type":"address","indexed":true,"internalType":"address"}],"anonymous":false},{"type":"event","name":"ProtocolFeeUpdated","inputs":[{"name":"id","type":"bytes32","indexed":true,"internalType":"PoolId"},{"name":"protocolFee","type":"uint24","indexed":false,"internalType":"uint24"}],"anonymous":false},{"type":"event","name":"Swap","inputs":[{"name":"id","type":"bytes32","indexed":true,"internalType":"PoolId"},{"name":"sender","type":"address","indexed":true,"internalType":"address"},{"name":"amount0","type":"int128","indexed":false,"internalType":"int128"},{"name":"amount1","type":"int128","indexed":false,"internalType":"int128"},{"name":"sqrtPriceX96","type":"uint160","indexed":false,"internalType":"uint160"},{"name":"liquidity","type":"uint128","indexed":false,"internalType":"uint128"},{"name":"tick","type":"int24","indexed":false,"internalType":"int24"},{"name":"fee","type":"uint24","indexed":false,"internalType":"uint24"}],"anonymous":false},{"type":"event","name":"Transfer","inputs":[{"name":"caller","type":"address","indexed":false,"internalType":"address"},{"name":"from","type":"address","indexed":true,"internalType":"address"},{"name":"to","type":"address","indexed":true,"internalType":"address"},{"name":"id","type":"uint256","indexed":true,"internalType":"uint256"},{"name":"amount","type":"uint256","indexed":false,"internalType":"uint256"}],"anonymous":false},{"type":"error","name":"AlreadyUnlocked","inputs":[]},{"type":"error","name":"ContractUnlocked","inputs":[]},{"type":"error","name":"CurrenciesOutOfOrderOrEqual","inputs":[{"name":"currency0","type":"address","internalType":"address"},{"name":"currency1","type":"address","internalType":"address"}]},{"type":"error","name":"CurrencyNotSettled","inputs":[]},{"type":"error","name":"DelegateCallNotAllowed","inputs":[]},{"type":"error","name":"InvalidBips","inputs":[]},{"type":"error","name":"InvalidCaller","inputs":[]},{"type":"error","name":"ManagerLocked","inputs":[]},{"type":"error","name":"MustClearExactPositiveDelta","inputs":[]},{"type":"error","name":"NonzeroNativeValue","inputs":[]},{"type":"error","name":"PoolNotInitialized","inputs":[]},{"type":"error","name":"ProtocolFeeCannotBeFetched","inputs":[]},{"type":"error","name":"ProtocolFeeTooLarge","inputs":[{"name":"fee","type":"uint24","internalType":"uint24"}]},{"type":"error","name":"SwapAmountCannotBeZero","inputs":[]},{"type":"error","name":"TickSpacingTooLarge","inputs":[{"name":"tickSpacing","type":"int24","internalType":"int24"}]},{"type":"error","name":"TickSpacingTooSmall","inputs":[{"name":"tickSpacing","type":"int24","internalType":"int24"}]},{"type":"error","name":"UnauthorizedDynamicLPFeeUpdate","inputs":[]}],"bytecode":{"object":"0x60a08060405234605a575f80546001600160a01b031916339081178255907f8be0079c531659141344cd1fd0a4f28419497f9722a3daafe3b4186f6b6457e08180a3306080526146c7908161005f8239608051816127400152f35b5f80fdfe60e0806040526004361015610012575f80fd5b5f3560e01c908162fdd58e146121e35750806301ffc9a71461218d578063095bcdb6146120f05780630b0d9c091461209557806311da60b41461206b578063156e29f614611fdb5780631e2eaeaf14611fbf578063234266d714611dc85780632d77138914611d4957806335fd631a14611cf35780633dd45adb14611cc0578063426a849314611c4957806348c8949114611a9c57806352759651146119df578063558a729714611951578063598af9e7146118f15780635a6bcfda1461102f578063695c5bf514610b7e5780637e87ce7d14610a9957806380f0b44c14610a1e5780638161b874146109625780638da5cb5b1461093d57806397e8cd4e146109055780639bf6645f146108b8578063a584119414610804578063b6363cf2146107ab578063dbd035ff14610755578063f02de3b21461072f578063f135baaa14610713578063f2fde38b1461069d578063f3cd914c14610436578063f5298aca146102ea5763fe99049a14610186575f80fd5b346102e65760803660031901126102e65761019f612222565b6101a7612238565b90604435917f1b3d7edb2e9c0b0e7c525b20aaaef0f5940d2ed71663c7d39266ecafac72885961024e6001600160a01b038060643595169384331415806102c3575b61025c575b845f52600460205260405f20875f5260205260405f2061020f878254612409565b90551693845f52600460205260405f20865f5260205260405f20610234828254612416565b905560408051338152602081019290925290918291820190565b0390a4602060405160018152f35b845f52600560205260405f208233165f5260205260405f20875f5260205260405f2054865f198203610290575b50506101ee565b61029991612409565b855f52600560205260405f208333165f5260205260405f20885f5260205260405f20555f86610289565b50845f52600360205260405f208233165f5260205260ff60405f205416156101e9565b5f80fd5b346102e6576102f83661224e565b5f805160206146728339815191525c15610427577f1b3d7edb2e9c0b0e7c525b20aaaef0f5940d2ed71663c7d39266ecafac7288596103836001600160a01b03805f9516956103516103498661248f565b3390896124bc565b169233841415806103fd575b610388575b83855260046020526040852086865260205260408520610234828254612409565b0390a4005b8385526005602052604085206001600160a01b033316865260205260408520868652602052604085205481861982036103c3575b5050610362565b6103cc91612409565b8486526005602052604086206001600160a01b033316875260205260408620878752602052604086205586816103bc565b508385526003602052604085206001600160a01b033316865260205260ff6040862054161561035d565b6354e3ca0d60e01b5f5260045ffd5b346102e6576101203660031901126102e65761045136612300565b60603660a31901126102e6576040519061046a82612294565b60a43580151581036102e6578252602082019060c435825260e435906001600160a01b03821682036102e657604084019182526101043567ffffffffffffffff81116102e6576104be903690600401612387565b9290935f805160206146728339815191525c15610427576104dd612736565b511561068e5760a0822092835f52600660205260405f20906104fe82612777565b60808401958482828a8a516001600160a01b03169361051c94612c1b565b90949195606088015160020b908b51151590516001600160a01b031691604051986105468a6122b0565b895260208901526040880152606087015262ffffff166080860152885115155f149862ffffff6106379861058f6106249860209d61067b576001600160a01b038b5116956136f9565b939160c051949190968161065b575b50506001600160a01b03845116938e6001600160801b0360408301511691015160020b90604051958860801d600f0b875288600f0b60208801526040870152606086015260808501521660a08301527f40e9cecb9f5f1f1c5b9c97dec2917b7ee92e57ba5563708daca94dd84ad7112f60c03393a3866001600160a01b038a5116612dd7565b8094919461063f575b5050823391612813565b604051908152f35b6001600160a01b036106549251169083612813565b848061062d565b6001600160a01b03165f5260018f5260405f209081540190558e8061059e565b6001600160a01b038e8c015116956136f9565b63be8b850760e01b5f5260045ffd5b346102e65760203660031901126102e65773ffffffffffffffffffffffffffffffffffffffff196106cc612222565b6001600160a01b035f54916106e48284163314612423565b1691829116175f55337f8be0079c531659141344cd1fd0a4f28419497f9722a3daafe3b4186f6b6457e05f80a3005b346102e65760203660031901126102e6576004355c5f5260205ff35b346102e6575f3660031901126102e65760206001600160a01b0360025416604051908152f35b346102e657610763366123b5565b6040519160408360208152836020820152019160051b8301916020806040850193925b83355481520191019084838210156107a2575060208091610786565b60408186030190f35b346102e65760403660031901126102e6576107c4612222565b6001600160a01b036107d4612238565b91165f5260036020526001600160a01b0360405f2091165f52602052602060ff60405f2054166040519015158152f35b346102e65760203660031901126102e65761081d612222565b5f805160206146728339815191525c15610427576001600160a01b03811690816108685750505f7f27e098c505d44ec3574004bca052aabf76bd35004c182099d8c575fb238593b95d005b61087190612b8f565b907f27e098c505d44ec3574004bca052aabf76bd35004c182099d8c575fb238593b95d7f1e0745a7db1623981f0b2a5d4232364c00787266eb75ad546f190e6cebe9bd955d005b346102e6576108c6366123b5565b6040519160408360208152836020820152019160051b8301916020806040850193925b83355c81520191019084838210156107a25750602080916108e9565b346102e65760203660031901126102e6576001600160a01b03610926612222565b165f526001602052602060405f2054604051908152f35b346102e6575f3660031901126102e65760206001600160a01b035f5416604051908152f35b346102e65760603660031901126102e65761097b612222565b610983612238565b906044356001600160a01b03600254163303610a0f575f805160206146728339815191525c610a005760209261063791806109f857506001600160a01b0381165f526001845260405f20549283915b6001600160a01b0381165f526001865260405f206109f1848254612409565b9055612598565b9283916109d2565b631f2fa7eb60e11b5f5260045ffd5b6348f5c3ed60e01b5f5260045ffd5b346102e65760403660031901126102e657610a37612222565b5f805160206146728339815191525c1561042757335f9081526001600160a01b038216602052604090205c610a6d60243561248f565b9081600f0b03610a8a57610a889133915f03600f0b906124bc565b005b63bda73abf60e01b5f5260045ffd5b346102e65760c03660031901126102e657610ab336612300565b610abb6122ee565b906001600160a01b03600254163303610a0f576103e9610fff831610623e900062fff0008416101615610b6657602060a07fe9c42593e71f84403b84352cd168d693e2c9fcd1fdbcc3feb21d92b43e6696f9922092835f526006825260405f20610b2481612777565b805462ffffff60b81b8360b81b16907fffffffffffff000000ffffffffffffffffffffffffffffffffffffffffffffff1617905562ffffff60405191168152a2005b62ffffff8263a7abe2f760e01b5f521660045260245ffd5b346102e65760e03660031901126102e657610b9836612300565b60a435906001600160a01b0382168083036102e65760c43567ffffffffffffffff81116102e657610bcd903690600401612387565b90610bd6612736565b6060840193845160020b617fff811361101d5750845160020b6001811261100b57506001600160a01b038151169260208201936001600160a01b0385511680821015610fed575050608082016001600160a01b03815116956040840196610c4362ffffff89511682612ac1565b15610fdb5750610c5862ffffff885116612b72565b9180516001600160a01b03811690813303610f3e575b505060a08520955f6001600160a01b036002541680610e30575b50875f52600660205260405f209081546001600160a01b0316610e21576001600160a01b037fdd466e674ea557f56295e2d0218a125ea4b4f0f6f3307b95f85e6110838d64389860a09860209f98839662ffffff968596610cef62ffffff60d01b9d613485565b9c8d9460d01b169062ffffff60b81b8f62ffffff60a01b8f9188901b16179160b81b16171790558851908a86831692833303610d64575b5050505050505116995116995116995160020b91511690604051998a528a8a01526040890152606088015260020b95866080820152a4604051908152f35b61100016610d73575b81610d26565b610e03610e1192610e169660405196879463a910f80f60e01b6020870152336024870152610de1604487018c6001600160a01b036080809282815116855282602082015116602086015262ffffff6040820151166040860152606081015160020b6060860152015116910152565b60e486015260020b61010485015261012061012485015261014484019161246f565b03601f1981018452836122cc565b612f36565b508f8881808a610d6d565b637983c05160e01b5f5260045ffd5b90506064450245810460641445151715610f2a57612710900490815a10610f1b576020915f9182604051918583019263553bfc3760e01b8452610eb48d60248301906001600160a01b036080809282815116855282602082015116602086015262ffffff6040820151166040860152606081015160020b6060860152015116910152565b60a48152610ec360c4826122cc565b5193f15f519060203d141680610f0d575b80610ef2575b15610eeb5762ffffff165b8c610c88565b505f610ee5565b506103e9610fff821610623e900062fff00083161016610eda565b5062ffffff81168114610ed4565b630f724b8160e11b5f5260045ffd5b634e487b7160e01b5f52601160045260245ffd5b61200016610f4d575b80610c6e565b610fd490604051906301a206c160e51b6020830152336024830152610fb260448301896001600160a01b036080809282815116855282602082015116602086015262ffffff6040820151166040860152606081015160020b6060860152015116910152565b8460e4830152610100610104830152610e1182610e0361012482018a8d61246f565b508a610f47565b630732d7b560e51b5f5260045260245ffd5b60449250604051916306e6c98360e41b835260048301526024820152fd5b631d3d20b160e31b5f5260045260245ffd5b6316e0049f60e31b5f5260045260245ffd5b346102e6576101403660031901126102e65761104a36612300565b60803660a31901126102e6576040519061106382612278565b60a4358060020b81036102e657825260c4358060020b81036102e657602083015260e43560408301526101043560608301526101243567ffffffffffffffff81116102e6576110b6903690600401612387565b90925f805160206146728339815191525c15610427576110d4612736565b60a0832093845f52600660205260405f206080526110f3608051612777565b60808401516001600160a01b0381169081330361184a575b5050815160020b92602083015160020b916111296040850151612906565b93606087015160020b9760608201516040519960c08b018b811067ffffffffffffffff82111761183657604052338b528860208c01528660408c015287600f0b60608c015260808b015260a08a01525f918588121561181857620d89e719881261180557620d89e886136117f257604051926111a484612278565b5f84525f60208501525f60408501525f606085015287600f0b6115d1575b600460805101978960020b5f528860205260405f20988860020b5f5260205260405f206080515460a01c60020b8b81125f1461157b575060028060018c0154600184015490039b015491015490039b5b60a06001600160a01b03825116910151906040519160268301528960068301528b600383015281525f603a600c83012091816040820152816020820152525f5260066080510160205260405f20976001600160801b038954169982600f0b155f1461153f578a15611530576112c16112bb60409f9b6113819c6113939e5b60018301956112b360026112a7848a548503614182565b95019283548503614182565b96555561248f565b9161248f565b6001600160801b03169060801b179a8b965f84600f0b126114c2575b5082600f0b6113be575b50505061130d6112fe8560801d8360801d01612906565b9185600f0b90600f0b01612906565b6001600160801b03169060801b1791815160020b90602083015160020b8c8401516060850151918e5194855260208501528d84015260608301527ff208f4912782fd25c7f114ca3723a2d5dd6f3bcc3ac8db5af63baa85f711d5ec60803393a3886001600160a01b036080820151166129c2565b8094919461139f575b50833391612813565b82519182526020820152f35b6113b8906001600160a01b036080840151169083612813565b8561138a565b6080515492935090916001600160a01b0381169060a01c60020b828112156114175750509061140b926114006113f66114069461303e565b91600f0b9261303e565b906133b6565b612906565b60801b5b8b80806112e7565b92809193125f1461149857611456916114436114066114069361143d88600f0b9161303e565b876133b6565b9361145186600f0b9261303e565b61336b565b6001600160801b03169060801b17906001600160801b0361148360036080510192600f0b828454166133eb565b166001600160801b031982541617905561140f565b906114069250926114ae6113f66114b49561303e565b9061336b565b6001600160801b031661140f565b808f9151611504575b01516114d8575b8e6112dd565b6114ff8260805160049160020b5f52016020525f6002604082208281558260018201550155565b6114d2565b61152b8360805160049160020b5f52016020525f6002604082208281558260018201550155565b6114cb565b632bbfae4960e21b5f5260045ffd5b6112c16112bb60409f9b6113819c6113939e6001600160801b0361156689600f0b836133eb565b166001600160801b0319845416178355611290565b90999089136115a15760028060018c0154600184015490039b015491015490039b611212565b9860026001608051015460018c01549003600183015490039a81806080510154910154900391015490039b611212565b6004608051018960020b5f5280602052898960405f2061162181546001600160801b0361160481831695600f0b866133eb565b169315948585151415956117be575b508d600f0b9060801d612d9f565b60801b82179055602087015285528760020b5f5260205260405f208054906001600160801b0382166116568b600f0b826133eb565b901592836001600160801b03831615141593611791575b8b600f0b9060801d600f0b03916f7fffffffffffffffffffffffffffffff83136f7fffffffffffffffffffffffffffffff19841217610f2a57826001600160801b03935060801b83831617905516606086015260408501525f88600f0b121561171a575b83516116fe575b6040840151156111c2576116f960808c015160020b88600560805101612ff2565b6111c2565b61171560808c015160020b8a600560805101612ff2565b6116d8565b60808b015160020b6001600160801b03600181602088015116925f81620d89e719071281620d89e719050390620d89e805030181041680911161177e576001600160801b0360608601511611156116d1578663b8e3c38560e01b5f5260045260245ffd5b8963b8e3c38560e01b5f5260045260245ffd5b6080515460a01c60020b8b1361166d5760016080510154600184015560026080510154600284015561166d565b6080515460a01c60020b12156117d5575b8e611613565b6001608051015460018401556002608051015460028401556117cf565b8563035aeeff60e31b5f5260045260245ffd5b8763d5e2f7ab60e01b5f5260045260245ffd5b604488876040519163c4433ed560e01b835260048301526024820152fd5b634e487b7160e01b5f52604160045260245ffd5b5f6040850151138080916118e4575b1561189257505060405163259982e560e01b602082015261188991610e1182610e038887898c3360248701612866565b505b858061110b565b1590816118d6575b506118a6575b5061188b565b60405163021d0ee760e41b60208201526118cf91610e1182610e038887898c3360248701612866565b50856118a0565b61020091501615158761189a565b5061080082161515611859565b346102e65760603660031901126102e65761190a612222565b6001600160a01b0361191a612238565b91165f5260056020526001600160a01b0360405f2091165f5260205260405f206044355f52602052602060405f2054604051908152f35b346102e65760403660031901126102e65761196a612222565b602435908115158092036102e6576001600160a01b0390335f52600360205260405f208282165f5260205260405f2060ff1981541660ff851617905560405192835216907fceb576d9f15e4e200fdb5096d64d5dfd667e16def20c1eefd14256d8e3faa26760203392a3602060405160018152f35b346102e65760c03660031901126102e6576119f936612300565b611a016122ee565b906280000062ffffff60408301511614801590611a85575b611a765760a090611a2983612842565b205f52600660205260405f2090611a3f82612777565b81547fffffff000000ffffffffffffffffffffffffffffffffffffffffffffffffffff1660d09190911b62ffffff60d01b16179055005b6330d2164160e01b5f5260045ffd5b506001600160a01b03608082015116331415611a19565b346102e65760203660031901126102e65760043567ffffffffffffffff81116102e657611acd903690600401612387565b5f805160206146728339815191525c611c3a57611b1a915f9160015f805160206146728339815191525d6040516348eeb9a360e11b8152602060048201529384928392602484019161246f565b038183335af1908115611c2f575f91611ba5575b507f7d4b3164c6e45b97e7d87b7125a44c5828d005af88f9d751cfd78729c5d99a0b5c611b965760406020915f5f805160206146728339815191525d815192839181835280519182918282860152018484015e5f828201840152601f01601f19168101030190f35b635212cba160e01b5f5260045ffd5b90503d805f833e611bb681836122cc565b8101906020818303126102e65780519067ffffffffffffffff82116102e6570181601f820112156102e65780519067ffffffffffffffff82116118365760405192611c0b601f8401601f1916602001856122cc565b828452602083830101116102e657815f9260208093018386015e8301015281611b2e565b6040513d5f823e3d90fd5b6328486b6360e11b5f5260045ffd5b346102e6576001600160a01b03611c5f3661224e565b91929092335f52600560205260405f208282165f5260205260405f20845f526020528260405f205560405192835216907fb3fd5071835887567a0671151121894ddccc2842f1d10bedad13e0d17cace9a760203392a4602060405160018152f35b60203660031901126102e657611cd4612222565b5f805160206146728339815191525c156104275761063760209161267a565b346102e65760403660031901126102e6576024356004356040519160408360208152826020820152019060051b8301916001602060408501935b835481520191019084838210156107a257506020600191611d2d565b346102e65760203660031901126102e6576004356001600160a01b0381168091036102e657611d836001600160a01b035f54163314612423565b8073ffffffffffffffffffffffffffffffffffffffff1960025416176002557fb4bd8ef53df690b9943d3318996006dbb82a25f54719d8c8035b516a2a5b8acc5f80a2005b346102e6576101003660031901126102e657611de336612300565b60c4359060a43560e43567ffffffffffffffff81116102e657611e0a903690600401612387565b9190935f805160206146728339815191525c1561042757611e29612736565b60a0842094855f52600660205260405f2094611e4486612777565b6080810180516001600160a01b03811690813303611f80575b50506001600160801b03600388015416978815611f7157602098611e808761248f565b5f03611e8b8761248f565b5f036001600160801b03169060801b179887611f5d575b86611f48575b5050611eb5338985612813565b60405190868252858a8301527f29ef05caaff9404b7cb6d1c0e9bbae9eaa7ab2541feba1a9c4248594c08156cb60403393a351926001600160a01b03841693843303611f06575b8888604051908152f35b601016611f14575b80611efc565b611f3c95610e1193610e039260405197889563e1b4af6960e01b8d8801523360248801612797565b50828080808080611f0e565b600201908660801b0481540190558980611ea8565b60018101828960801b048154019055611ea2565b63a74f97ab60e01b5f5260045ffd5b602016611f8e575b80611e5d565b604051635b54587d60e11b6020820152611fb891610e1182610e038b898b8d8b3360248801612797565b5088611f88565b346102e65760203660031901126102e657600435545f5260205ff35b346102e657611fe93661224e565b905f805160206146728339815191525c15610427577f1b3d7edb2e9c0b0e7c525b20aaaef0f5940d2ed71663c7d39266ecafac7288596103836001600160a01b03805f94169561204861203b8761248f565b8603600f0b3390896124bc565b169384845260046020526040842086855260205260408420610234828254612416565b5f3660031901126102e6575f805160206146728339815191525c156104275760206106373361267a565b346102e65760603660031901126102e6576120ae612222565b6120b6612238565b604435905f805160206146728339815191525c1561042757610a88926120eb6120de8461248f565b5f03600f0b3390836124bc565b612598565b346102e6576001600160a01b036121063661224e565b91929092335f52600460205260405f20845f5260205260405f2061212b848254612409565b90551690815f52600460205260405f20835f5260205260405f20612150828254612416565b9055604080513380825260208201939093527f1b3d7edb2e9c0b0e7c525b20aaaef0f5940d2ed71663c7d39266ecafac728859918190810161024e565b346102e65760203660031901126102e65760043563ffffffff60e01b81168091036102e6576020906301ffc9a760e01b81149081156121d2575b506040519015158152f35b630f632fb360e01b149050826121c7565b346102e65760403660031901126102e6576020906001600160a01b03612207612222565b165f526004825260405f206024355f52825260405f20548152f35b600435906001600160a01b03821682036102e657565b602435906001600160a01b03821682036102e657565b60609060031901126102e6576004356001600160a01b03811681036102e657906024359060443590565b6080810190811067ffffffffffffffff82111761183657604052565b6060810190811067ffffffffffffffff82111761183657604052565b60a0810190811067ffffffffffffffff82111761183657604052565b90601f8019910116810190811067ffffffffffffffff82111761183657604052565b60a4359062ffffff821682036102e657565b60a09060031901126102e65760405190612319826122b0565b816004356001600160a01b03811681036102e65781526024356001600160a01b03811681036102e657602082015260443562ffffff811681036102e65760408201526064358060020b81036102e6576060820152608435906001600160a01b03821682036102e65760800152565b9181601f840112156102e65782359167ffffffffffffffff83116102e657602083818601950101116102e657565b9060206003198301126102e65760043567ffffffffffffffff81116102e657826023820112156102e65780600401359267ffffffffffffffff84116102e65760248460051b830101116102e6576024019190565b91908203918211610f2a57565b91908201809211610f2a57565b1561242a57565b60405162461bcd60e51b815260206004820152600c60248201527f554e415554484f52495a454400000000000000000000000000000000000000006044820152606490fd5b908060209392818452848401375f828201840152601f01601f1916010190565b6f800000000000000000000000000000008110156124ad57600f0b90565b6393dafdf160e01b5f5260045ffd5b9190600f0b918215612593576124e591906001600160a01b038092165f521660205260405f2090565b6124f1815c9283612c00565b80915d61254357505f197f7d4b3164c6e45b97e7d87b7125a44c5828d005af88f9d751cfd78729c5d99a0b5c017f7d4b3164c6e45b97e7d87b7125a44c5828d005af88f9d751cfd78729c5d99a0b5d5b565b1561254a57565b60017f7d4b3164c6e45b97e7d87b7125a44c5828d005af88f9d751cfd78729c5d99a0b5c017f7d4b3164c6e45b97e7d87b7125a44c5828d005af88f9d751cfd78729c5d99a0b5d565b505050565b9091906001600160a01b03811690816125f25750505f80808093855af1156125bd5750565b3d60405191638549db5960e01b8352600483015260406024830152806044830152805f606484013e601f801991011660640190fd5b60205f6044819496826040956001600160a01b03988751998a9463a9059cbb60e01b865216600485015260248401525af13d15601f3d116001855114161716928281528260208201520152156126455750565b3d60405191632c4b17e760e21b8352600483015260406024830152806044830152805f606484013e601f801991011660640190fd5b7f27e098c505d44ec3574004bca052aabf76bd35004c182099d8c575fb238593b95c91906001600160a01b0383166126c2576125419034935b6126bc8561248f565b906124bc565b3461272757612541906126fe7f1e0745a7db1623981f0b2a5d4232364c00787266eb75ad546f190e6cebe9bd955c6126f986612b8f565b612409565b935f7f27e098c505d44ec3574004bca052aabf76bd35004c182099d8c575fb238593b95d6126b3565b635876424f60e11b5f5260045ffd5b6001600160a01b037f000000000000000000000000000000000000000000000000000000000000000016300361276857565b6306c4a1c760e11b5f5260045ffd5b546001600160a01b03161561278857565b63486aa30760e01b5f5260045ffd5b91926127f8610120946001600160a01b0361281099979416855260208501906001600160a01b036080809282815116855282602082015116602086015262ffffff6040820151166040860152606081015160020b6060860152015116910152565b60c083015260e082015281610100820152019161246f565b90565b906001600160a01b036020612541949361283585848351168660801d906124bc565b01511690600f0b906124bc565b62ffffff16620f424081116128545750565b631400211360e01b5f5260045260245ffd5b9061281095936128c9610160946001600160a01b036128f89416855260208501906001600160a01b036080809282815116855282602082015116602086015262ffffff6040820151166040860152606081015160020b6060860152015116910152565b8051600290810b60c08501526020820151900b60e0840152604081015161010084015260600151610120830152565b81610140820152019161246f565b9081600f0b9182036124ad57565b926129a8906129796128109997946001600160a01b036101a0989516875260208701906001600160a01b036080809282815116855282602082015116602086015262ffffff6040820151166040860152606081015160020b6060860152015116910152565b8051600290810b60c08701526020820151900b60e0860152604081015161010086015260600151610120850152565b61014083015261016082015281610180820152019161246f565b939590919296945f966001600160a01b0386163314612ab657885f6040870151135f14612a5e5761040087166129fc575b50505050505050565b612a519799985092612a4a96959492612a3092612a3e956040519788966327c18fbf60e21b60208901523360248901612914565b03601f1981018352826122cc565b60028216151591613413565b8092613433565b915f8080808080806129f3565b9594939291906101008616612a765750505050505050565b612a5197995086985091612a3091612aaa9493612a4a98604051978896633615df3f60e11b60208901523360248901612914565b60018216151591613413565b505f96505050505050565b608081161580612b66575b612b3c57604081161580612b5a575b612b3c5761040081161580612b4e575b612b3c5761010081161580612b42575b612b3c576001600160a01b038116612b1c575062ffffff1662800000141590565b613fff161590811591612b2d575090565b62800000915062ffffff161490565b50505f90565b50600181161515612afb565b50600281161515612aeb565b50600481161515612adb565b50600881161515612acc565b6280000062ffffff821614612b8a5761281081612842565b505f90565b6001600160a01b031680612ba257504790565b6020602491604051928380926370a0823160e01b82523060048301525afa908115611c2f575f91612bd1575090565b90506020813d602011612bf8575b81612bec602093836122cc565b810103126102e6575190565b3d9150612bdf565b9190915f8382019384129112908015821691151617610f2a57565b6020830151955f958695919491336001600160a01b03851614612d925760808416612c48575b5050505050565b612cfd92612a30612cf792612ce3946040519586946315d7892d60e21b6020870152336024870152612cba604487018c6001600160a01b036080809282815116855282602082015116602086015262ffffff6040820151166040860152606081015160020b6060860152015116910152565b8051151560e48701526020810151610104870152604001516001600160a01b0316610124860152565b61014061014485015261016484019161246f565b82612f36565b916060835103612d83576040015162ffffff166280000014612d77575b600816612d2b575b80808080612c41565b604001519250608083901d600f0b8015612d2257612d4c905f861295612c00565b9315612d6f575f84135b612d60575f612d22565b637d05b8eb60e11b5f5260045ffd5b5f8412612d56565b60608201519350612d1a565b631e048e1d60e01b5f5260045ffd5b505f965086955050505050565b90600f0b90600f0b01906f7fffffffffffffffffffffffffffffff1982126f7fffffffffffffffffffffffffffffff831317610f2a57565b919695939492946001600160a01b0383163314612f29578460801d94600f0b938860408516612e77575b50505050505f9481600f0b15801590612e6b575b612e21575b5050509190565b612e4f9395505f60208201511290511515145f14612e57576001600160801b03169060801b175b8093613433565b5f8080612e1a565b906001600160801b03169060801b17612e48565b5082600f0b1515612e15565b612f0d612f1994612a3061140695612f1f999895612ef2612cba9660405197889663b47b2fb160e01b602089015233602489015260448801906001600160a01b036080809282815116855282602082015116602086015262ffffff6040820151166040860152606081015160020b6060860152015116910152565b8c61014485015261016061016485015261018484019161246f565b60048216151591613413565b90612d9f565b5f80808088612e01565b5050505050909150905f90565b9190915f80602085519501948582855af115612fb4575060405191601f19603f3d011683016040523d83523d9060208401915f833e6020845110918215612f80575b5050612d8357565b5190517fffffffff000000000000000000000000000000000000000000000000000000009182169116141590505f80612f78565b3d6001600160a01b036040519263319d54c360e01b845216600483015260406024830152806044830152805f606484013e601f801991011660640190fd5b919060020b9060020b908181076130205705908160081d5f52602052600160ff60405f2092161b8154189055565b601c906044926040519163d4d8f3e683526020830152604082015201fd5b60020b908160ff1d82810118620d89e881116133585763ffffffff9192600182167001fffcb933bd6fad37aa2d162d1a59400102600160801b18916002811661333c575b60048116613320575b60088116613304575b601081166132e8575b602081166132cc575b604081166132b0575b60808116613294575b6101008116613278575b610200811661325c575b6104008116613240575b6108008116613224575b6110008116613208575b61200081166131ec575b61400081166131d0575b61800081166131b4575b620100008116613198575b62020000811661317d575b620400008116613162575b6208000016613149575b5f12613141575b0160201c90565b5f190461313a565b6b048a170391f7dc42444e8fa290910260801c90613133565b6d2216e584f5fa1ea926041bedfe9890920260801c91613129565b916e5d6af8dedb81196699c329225ee6040260801c9161311e565b916f09aa508b5b7a84e1c677de54f3e99bc90260801c91613113565b916f31be135f97d08fd981231505542fcfa60260801c91613108565b916f70d869a156d2a1b890bb3df62baf32f70260801c916130fe565b916fa9f746462d870fdf8a65dc1f90e061e50260801c916130f4565b916fd097f3bdfd2022b8845ad8f792aa58250260801c916130ea565b916fe7159475a2c29b7443b29c7fa6e889d90260801c916130e0565b916ff3392b0822b70005940c7a398e4b70f30260801c916130d6565b916ff987a7253ac413176f2b074cf7815e540260801c916130cc565b916ffcbe86c7900a88aedcffc83b479aa3a40260801c916130c2565b916ffe5dee046a99a2a811c461f1969c30530260801c916130b8565b916fff2ea16466c96a3843ec78b326b528610260801c916130af565b916fff973b41fa98c081472e6896dfb254c00260801c916130a6565b916fffcb9843d60f6159c9db58835c9266440260801c9161309d565b916fffe5caca7e10e4e61c3624eaa0941cd00260801c91613094565b916ffff2e50f5f656932ef12357cf3c7fdcc0260801c9161308b565b916ffff97272373d413259a46990580e213a0260801c91613082565b826345c3193d60e11b5f5260045260245ffd5b905f83600f0b125f146133975761338d925f036001600160801b0316916143c4565b5f81126124ad5790565b6133aa926001600160801b031691614388565b5f81126124ad575f0390565b905f83600f0b125f146133d85761338d925f036001600160801b031691614468565b6133aa926001600160801b0316916143ee565b906001600160801b0390600f0b911601908160801c61340657565b6393dafdf15f526004601cfd5b9061341d91612f36565b9015612b8a576040815103612d83576040015190565b613456906134488360801d8260801d03612906565b92600f0b90600f0b03612906565b6001600160801b03169060801b1790565b8115613471570490565b634e487b7160e01b5f52601260045260245ffd5b73fffd8963efd1fc6a506488495d951d51639616826401000276a21982016001600160a01b0316116136dd5777ffffffffffffffffffffffffffffffffffffffff000000008160201b168060ff6134db836144d2565b1691608083106136d15750607e1982011c5b800280607f1c8160ff1c1c800280607f1c8160ff1c1c800280607f1c8160ff1c1c800280607f1c8160ff1c1c800280607f1c8160ff1c1c800280607f1c8160ff1c1c80029081607f1c8260ff1c1c80029283607f1c8460ff1c1c80029485607f1c8660ff1c1c80029687607f1c8860ff1c1c80029889607f1c8a60ff1c1c80029a8b607f1c8c60ff1c1c80029c8d80607f1c9060ff1c1c800260cd1c6604000000000000169d60cc1c6608000000000000169c60cb1c6610000000000000169b60ca1c6620000000000000169a60c91c6640000000000000169960c81c6680000000000000169860c71c670100000000000000169760c61c670200000000000000169660c51c670400000000000000169560c41c670800000000000000169460c31c671000000000000000169360c21c672000000000000000169260c11c674000000000000000169160c01c6780000000000000001690607f190160401b1717171717171717171717171717693627a301d71055774c85026f028f6481ab7f045a5af012a19d003aa919810160801d60020b906fdb2df09e81959a81455e260799a0632f0160801d60020b918282145f146136a85750905090565b6001600160a01b03166001600160a01b036136c28461303e565b16116136cc575090565b905090565b905081607f031b6134ed565b6001600160a01b03906318521d4960e21b5f521660045260245ffd5b905f60c0525f9060405161370c81612294565b5f8152602081015f815260408201915f83528060c0528554936040810151159788155f1461417457610fff8660b81c16955b8251945f96826001600160a01b0316918287528360a01c60020b90526001600160801b0360038c0154169052608084015162400000811615155f146141655762bfffff1661378b81612842565b61ffff8916614143575b8095620f424062ffffff8316101561412b575b8551156141155750508a6140cf5760608401906001600160a01b03825116818110156140b1575050516001600160a01b03166401000276a381111561409f57505b60405160a05261010060a0510160a051811067ffffffffffffffff821117611836576040525f60a051525f602060a05101525f604060a05101525f606060a05101525f608060a05101525f60a0805101525f60c060a051015289155f14614091576001890154959490955b60e060a05101525b8015801561406f575b613f68576001600160a01b0360c051511660a05152602060c051015160020b602084015160020b90815f81830712910503908b155f14613e735760ff8216918060020b60081d60010b5f5260058c0160205260405f205f198460ff031c9054169283151593845f14613e6157906138dd60ff926144d2565b90031660020b900360020b0260020b5b905b1515604060a051015260020b80602060a0510152620d89e7191215613e50575b620d89e8602060a051015160020b1215613e40575b6001600160a01b0361393e602060a051015160020b61303e565b1680606060a051015260016001600160a01b0360c0515116918c6001600160a01b0360608801511692839115168183101891180218906001600160801b03604060c05101511662ffffff8716916001600160a01b038416811015905f86125f14613d035783620f424003926139b584885f036141cb565b938315613cf2576139c78284896143ee565b945b858110613c5a57506001600160a01b0396958691620f42408203613c4b575050845b935b15613c3d57916139fc926143c4565b905b60c060a051015260a080510152608060a05101521660c051525f8351135f14613c085760a080510151905f82126124ad570393613a48608060a051015160c060a051015190612416565b5f81126124ad578103908113600116610f2a57945b61ffff8716613bd4575b6001600160801b03604060c05101511680613bb4575b506001600160a01b0360c05151166001600160a01b03606060a05101511681145f14613b815750604060a0510151613ae7575b89613ad8575f19602060a051015160020b0160020b5b60020b602060c05101525b949361385c565b602060a051015160020b613ac6565b89613b65576001600160801b03613b4e60e060a051015160028c01545b602060a051015160020b60020b5f5260048d0160205260405f2091600183019081549003905560028201908154900390555460801d8c15613b5b575b82604060c0510151166133eb565b16604060c0510152613ab0565b5f03600f0b613b40565b6001600160801b03613b4e60018b015460e060a0510151613b04565b6001600160a01b0360a05151168103613b9b575b50613ad1565b613ba490613485565b60020b602060c05101525f613b95565b60c060a051015160801b0460e060a05101510160e060a05101525f613a7d565b96620f4240608060a051015161ffff89169060c060a0510151010204908160c060a05101510360c060a05101520196613a67565b608060a051015160c060a051015101905f82126124ad57019360a0805101515f81126124ad57613c3791612c00565b94613a5d565b613c4692614468565b6139fc565b613c559187614556565b6139eb565b9550509450915082918415811517613ce5576001600160a01b03948215613c9257613c868582846145df565b809588015f03936139ed565b858511613cc757613cc2613cbd613cb56001600160801b0384168860601b613467565b888516612416565b61465d565b613c86565b613cc2613cbd613ce06001600160801b03841688614280565b613cb5565b634f2461b85f526004601cfd5b613cfd828885614388565b946139c9565b91939092918315613e2f57613d198582846143c4565b915b828710613d6357906001600160a01b0395613d509280965b15613d555791613d42926143ee565b809380620f42400391614556565b6139fe565b613d5e92614388565b613d42565b508591508015851517613ce5578315613e12576001600160a01b038611613dd4578560601b6001600160801b0386168082061515910401905b6001600160a01b0381169582871115613dc7576001600160a01b03613d5093819803165b8096613d33565b634323a5555f526004601cfd5b6001600160801b038516613ded81600160601b89614308565b90801561347157600160601b8809613e06575b90613d9c565b60010180613e00575f80fd5b8085613e2a886001600160a01b0398613d509561457f565b613dc0565b613e3a858383614468565b91613d1b565b620d89e8602060a0510152613924565b620d89e719602060a051015261390f565b5060020b900360020b0260020b6138ed565b90600101908160020b8260ff16928160081d60010b5f5260058d0160205260405f2090600160ff5f1992161b0119905416801593841594855f14613f50576102e6578160ff925f03167e1f0d1e100c1d070f090b19131c1706010e11080a1a141802121b1503160405601f6101e07f804040554300526644320000502061067405302602000010750620017611707760fc7fb6db6db6ddddddddd34d34d349249249210842108c6318c639ce739cffffffff860260f81c161b60f71c1692831c63d76453e004161a17031660020b0160020b0260020b5b906138ef565b5060ff809250031660020b0160020b0260020b613f4a565b939550979195969093602060c051015160a01b62ffffff60a01b167fffffffffffffffffff00000000000000000000000000000000000000000000006001600160a01b0360c05151169216171781556001600160801b036003820154166001600160801b03604060c05101511680910361404b575b50811561403a57600260e060a05101519101555b825190155f821214614024575061400b6140139293612906565b925103612906565b6001600160801b03169060801b1792565b6140139250906140349103612906565b91612906565b600160e060a0510151910155613ff1565b6001600160801b03166001600160801b03196003830154161760038201555f613fdd565b506001600160a01b0360c05151166001600160a01b0360608501511614613865565b600289015495949095613854565b639e4d7cc760e01b5f5260045260245ffd5b6044925060405191637c9c6e8f60e01b835260048301526024820152fd5b60608401906001600160a01b03825116818111156140b1575050516001600160a01b031673fffd8963efd1fc6a506488495d951d5263988d2681101561409f57506137e9565b60c0525f9b508b9a509850919650505050505050565b5f865113156137a857634b10312360e11b5f5260045ffd5b62ffffff610fff8a169116808202620f42408082061515910401910103613795565b508160d01c62ffffff1661378b565b610fff8660c41c169561373e565b81810291905f1982820991838084109303928084039384600160801b11156102e657146141c257600160801b910990828211900360801b910360801c1790565b50505060801c90565b808202905f1983820990828083109203918083039283620f424011156102e6571461422b577fde8f6cefed634549b62c77574f722e1ac57e23f24d8fd5cb790fb65668c2613993620f4240910990828211900360fa1b910360061c170290565b5050620f424091500490565b81810291905f1982820991838084109303928084039384600160601b11156102e6571461427757600160601b910990828211900360a01b910360601c1790565b50505060601c90565b908160601b905f19600160601b8409928280851094039380850394858411156102e6571461430157600160601b82910981805f03168092046002816003021880820260020302808202600203028082026002030280820260020302808202600203028091026002030293600183805f03040190848311900302920304170290565b5091500490565b91818302915f19818509938380861095039480860395868511156102e65714614380579082910981805f03168092046002816003021880820260020302808202600203028082026002030280820260020302808202600203028091026002030293600183805f03040190848311900302920304170290565b505091500490565b6001600160801b03600160601b916001600160a01b0380600195169116038060ff1d908101189316926143bb8185614237565b93091515160190565b6001600160801b03906001600160a01b03806128109594169116038060ff1d908101189116614237565b906001600160a01b0381166001600160a01b03831611614462575b6001600160a01b038216928315614456576fffffffffffffffffffffffffffffffff60601b6001600160a01b0361444a948185169403169160601b16614556565b90808206151591040190565b62bfc9215f526004601cfd5b90614409565b6001600160a01b0382166001600160a01b038216116144cc575b6001600160a01b03811691821561445657612810936fffffffffffffffffffffffffffffffff60601b6001600160a01b036144c7948185169403169160601b16614308565b613467565b90614482565b80156102e6577f07060605060205000602030205040001060502050303040105050304000000006f8421084210842108cc6318c6db6d54be826001600160801b031060071b83811c67ffffffffffffffff1060061b1783811c63ffffffff1060051b1783811c61ffff1060041b1783811c60ff1060031b1792831c1c601f161a1790565b929190614564828286614308565b938215613471570961457257565b906001019081156102e657565b919081156145da576fffffffffffffffffffffffffffffffff60601b6001600160a01b039160601b1692169182820291838383119184041416156145cd5761281092613cbd92820391614556565b63f5c787f15f526004601cfd5b505090565b90918015614657576001600160a01b036fffffffffffffffffffffffffffffffff60601b819460601b169216808202816146198483613467565b1461463f575b509061462e6146339284613467565b612416565b80820615159104011690565b830183811061461f57915061465392614556565b1690565b50905090565b906001600160a01b0382169182036124ad5756fec090fc4683624cfc3884e9d8de5eca132f2d0ec062aff75d43c0465d5ceeab23a2646970667358221220e625c1d2c5ed99e16ab03a9c7496c73a97b53765d98afa9981fc59f364d6918764736f6c634300081a0033","linkReferences":{}},"methodIdentifiers":{"allowance(address,address,uint256)":"598af9e7","approve(address,uint256,uint256)":"426a8493","balanceOf(address,uint256)":"00fdd58e","burn(address,uint256,uint256)":"f5298aca","clear(address,uint256)":"80f0b44c","collectProtocolFees(address,address,uint256)":"8161b874","donate((address,address,uint24,int24,address),uint256,uint256,bytes)":"234266d7","extsload(bytes32)":"1e2eaeaf","extsload(bytes32,uint256)":"35fd631a","extsload(bytes32[])":"dbd035ff","exttload(bytes32)":"f135baaa","exttload(bytes32[])":"9bf6645f","initialize((address,address,uint24,int24,address),uint160,bytes)":"695c5bf5","isOperator(address,address)":"b6363cf2","mint(address,uint256,uint256)":"156e29f6","modifyLiquidity((address,address,uint24,int24,address),(int24,int24,int256,bytes32),bytes)":"5a6bcfda","owner()":"8da5cb5b","protocolFeeController()":"f02de3b2","protocolFeesAccrued(address)":"97e8cd4e","setOperator(address,bool)":"558a7297","setProtocolFee((address,address,uint24,int24,address),uint24)":"7e87ce7d","setProtocolFeeController(address)":"2d771389","settle()":"11da60b4","settleFor(address)":"3dd45adb","supportsInterface(bytes4)":"01ffc9a7","swap((address,address,uint24,int24,address),(bool,int256,uint160),bytes)":"f3cd914c","sync(address)":"a5841194","take(address,address,uint256)":"0b0d9c09","transfer(address,uint256,uint256)":"095bcdb6","transferFrom(address,address,uint256,uint256)":"fe99049a","transferOwnership(address)":"f2fde38b","unlock(bytes)":"48c89491","updateDynamicLPFee((address,address,uint24,int24,address),uint24)":"52759651"},"id":50}