{"abi":[{"type":"constructor","inputs":[{"name":"_router","type":"address","internalType":"address"},{"name":"_link","type":"address","internalType":"address"}],"stateMutability":"nonpayable"},{"type":"receive","stateMutability":"payable"},{"type":"function","name":"acceptOwnership","inputs":[],"outputs":[],"stateMutability":"nonpayable"},{"type":"function","name":"allowlistDestinationChain","inputs":[{"name":"_destinationChainSelector","type":"uint64","internalType":"uint64"},{"name":"allowed","type":"bool","internalType":"bool"}],"outputs":[],"stateMutability":"nonpayable"},{"type":"function","name":"allowlistedChains","inputs":[{"name":"","type":"uint64","internalType":"uint64"}],"outputs":[{"name":"","type":"bool","internalType":"bool"}],"stateMutability":"view"},{"type":"function","name":"owner","inputs":[],"outputs":[{"name":"","type":"address","internalType":"address"}],"stateMutability":"view"},{"type":"function","name":"transferOwnership","inputs":[{"name":"to","type":"address","internalType":"address"}],"outputs":[],"stateMutability":"nonpayable"},{"type":"function","name":"transferTokensPayLINK","inputs":[{"name":"_destinationChainSelector","type":"uint64","internalType":"uint64"},{"name":"_receiver","type":"address","internalType":"address"},{"name":"_token","type":"address","internalType":"address"},{"name":"_amount","type":"uint256","internalType":"uint256"}],"outputs":[{"name":"messageId","type":"bytes32","internalType":"bytes32"}],"stateMutability":"nonpayable"},{"type":"function","name":"transferTokensPayNative","inputs":[{"name":"_destinationChainSelector","type":"uint64","internalType":"uint64"},{"name":"_receiver","type":"address","internalType":"address"},{"name":"_token","type":"address","internalType":"address"},{"name":"_amount","type":"uint256","internalType":"uint256"}],"outputs":[{"name":"messageId","type":"bytes32","internalType":"bytes32"}],"stateMutability":"nonpayable"},{"type":"function","name":"withdraw","inputs":[{"name":"_beneficiary","type":"address","internalType":"address"}],"outputs":[],"stateMutability":"nonpayable"},{"type":"function","name":"withdrawToken","inputs":[{"name":"_beneficiary","type":"address","internalType":"address"},{"name":"_token","type":"address","internalType":"address"}],"outputs":[],"stateMutability":"nonpayable"},{"type":"event","name":"OwnershipTransferRequested","inputs":[{"name":"from","type":"address","indexed":true,"internalType":"address"},{"name":"to","type":"address","indexed":true,"internalType":"address"}],"anonymous":false},{"type":"event","name":"OwnershipTransferred","inputs":[{"name":"from","type":"address","indexed":true,"internalType":"address"},{"name":"to","type":"address","indexed":true,"internalType":"address"}],"anonymous":false},{"type":"event","name":"TokensTransferred","inputs":[{"name":"messageId","type":"bytes32","indexed":true,"internalType":"bytes32"},{"name":"destinationChainSelector","type":"uint64","indexed":true,"internalType":"uint64"},{"name":"receiver","type":"address","indexed":false,"internalType":"address"},{"name":"token","type":"address","indexed":false,"internalType":"address"},{"name":"tokenAmount","type":"uint256","indexed":false,"internalType":"uint256"},{"name":"feeToken","type":"address","indexed":false,"internalType":"address"},{"name":"fees","type":"uint256","indexed":false,"internalType":"uint256"}],"anonymous":false},{"type":"error","name":"DestinationChainNotAllowlisted","inputs":[{"name":"destinationChainSelector","type":"uint64","internalType":"uint64"}]},{"type":"error","name":"FailedToWithdrawEth","inputs":[{"name":"owner","type":"address","internalType":"address"},{"name":"target","type":"address","internalType":"address"},{"name":"value","type":"uint256","internalType":"uint256"}]},{"type":"error","name":"InvalidReceiverAddress","inputs":[]},{"type":"error","name":"NotEnoughBalance","inputs":[{"name":"currentBalance","type":"uint256","internalType":"uint256"},{"name":"calculatedFees","type":"uint256","internalType":"uint256"}]},{"type":"error","name":"NothingToWithdraw","inputs":[]}],"bytecode":{"object":"0x6080346100e657601f61118338819003918201601f19168301916001600160401b038311848410176100ea5780849260409485528339810103126100e657610052602061004b836100fe565b92016100fe565b9033156100a1575f80546001600160a01b031990811633179091556003805482166001600160a01b03938416179055600480549091169290911691909117905560405161107090816101138239f35b60405162461bcd60e51b815260206004820152601860248201527f43616e6e6f7420736574206f776e657220746f207a65726f00000000000000006044820152606490fd5b5f80fd5b634e487b7160e01b5f52604160045260245ffd5b51906001600160a01b03821682036100e65756fe608080604052600436101561001c575b50361561001a575f80fd5b005b5f3560e01c9081630bb106eb14610c9a575080633aeac4e114610ad857806351419b4b146107b257806351cff8d91461073f57806379ba5097146106825780638da5cb5b1461065d57806395e1402c146101ab57806396d3b83d146101555763f2fde38b1461008b575f61000f565b34610151576020366003190112610151576001600160a01b036100ac610ceb565b6100b4610f24565b1633811461010c578073ffffffffffffffffffffffffffffffffffffffff1960015416176001556001600160a01b035f54167fed8889f560326eb138920d842192f0eb3dd22b4f139c87a2c57538e05bae12785f80a3005b60405162461bcd60e51b815260206004820152601760248201527f43616e6e6f74207472616e7366657220746f2073656c660000000000000000006044820152606490fd5b5f80fd5b346101515760403660031901126101515761016e610cd4565b602435908115158092036101515767ffffffffffffffff9061018e610f24565b165f52600260205260405f209060ff801983541691161790555f80f35b34610151576101b936610d01565b9092916101c4610f24565b67ffffffffffffffff831690815f52600260205260ff60405f2054161561064a576001600160a01b0316801561063b576001600160a01b0360045416946060608060405161021181610d50565b8281528260208201528260408201525f8382015201526040938451956102378688610db8565b60018752601f1986015f5b8181106106195750509061032992916001600160a01b0387519361026585610d80565b169283815282602082015261027989610f7c565b5261028388610f7c565b508651988560208b015260208a5261029b888b610db8565b87516102a681610d9c565b5f81528851906397a657c960e01b6020830152516024820152602481526102ce604482610db8565b88519a6102da8c610d50565b8b5260209989516102eb8c82610db8565b5f81528b8d0152898c01528160608c015260808b01526001600160a01b0360035416898b8a51809881926320487ded60e01b83528760048401610dfe565b0381845afa95861561060f575f966105e0575b5088516370a0823160e01b81523060048201528a81602481865afa9081156105d6575f916105a9575b50861161052d57885163095ea7b360e01b81526001600160a01b0391909116600482015260248101869052908990829060449082905f905af1801561050857610512575b50600354875163095ea7b360e01b81526001600160a01b0390911660048201526024810183905288816044815f885af180156105085791899a916104179a936104dd575b506001600160a01b0360035416905f8a51809c819582946396f4e9f960e01b845260048401610dfe565b03925af19687156104d3575f9761047e575b50600454865194855288850192909252838601526001600160a01b03166060830152608082015283907fc15fb748c32ba4eb29c1c311e78533f93b4425eab49ea87c6fe4279ecadca0439060a090a351908152f35b9290939196508783813d83116104cc575b6104998183610db8565b810103126101515791519590927fc15fb748c32ba4eb29c1c311e78533f93b4425eab49ea87c6fe4279ecadca043610429565b503d61048f565b86513d5f823e3d90fd5b6104fc90843d8611610501575b6104f48183610db8565b810190610ecd565b6103ed565b503d6104ea565b88513d5f823e3d90fd5b61052890893d8b11610501576104f48183610db8565b6103a9565b88516370a0823160e01b815230600482015286908a908c8082602481895afa9283156105a057505f92610572575b5050634787a10360e11b5f5260045260245260445ffd5b90809250813d8311610599575b6105898183610db8565b810103126101515751828061055b565b503d61057f565b513d5f823e3d90fd5b90508a81813d83116105cf575b6105c08183610db8565b8101031261015157518c610365565b503d6105b6565b8a513d5f823e3d90fd5b9095508981813d8311610608575b6105f88183610db8565b810103126101515751948b61033c565b503d6105ee565b89513d5f823e3d90fd5b602090885161062781610d80565b5f81525f8382015282828c01015201610242565b63502ffa3f60e11b5f5260045ffd5b50630a503cdb60e01b5f5260045260245ffd5b34610151575f3660031901126101515760206001600160a01b035f5416604051908152f35b34610151575f366003190112610151576001546001600160a01b03811633036106fa5773ffffffffffffffffffffffffffffffffffffffff195f549133828416175f55166001556001600160a01b033391167f8be0079c531659141344cd1fd0a4f28419497f9722a3daafe3b4186f6b6457e05f80a3005b60405162461bcd60e51b815260206004820152601660248201527f4d7573742062652070726f706f736564206f776e6572000000000000000000006044820152606490fd5b3461015157602036600319011261015157610758610ceb565b610760610f24565b479081156107a3575f80808085855af1610778610ee5565b501561078057005b6001600160a01b0390639d11f56360e01b5f52336004521660245260445260645ffd5b630686827b60e51b5f5260045ffd5b34610151576107c036610d01565b916107cc939193610f24565b67ffffffffffffffff821690815f52600260205260ff60405f2054161561064a576001600160a01b0316801561063b576060608060405161080c81610d50565b8281528260208201528260408201525f8382015201526040928351946108328587610db8565b60018652601f1985015f5b818110610ab65750506001600160a01b0385519761085a89610d80565b169687815281602082015261086e87610f7c565b5261087886610f7c565b50845196836020890152602088526108908689610db8565b855161089b81610d9c565b5f81528651906397a657c960e01b6020830152516024820152602481526108c3604482610db8565b8651986108cf8a610d50565b895260209787516108e08a82610db8565b5f8152898b0152878a01525f60608a015260808901526001600160a01b0360035416928651936320487ded60e01b85528885806109218d8660048401610dfe565b0381845afa948515610508575f95610a87575b50478511610a7057875163095ea7b360e01b81526001600160a01b039190911660048201526024810184905288816044815f875af180156105085791899a916109a79a93610a55575b506001600160a01b036003541690868a51809c819582946396f4e9f960e01b845260048401610dfe565b03925af19687156104d3575f97610a00575b50855193845287840152828501525f6060830152608082015283907fc15fb748c32ba4eb29c1c311e78533f93b4425eab49ea87c6fe4279ecadca0439060a090a351908152f35b9290939196508783813d8311610a4e575b610a1b8183610db8565b810103126101515791519590927fc15fb748c32ba4eb29c1c311e78533f93b4425eab49ea87c6fe4279ecadca0436109b9565b503d610a11565b610a6b90843d8611610501576104f48183610db8565b61097d565b8447634787a10360e11b5f5260045260245260445ffd5b9094508881813d8311610aaf575b610a9f8183610db8565b810103126101515751938a610934565b503d610a95565b6020908751610ac481610d80565b5f81525f8382015282828b0101520161083d565b3461015157604036600319011261015157610af1610ceb565b6024356001600160a01b03811680910361015157610b0d610f24565b6040516370a0823160e01b815230600482015290602082602481845afa918215610c8f575f92610c5b575b5081156107a35760405163a9059cbb60e01b602082019081526001600160a01b03949094166024820152604480820193909352918252610bce925f908190610b81606486610db8565b60405194610b90604087610db8565b602086527f5361666545524332303a206c6f772d6c6576656c2063616c6c206661696c65646020870152519082855af1610bc8610ee5565b91610f9d565b80519081610bd857005b602080610be9938301019101610ecd565b15610bf057005b60405162461bcd60e51b815260206004820152602a60248201527f5361666545524332303a204552433230206f7065726174696f6e20646964206e60448201527f6f742073756363656564000000000000000000000000000000000000000000006064820152608490fd5b9091506020813d602011610c87575b81610c7760209383610db8565b8101031261015157519083610b38565b3d9150610c6a565b6040513d5f823e3d90fd5b346101515760203660031901126101515760209067ffffffffffffffff610cbf610cd4565b165f526002825260ff60405f20541615158152f35b6004359067ffffffffffffffff8216820361015157565b600435906001600160a01b038216820361015157565b60809060031901126101515760043567ffffffffffffffff8116810361015157906024356001600160a01b038116810361015157906044356001600160a01b0381168103610151579060643590565b60a0810190811067ffffffffffffffff821117610d6c57604052565b634e487b7160e01b5f52604160045260245ffd5b6040810190811067ffffffffffffffff821117610d6c57604052565b6020810190811067ffffffffffffffff821117610d6c57604052565b90601f8019910116810190811067ffffffffffffffff821117610d6c57604052565b805180835260209291819084018484015e5f828201840152601f01601f1916010190565b9067ffffffffffffffff9093929316815260406020820152610e45610e2f845160a0604085015260e0840190610dda565b6020850151838203603f19016060850152610dda565b90604084015191603f19828203016080830152602080845192838152019301905f5b818110610ea2575050506080846001600160a01b036060610e9f969701511660a084015201519060c0603f1982850301910152610dda565b90565b825180516001600160a01b031686526020908101518187015260409095019490920191600101610e67565b90816020910312610151575180151581036101515790565b3d15610f1f573d9067ffffffffffffffff8211610d6c5760405191610f14601f8201601f191660200184610db8565b82523d5f602084013e565b606090565b6001600160a01b035f54163303610f3757565b60405162461bcd60e51b815260206004820152601660248201527f4f6e6c792063616c6c61626c65206279206f776e6572000000000000000000006044820152606490fd5b805115610f895760200190565b634e487b7160e01b5f52603260045260245ffd5b91929015610fff5750815115610fb1575090565b3b15610fba5790565b60405162461bcd60e51b815260206004820152601d60248201527f416464726573733a2063616c6c20746f206e6f6e2d636f6e74726163740000006044820152606490fd5b8251909150156110125750805190602001fd5b60405162461bcd60e51b815260206004820152908190611036906024830190610dda565b0390fdfea26469706673582212209b31d679400aab145a29dfdcbd34fa48ec46d3aa829ba08ede97af83c3db721064736f6c634300081a0033","linkReferences":{}},"methodIdentifiers":{"acceptOwnership()":"79ba5097","allowlistDestinationChain(uint64,bool)":"96d3b83d","allowlistedChains(uint64)":"0bb106eb","owner()":"8da5cb5b","transferOwnership(address)":"f2fde38b","transferTokensPayLINK(uint64,address,address,uint256)":"95e1402c","transferTokensPayNative(uint64,address,address,uint256)":"51419b4b","withdraw(address)":"51cff8d9","withdrawToken(address,address)":"3aeac4e1"},"id":98}